{
  "address": "0x32D228B5d44Fd18FefBfd68BfE5A5F3f75C873AE",
  "abi": [
    {
      "inputs": [
        {
          "internalType": "address",
          "name": "api3TokenAddress",
          "type": "address"
        },
        {
          "internalType": "address",
          "name": "timelockManagerOwner",
          "type": "address"
        }
      ],
      "stateMutability": "nonpayable",
      "type": "constructor"
    },
    {
      "anonymous": false,
      "inputs": [
        {
          "indexed": false,
          "internalType": "address",
          "name": "api3PoolAddress",
          "type": "address"
        }
      ],
      "name": "Api3PoolUpdated",
      "type": "event"
    },
    {
      "anonymous": false,
      "inputs": [
        {
          "indexed": true,
          "internalType": "address",
          "name": "previousOwner",
          "type": "address"
        },
        {
          "indexed": true,
          "internalType": "address",
          "name": "newOwner",
          "type": "address"
        }
      ],
      "name": "OwnershipTransferred",
      "type": "event"
    },
    {
      "anonymous": false,
      "inputs": [
        {
          "indexed": false,
          "internalType": "address",
          "name": "recipient",
          "type": "address"
        }
      ],
      "name": "PermittedTimelockToBeReverted",
      "type": "event"
    },
    {
      "anonymous": false,
      "inputs": [
        {
          "indexed": true,
          "internalType": "address",
          "name": "recipient",
          "type": "address"
        },
        {
          "indexed": false,
          "internalType": "address",
          "name": "destination",
          "type": "address"
        },
        {
          "indexed": false,
          "internalType": "uint256",
          "name": "amount",
          "type": "uint256"
        }
      ],
      "name": "RevertedTimelock",
      "type": "event"
    },
    {
      "anonymous": false,
      "inputs": [
        {
          "indexed": false,
          "internalType": "address",
          "name": "source",
          "type": "address"
        },
        {
          "indexed": true,
          "internalType": "address",
          "name": "recipient",
          "type": "address"
        },
        {
          "indexed": false,
          "internalType": "uint256",
          "name": "amount",
          "type": "uint256"
        },
        {
          "indexed": false,
          "internalType": "uint256",
          "name": "releaseStart",
          "type": "uint256"
        },
        {
          "indexed": false,
          "internalType": "uint256",
          "name": "releaseEnd",
          "type": "uint256"
        }
      ],
      "name": "TransferredAndLocked",
      "type": "event"
    },
    {
      "anonymous": false,
      "inputs": [
        {
          "indexed": true,
          "internalType": "address",
          "name": "recipient",
          "type": "address"
        },
        {
          "indexed": false,
          "internalType": "uint256",
          "name": "amount",
          "type": "uint256"
        }
      ],
      "name": "Withdrawn",
      "type": "event"
    },
    {
      "anonymous": false,
      "inputs": [
        {
          "indexed": true,
          "internalType": "address",
          "name": "recipient",
          "type": "address"
        },
        {
          "indexed": false,
          "internalType": "address",
          "name": "api3PoolAddress",
          "type": "address"
        },
        {
          "indexed": false,
          "internalType": "address",
          "name": "beneficiary",
          "type": "address"
        }
      ],
      "name": "WithdrawnToPool",
      "type": "event"
    },
    {
      "inputs": [],
      "name": "api3Pool",
      "outputs": [
        {
          "internalType": "contract IApi3Pool",
          "name": "",
          "type": "address"
        }
      ],
      "stateMutability": "view",
      "type": "function"
    },
    {
      "inputs": [],
      "name": "api3Token",
      "outputs": [
        {
          "internalType": "contract IApi3Token",
          "name": "",
          "type": "address"
        }
      ],
      "stateMutability": "view",
      "type": "function"
    },
    {
      "inputs": [
        {
          "internalType": "address",
          "name": "recipient",
          "type": "address"
        }
      ],
      "name": "getIfTimelockIsRevertible",
      "outputs": [
        {
          "internalType": "bool",
          "name": "revertStatus",
          "type": "bool"
        }
      ],
      "stateMutability": "view",
      "type": "function"
    },
    {
      "inputs": [
        {
          "internalType": "address",
          "name": "recipient",
          "type": "address"
        }
      ],
      "name": "getRemainingAmount",
      "outputs": [
        {
          "internalType": "uint256",
          "name": "remainingAmount",
          "type": "uint256"
        }
      ],
      "stateMutability": "view",
      "type": "function"
    },
    {
      "inputs": [
        {
          "internalType": "address",
          "name": "recipient",
          "type": "address"
        }
      ],
      "name": "getTimelock",
      "outputs": [
        {
          "internalType": "uint256",
          "name": "totalAmount",
          "type": "uint256"
        },
        {
          "internalType": "uint256",
          "name": "remainingAmount",
          "type": "uint256"
        },
        {
          "internalType": "uint256",
          "name": "releaseStart",
          "type": "uint256"
        },
        {
          "internalType": "uint256",
          "name": "releaseEnd",
          "type": "uint256"
        }
      ],
      "stateMutability": "view",
      "type": "function"
    },
    {
      "inputs": [
        {
          "internalType": "address",
          "name": "recipient",
          "type": "address"
        }
      ],
      "name": "getWithdrawable",
      "outputs": [
        {
          "internalType": "uint256",
          "name": "withdrawable",
          "type": "uint256"
        }
      ],
      "stateMutability": "view",
      "type": "function"
    },
    {
      "inputs": [],
      "name": "owner",
      "outputs": [
        {
          "internalType": "address",
          "name": "",
          "type": "address"
        }
      ],
      "stateMutability": "view",
      "type": "function"
    },
    {
      "inputs": [],
      "name": "permitTimelockToBeReverted",
      "outputs": [],
      "stateMutability": "nonpayable",
      "type": "function"
    },
    {
      "inputs": [],
      "name": "renounceOwnership",
      "outputs": [],
      "stateMutability": "nonpayable",
      "type": "function"
    },
    {
      "inputs": [
        {
          "internalType": "address",
          "name": "recipient",
          "type": "address"
        },
        {
          "internalType": "address",
          "name": "destination",
          "type": "address"
        }
      ],
      "name": "revertTimelock",
      "outputs": [],
      "stateMutability": "nonpayable",
      "type": "function"
    },
    {
      "inputs": [
        {
          "internalType": "address",
          "name": "",
          "type": "address"
        }
      ],
      "name": "timelocks",
      "outputs": [
        {
          "internalType": "uint256",
          "name": "totalAmount",
          "type": "uint256"
        },
        {
          "internalType": "uint256",
          "name": "remainingAmount",
          "type": "uint256"
        },
        {
          "internalType": "uint256",
          "name": "releaseStart",
          "type": "uint256"
        },
        {
          "internalType": "uint256",
          "name": "releaseEnd",
          "type": "uint256"
        }
      ],
      "stateMutability": "view",
      "type": "function"
    },
    {
      "inputs": [
        {
          "internalType": "address",
          "name": "source",
          "type": "address"
        },
        {
          "internalType": "address",
          "name": "recipient",
          "type": "address"
        },
        {
          "internalType": "uint256",
          "name": "amount",
          "type": "uint256"
        },
        {
          "internalType": "uint256",
          "name": "releaseStart",
          "type": "uint256"
        },
        {
          "internalType": "uint256",
          "name": "releaseEnd",
          "type": "uint256"
        }
      ],
      "name": "transferAndLock",
      "outputs": [],
      "stateMutability": "nonpayable",
      "type": "function"
    },
    {
      "inputs": [
        {
          "internalType": "address",
          "name": "source",
          "type": "address"
        },
        {
          "internalType": "address[]",
          "name": "recipients",
          "type": "address[]"
        },
        {
          "internalType": "uint256[]",
          "name": "amounts",
          "type": "uint256[]"
        },
        {
          "internalType": "uint256[]",
          "name": "releaseStarts",
          "type": "uint256[]"
        },
        {
          "internalType": "uint256[]",
          "name": "releaseEnds",
          "type": "uint256[]"
        }
      ],
      "name": "transferAndLockMultiple",
      "outputs": [],
      "stateMutability": "nonpayable",
      "type": "function"
    },
    {
      "inputs": [
        {
          "internalType": "address",
          "name": "newOwner",
          "type": "address"
        }
      ],
      "name": "transferOwnership",
      "outputs": [],
      "stateMutability": "nonpayable",
      "type": "function"
    },
    {
      "inputs": [
        {
          "internalType": "address",
          "name": "api3PoolAddress",
          "type": "address"
        }
      ],
      "name": "updateApi3Pool",
      "outputs": [],
      "stateMutability": "nonpayable",
      "type": "function"
    },
    {
      "inputs": [],
      "name": "withdraw",
      "outputs": [],
      "stateMutability": "nonpayable",
      "type": "function"
    },
    {
      "inputs": [
        {
          "internalType": "address",
          "name": "api3PoolAddress",
          "type": "address"
        },
        {
          "internalType": "address",
          "name": "beneficiary",
          "type": "address"
        }
      ],
      "name": "withdrawToPool",
      "outputs": [],
      "stateMutability": "nonpayable",
      "type": "function"
    }
  ],
  "transactionHash": "0xff51e9e79fc1e1365a72c7abda02f50d98fb07963d4fa14fefbe62d8504c6780",
  "args": [
    "0x0b38210ea11411557c13457D4dA7dC6ea731B88a",
    "0xe7af7c5982e073ac6525a34821fe1b3e8e432099"
  ],
  "solcInputHash": "0xb2bf079d1a05cc7e38490f66d48f8a000d06f8d2a612077613bf4752865227ce",
  "bytecode": "0x60a06040523480156200001157600080fd5b50604051620030f4380380620030f4833981810160405260408110156200003757600080fd5b8101908080519060200190929190805190602001909291905050506000620000646200015260201b60201c565b9050806000806101000a81548173ffffffffffffffffffffffffffffffffffffffff021916908373ffffffffffffffffffffffffffffffffffffffff1602179055508073ffffffffffffffffffffffffffffffffffffffff16600073ffffffffffffffffffffffffffffffffffffffff167f8be0079c531659141344cd1fd0a4f28419497f9722a3daafe3b4186f6b6457e060405160405180910390a3508173ffffffffffffffffffffffffffffffffffffffff1660808173ffffffffffffffffffffffffffffffffffffffff1660601b815250506200014a816200015a60201b60201c565b505062000370565b600033905090565b6200016a6200015260201b60201c565b73ffffffffffffffffffffffffffffffffffffffff1660008054906101000a900473ffffffffffffffffffffffffffffffffffffffff1673ffffffffffffffffffffffffffffffffffffffff16146200022b576040517f08c379a00000000000000000000000000000000000000000000000000000000081526004018080602001828103825260208152602001807f4f776e61626c653a2063616c6c6572206973206e6f7420746865206f776e657281525060200191505060405180910390fd5b600073ffffffffffffffffffffffffffffffffffffffff168173ffffffffffffffffffffffffffffffffffffffff161415620002b3576040517f08c379a0000000000000000000000000000000000000000000000000000000008152600401808060200182810382526026815260200180620030ce6026913960400191505060405180910390fd5b8073ffffffffffffffffffffffffffffffffffffffff1660008054906101000a900473ffffffffffffffffffffffffffffffffffffffff1673ffffffffffffffffffffffffffffffffffffffff167f8be0079c531659141344cd1fd0a4f28419497f9722a3daafe3b4186f6b6457e060405160405180910390a3806000806101000a81548173ffffffffffffffffffffffffffffffffffffffff021916908373ffffffffffffffffffffffffffffffffffffffff16021790555050565b60805160601c612d2c620003a260003980610a995280610ff852806118655280611c67528061247f5250612d2c6000f3fe608060405234801561001057600080fd5b506004361061010b5760003560e01c80636fe2a2d7116100a2578063bf1e799b11610071578063bf1e799b14610551578063cd7cea04146105be578063e1b1c21614610622578063f2fde38b1461067c578063faf7eba6146106c05761010b565b80636fe2a2d7146104d5578063715018a6146105095780638da5cb5b14610513578063aa483e7c146105475761010b565b8063355efbed116100de578063355efbed146102bb5780633ccfd60b146102ff5780635af6025314610309578063613d517d146104a15761010b565b80631369a9271461011057806324dcb3851461017d57806329765acf146101ff57806332cc6ae614610263575b600080fd5b6101526004803603602081101561012657600080fd5b81019080803573ffffffffffffffffffffffffffffffffffffffff169060200190929190505050610718565b6040518085815260200184815260200183815260200182815260200194505050505060405180910390f35b6101fd600480360360a081101561019357600080fd5b81019080803573ffffffffffffffffffffffffffffffffffffffff169060200190929190803573ffffffffffffffffffffffffffffffffffffffff169060200190929190803590602001909291908035906020019092919080359060200190929190505050610748565b005b6102616004803603604081101561021557600080fd5b81019080803573ffffffffffffffffffffffffffffffffffffffff169060200190929190803573ffffffffffffffffffffffffffffffffffffffff169060200190929190505050610c76565b005b6102a56004803603602081101561027957600080fd5b81019080803573ffffffffffffffffffffffffffffffffffffffff1690602001909291905050506113f8565b6040518082815260200191505060405180910390f35b6102fd600480360360208110156102d157600080fd5b81019080803573ffffffffffffffffffffffffffffffffffffffff169060200190929190505050611485565b005b6103076116a2565b005b61049f600480360360a081101561031f57600080fd5b81019080803573ffffffffffffffffffffffffffffffffffffffff1690602001909291908035906020019064010000000081111561035c57600080fd5b82018360208201111561036e57600080fd5b8035906020019184602083028401116401000000008311171561039057600080fd5b9091929391929390803590602001906401000000008111156103b157600080fd5b8201836020820111156103c357600080fd5b803590602001918460208302840111640100000000831117156103e557600080fd5b90919293919293908035906020019064010000000081111561040657600080fd5b82018360208201111561041857600080fd5b8035906020019184602083028401116401000000008311171561043a57600080fd5b90919293919293908035906020019064010000000081111561045b57600080fd5b82018360208201111561046d57600080fd5b8035906020019184602083028401116401000000008311171561048f57600080fd5b90919293919293905050506119f4565b005b6104a9611c65565b604051808273ffffffffffffffffffffffffffffffffffffffff16815260200191505060405180910390f35b6104dd611c89565b604051808273ffffffffffffffffffffffffffffffffffffffff16815260200191505060405180910390f35b610511611caf565b005b61051b611e35565b604051808273ffffffffffffffffffffffffffffffffffffffff16815260200191505060405180910390f35b61054f611e5e565b005b6105936004803603602081101561056757600080fd5b81019080803573ffffffffffffffffffffffffffffffffffffffff169060200190929190505050612062565b6040518085815260200184815260200183815260200182815260200194505050505060405180910390f35b610620600480360360408110156105d457600080fd5b81019080803573ffffffffffffffffffffffffffffffffffffffff169060200190929190803573ffffffffffffffffffffffffffffffffffffffff1690602001909291905050506120cf565b005b6106646004803603602081101561063857600080fd5b81019080803573ffffffffffffffffffffffffffffffffffffffff16906020019092919050505061262d565b60405180821515815260200191505060405180910390f35b6106be6004803603602081101561069257600080fd5b81019080803573ffffffffffffffffffffffffffffffffffffffff169060200190929190505050612683565b005b610702600480360360208110156106d657600080fd5b81019080803573ffffffffffffffffffffffffffffffffffffffff16906020019092919050505061288e565b6040518082815260200191505060405180910390f35b60036020528060005260406000206000915090508060000154908060010154908060020154908060030154905084565b6107506128da565b73ffffffffffffffffffffffffffffffffffffffff1660008054906101000a900473ffffffffffffffffffffffffffffffffffffffff1673ffffffffffffffffffffffffffffffffffffffff1614610810576040517f08c379a00000000000000000000000000000000000000000000000000000000081526004018080602001828103825260208152602001807f4f776e61626c653a2063616c6c6572206973206e6f7420746865206f776e657281525060200191505060405180910390fd5b6000600360008673ffffffffffffffffffffffffffffffffffffffff1673ffffffffffffffffffffffffffffffffffffffff16815260200190815260200160002060010154146108c8576040517f08c379a000000000000000000000000000000000000000000000000000000000815260040180806020018281038252601e8152602001807f526563697069656e74206861732072656d61696e696e6720746f6b656e73000081525060200191505060405180910390fd5b600083141561093f576040517f08c379a00000000000000000000000000000000000000000000000000000000081526004018080602001828103825260128152602001807f416d6f756e742063616e6e6f742062652030000000000000000000000000000081525060200191505060405180910390fd5b818111610997576040517f08c379a0000000000000000000000000000000000000000000000000000000008152600401808060200182810382526027815260200180612caf6027913960400191505060405180910390fd5b428211610a0c576040517f08c379a000000000000000000000000000000000000000000000000000000000815260040180806020018281038252601e8152602001807f72656c656173655374617274206e6f7420696e2074686520667574757265000081525060200191505060405180910390fd5b604051806080016040528084815260200184815260200183815260200182815250600360008673ffffffffffffffffffffffffffffffffffffffff1673ffffffffffffffffffffffffffffffffffffffff168152602001908152602001600020600082015181600001556020820151816001015560408201518160020155606082015181600301559050507f000000000000000000000000000000000000000000000000000000000000000073ffffffffffffffffffffffffffffffffffffffff166323b872dd8630866040518463ffffffff1660e01b8152600401808473ffffffffffffffffffffffffffffffffffffffff1681526020018373ffffffffffffffffffffffffffffffffffffffff1681526020018281526020019350505050602060405180830381600087803b158015610b4657600080fd5b505af1158015610b5a573d6000803e3d6000fd5b505050506040513d6020811015610b7057600080fd5b8101908080519060200190929190505050610bf3576040517f08c379a000000000000000000000000000000000000000000000000000000000815260040180806020018281038252601e8152602001807f4150493320746f6b656e207472616e7366657246726f6d206661696c6564000081525060200191505060405180910390fd5b8373ffffffffffffffffffffffffffffffffffffffff167fd1f652d80d5c06196c1cc9329a51edb16e16aa626e4a7715de03fb8a98547ef686858585604051808573ffffffffffffffffffffffffffffffffffffffff16815260200184815260200183815260200182815260200194505050505060405180910390a25050505050565b336000600360008373ffffffffffffffffffffffffffffffffffffffff1673ffffffffffffffffffffffffffffffffffffffff168152602001908152602001600020600101541415610d13576040517f08c379a0000000000000000000000000000000000000000000000000000000008152600401808060200182810382526028815260200180612c876028913960400191505060405180910390fd5b600073ffffffffffffffffffffffffffffffffffffffff168273ffffffffffffffffffffffffffffffffffffffff161415610db6576040517f08c379a00000000000000000000000000000000000000000000000000000000081526004018080602001828103825260178152602001807f62656e65666963696172792063616e6e6f74206265203000000000000000000081525060200191505060405180910390fd5b600073ffffffffffffffffffffffffffffffffffffffff16600260009054906101000a900473ffffffffffffffffffffffffffffffffffffffff1673ffffffffffffffffffffffffffffffffffffffff161415610e7b576040517f08c379a00000000000000000000000000000000000000000000000000000000081526004018080602001828103825260158152602001807f4150493320706f6f6c206e6f742073657420796574000000000000000000000081525060200191505060405180910390fd5b8273ffffffffffffffffffffffffffffffffffffffff16600260009054906101000a900473ffffffffffffffffffffffffffffffffffffffff1673ffffffffffffffffffffffffffffffffffffffff1614610f3e576040517f08c379a00000000000000000000000000000000000000000000000000000000081526004018080602001828103825260208152602001807f4150493320706f6f6c2061646472657373657320646f206e6f74206d6174636881525060200191505060405180910390fd5b60003390506000610f4e826113f8565b90506000600360008473ffffffffffffffffffffffffffffffffffffffff1673ffffffffffffffffffffffffffffffffffffffff1681526020019081526020016000206001015490506000610fac83836128e290919063ffffffff16565b90506000600360008673ffffffffffffffffffffffffffffffffffffffff1673ffffffffffffffffffffffffffffffffffffffff168152602001908152602001600020600101819055507f000000000000000000000000000000000000000000000000000000000000000073ffffffffffffffffffffffffffffffffffffffff1663095ea7b3600260009054906101000a900473ffffffffffffffffffffffffffffffffffffffff16846040518363ffffffff1660e01b8152600401808373ffffffffffffffffffffffffffffffffffffffff16815260200182815260200192505050602060405180830381600087803b1580156110a957600080fd5b505af11580156110bd573d6000803e3d6000fd5b505050506040513d60208110156110d357600080fd5b810190808051906020019092919050505050600083146111b757600260009054906101000a900473ffffffffffffffffffffffffffffffffffffffff1673ffffffffffffffffffffffffffffffffffffffff1663f45346dc3085896040518463ffffffff1660e01b8152600401808473ffffffffffffffffffffffffffffffffffffffff1681526020018381526020018273ffffffffffffffffffffffffffffffffffffffff1681526020019350505050600060405180830381600087803b15801561119e57600080fd5b505af11580156111b2573d6000803e3d6000fd5b505050505b6000811461136d57600260009054906101000a900473ffffffffffffffffffffffffffffffffffffffff1673ffffffffffffffffffffffffffffffffffffffff166356d4a7fe308389600360008a73ffffffffffffffffffffffffffffffffffffffff1673ffffffffffffffffffffffffffffffffffffffff16815260200190815260200160002060020154421161129157600360008a73ffffffffffffffffffffffffffffffffffffffff1673ffffffffffffffffffffffffffffffffffffffff16815260200190815260200160002060020154611293565b425b600360008b73ffffffffffffffffffffffffffffffffffffffff1673ffffffffffffffffffffffffffffffffffffffff168152602001908152602001600020600301546040518663ffffffff1660e01b8152600401808673ffffffffffffffffffffffffffffffffffffffff1681526020018581526020018473ffffffffffffffffffffffffffffffffffffffff16815260200183815260200182815260200195505050505050600060405180830381600087803b15801561135457600080fd5b505af1158015611368573d6000803e3d6000fd5b505050505b8373ffffffffffffffffffffffffffffffffffffffff167fa2fd4f03989448c5a69bab0c0454f2baf5667413a4e4b87fd7379a8ab69fae3f8888604051808373ffffffffffffffffffffffffffffffffffffffff1681526020018273ffffffffffffffffffffffffffffffffffffffff1681526020019250505060405180910390a250505050505050565b600080600360008473ffffffffffffffffffffffffffffffffffffffff1673ffffffffffffffffffffffffffffffffffffffff168152602001908152602001600020905060006114478461292c565b90506000611466836001015484600001546128e290919063ffffffff16565b905061147b81836128e290919063ffffffff16565b9350505050919050565b61148d6128da565b73ffffffffffffffffffffffffffffffffffffffff1660008054906101000a900473ffffffffffffffffffffffffffffffffffffffff1673ffffffffffffffffffffffffffffffffffffffff161461154d576040517f08c379a00000000000000000000000000000000000000000000000000000000081526004018080602001828103825260208152602001807f4f776e61626c653a2063616c6c6572206973206e6f7420746865206f776e657281525060200191505060405180910390fd5b8073ffffffffffffffffffffffffffffffffffffffff16600260009054906101000a900473ffffffffffffffffffffffffffffffffffffffff1673ffffffffffffffffffffffffffffffffffffffff161415611611576040517f08c379a000000000000000000000000000000000000000000000000000000000815260040180806020018281038252601b8152602001807f496e7075742077696c6c206e6f7420757064617465207374617465000000000081525060200191505060405180910390fd5b80600260006101000a81548173ffffffffffffffffffffffffffffffffffffffff021916908373ffffffffffffffffffffffffffffffffffffffff1602179055507f9758fe2c5611eaaf02f90cf70038ecb1e23f3d218aed0b239a67c393d142767581604051808273ffffffffffffffffffffffffffffffffffffffff16815260200191505060405180910390a150565b336000600360008373ffffffffffffffffffffffffffffffffffffffff1673ffffffffffffffffffffffffffffffffffffffff16815260200190815260200160002060010154141561173f576040517f08c379a0000000000000000000000000000000000000000000000000000000008152600401808060200182810382526028815260200180612c876028913960400191505060405180910390fd5b6000339050600061174f826113f8565b905060008114156117c8576040517f08c379a000000000000000000000000000000000000000000000000000000000815260040180806020018281038252601a8152602001807f4e6f20776974686472617761626c6520746f6b656e732079657400000000000081525060200191505060405180910390fd5b61181d81600360008573ffffffffffffffffffffffffffffffffffffffff1673ffffffffffffffffffffffffffffffffffffffff168152602001908152602001600020600101546128e290919063ffffffff16565b600360008473ffffffffffffffffffffffffffffffffffffffff1673ffffffffffffffffffffffffffffffffffffffff168152602001908152602001600020600101819055507f000000000000000000000000000000000000000000000000000000000000000073ffffffffffffffffffffffffffffffffffffffff1663a9059cbb83836040518363ffffffff1660e01b8152600401808373ffffffffffffffffffffffffffffffffffffffff16815260200182815260200192505050602060405180830381600087803b1580156118f457600080fd5b505af1158015611908573d6000803e3d6000fd5b505050506040513d602081101561191e57600080fd5b81019080805190602001909291905050506119a1576040517f08c379a000000000000000000000000000000000000000000000000000000000815260040180806020018281038252601a8152602001807f4150493320746f6b656e207472616e73666572206661696c656400000000000081525060200191505060405180910390fd5b8173ffffffffffffffffffffffffffffffffffffffff167f7084f5476618d8e60b11ef0d7d3f06914655adb8793e28ff7f018d4c76d505d5826040518082815260200191505060405180910390a2505050565b6119fc6128da565b73ffffffffffffffffffffffffffffffffffffffff1660008054906101000a900473ffffffffffffffffffffffffffffffffffffffff1673ffffffffffffffffffffffffffffffffffffffff1614611abc576040517f08c379a00000000000000000000000000000000000000000000000000000000081526004018080602001828103825260208152602001807f4f776e61626c653a2063616c6c6572206973206e6f7420746865206f776e657281525060200191505060405180910390fd5b8585905088889050148015611ad657508383905088889050145b8015611ae757508181905088889050145b611b59576040517f08c379a00000000000000000000000000000000000000000000000000000000081526004018080602001828103825260208152602001807f506172616d657465727320617265206f6620756e657175616c206c656e67746881525060200191505060405180910390fd5b601e888890501115611bd3576040517f08c379a000000000000000000000000000000000000000000000000000000000815260040180806020018281038252601d8152602001807f506172616d657465727320617265206c6f6e676572207468616e20333000000081525060200191505060405180910390fd5b60005b88889050811015611c5957611c4c8a8a8a84818110611bf157fe5b9050602002013573ffffffffffffffffffffffffffffffffffffffff16898985818110611c1a57fe5b90506020020135888886818110611c2d57fe5b90506020020135878787818110611c4057fe5b90506020020135610748565b8080600101915050611bd6565b50505050505050505050565b7f000000000000000000000000000000000000000000000000000000000000000081565b600260009054906101000a900473ffffffffffffffffffffffffffffffffffffffff1681565b611cb76128da565b73ffffffffffffffffffffffffffffffffffffffff1660008054906101000a900473ffffffffffffffffffffffffffffffffffffffff1673ffffffffffffffffffffffffffffffffffffffff1614611d77576040517f08c379a00000000000000000000000000000000000000000000000000000000081526004018080602001828103825260208152602001807f4f776e61626c653a2063616c6c6572206973206e6f7420746865206f776e657281525060200191505060405180910390fd5b600073ffffffffffffffffffffffffffffffffffffffff1660008054906101000a900473ffffffffffffffffffffffffffffffffffffffff1673ffffffffffffffffffffffffffffffffffffffff167f8be0079c531659141344cd1fd0a4f28419497f9722a3daafe3b4186f6b6457e060405160405180910390a360008060006101000a81548173ffffffffffffffffffffffffffffffffffffffff021916908373ffffffffffffffffffffffffffffffffffffffff160217905550565b60008060009054906101000a900473ffffffffffffffffffffffffffffffffffffffff16905090565b336000600360008373ffffffffffffffffffffffffffffffffffffffff1673ffffffffffffffffffffffffffffffffffffffff168152602001908152602001600020600101541415611efb576040517f08c379a0000000000000000000000000000000000000000000000000000000008152600401808060200182810382526028815260200180612c876028913960400191505060405180910390fd5b600160003373ffffffffffffffffffffffffffffffffffffffff1673ffffffffffffffffffffffffffffffffffffffff16815260200190815260200160002060009054906101000a900460ff1615611fbb576040517f08c379a000000000000000000000000000000000000000000000000000000000815260040180806020018281038252601b8152602001807f496e7075742077696c6c206e6f7420757064617465207374617465000000000081525060200191505060405180910390fd5b60018060003373ffffffffffffffffffffffffffffffffffffffff1673ffffffffffffffffffffffffffffffffffffffff16815260200190815260200160002060006101000a81548160ff0219169083151502179055507f865c01aec16d8b95381881920a512ac95cc026764ba224093ad00b5824136d0b33604051808273ffffffffffffffffffffffffffffffffffffffff16815260200191505060405180910390a150565b6000806000806000600360008773ffffffffffffffffffffffffffffffffffffffff1673ffffffffffffffffffffffffffffffffffffffff168152602001908152602001600020905080600001549450806001015493508060020154925080600301549150509193509193565b6120d76128da565b73ffffffffffffffffffffffffffffffffffffffff1660008054906101000a900473ffffffffffffffffffffffffffffffffffffffff1673ffffffffffffffffffffffffffffffffffffffff1614612197576040517f08c379a00000000000000000000000000000000000000000000000000000000081526004018080602001828103825260208152602001807f4f776e61626c653a2063616c6c6572206973206e6f7420746865206f776e657281525060200191505060405180910390fd5b816000600360008373ffffffffffffffffffffffffffffffffffffffff1673ffffffffffffffffffffffffffffffffffffffff168152602001908152602001600020600101541415612234576040517f08c379a0000000000000000000000000000000000000000000000000000000008152600401808060200182810382526028815260200180612c876028913960400191505060405180910390fd5b600073ffffffffffffffffffffffffffffffffffffffff168273ffffffffffffffffffffffffffffffffffffffff1614156122d7576040517f08c379a00000000000000000000000000000000000000000000000000000000081526004018080602001828103825260138152602001807f496e76616c69642064657374696e6174696f6e0000000000000000000000000081525060200191505060405180910390fd5b600160008473ffffffffffffffffffffffffffffffffffffffff1673ffffffffffffffffffffffffffffffffffffffff16815260200190815260200160002060009054906101000a900460ff16612396576040517f08c379a00000000000000000000000000000000000000000000000000000000081526004018080602001828103825260208152602001807f4e6f74207065726d697474656420746f207265766572742074696d656c6f636b81525060200191505060405180910390fd5b6000600160008573ffffffffffffffffffffffffffffffffffffffff1673ffffffffffffffffffffffffffffffffffffffff16815260200190815260200160002060006101000a81548160ff0219169083151502179055506000600360008573ffffffffffffffffffffffffffffffffffffffff1673ffffffffffffffffffffffffffffffffffffffff1681526020019081526020016000206001015490506000600360008673ffffffffffffffffffffffffffffffffffffffff1673ffffffffffffffffffffffffffffffffffffffff168152602001908152602001600020600101819055507f000000000000000000000000000000000000000000000000000000000000000073ffffffffffffffffffffffffffffffffffffffff1663a9059cbb84836040518363ffffffff1660e01b8152600401808373ffffffffffffffffffffffffffffffffffffffff16815260200182815260200192505050602060405180830381600087803b15801561250e57600080fd5b505af1158015612522573d6000803e3d6000fd5b505050506040513d602081101561253857600080fd5b81019080805190602001909291905050506125bb576040517f08c379a000000000000000000000000000000000000000000000000000000000815260040180806020018281038252601a8152602001807f4150493320746f6b656e207472616e73666572206661696c656400000000000081525060200191505060405180910390fd5b8373ffffffffffffffffffffffffffffffffffffffff167f57da8465c206f4c67271e5b44533d488e9305cc666290a0b4d56df0e71750c028483604051808373ffffffffffffffffffffffffffffffffffffffff1681526020018281526020019250505060405180910390a250505050565b6000600160008373ffffffffffffffffffffffffffffffffffffffff1673ffffffffffffffffffffffffffffffffffffffff16815260200190815260200160002060009054906101000a900460ff169050919050565b61268b6128da565b73ffffffffffffffffffffffffffffffffffffffff1660008054906101000a900473ffffffffffffffffffffffffffffffffffffffff1673ffffffffffffffffffffffffffffffffffffffff161461274b576040517f08c379a00000000000000000000000000000000000000000000000000000000081526004018080602001828103825260208152602001807f4f776e61626c653a2063616c6c6572206973206e6f7420746865206f776e657281525060200191505060405180910390fd5b600073ffffffffffffffffffffffffffffffffffffffff168173ffffffffffffffffffffffffffffffffffffffff1614156127d1576040517f08c379a0000000000000000000000000000000000000000000000000000000008152600401808060200182810382526026815260200180612c616026913960400191505060405180910390fd5b8073ffffffffffffffffffffffffffffffffffffffff1660008054906101000a900473ffffffffffffffffffffffffffffffffffffffff1673ffffffffffffffffffffffffffffffffffffffff167f8be0079c531659141344cd1fd0a4f28419497f9722a3daafe3b4186f6b6457e060405160405180910390a3806000806101000a81548173ffffffffffffffffffffffffffffffffffffffff021916908373ffffffffffffffffffffffffffffffffffffffff16021790555050565b6000600360008373ffffffffffffffffffffffffffffffffffffffff1673ffffffffffffffffffffffffffffffffffffffff168152602001908152602001600020600101549050919050565b600033905090565b600061292483836040518060400160405280601e81526020017f536166654d6174683a207375627472616374696f6e206f766572666c6f770000815250612a0a565b905092915050565b600080600360008473ffffffffffffffffffffffffffffffffffffffff1673ffffffffffffffffffffffffffffffffffffffff1681526020019081526020016000209050806002015442116129845760009150612a04565b8060030154421061299b5780600001549150612a03565b60006129b48260020154426128e290919063ffffffff16565b905060006129d3836002015484600301546128e290919063ffffffff16565b90506129fe816129f0848660000154612aca90919063ffffffff16565b612b5090919063ffffffff16565b935050505b5b50919050565b6000838311158290612ab7576040517f08c379a00000000000000000000000000000000000000000000000000000000081526004018080602001828103825283818151815260200191508051906020019080838360005b83811015612a7c578082015181840152602081019050612a61565b50505050905090810190601f168015612aa95780820380516001836020036101000a031916815260200191505b509250505060405180910390fd5b5060008385039050809150509392505050565b600080831415612add5760009050612b4a565b6000828402905082848281612aee57fe5b0414612b45576040517f08c379a0000000000000000000000000000000000000000000000000000000008152600401808060200182810382526021815260200180612cd66021913960400191505060405180910390fd5b809150505b92915050565b6000612b9283836040518060400160405280601a81526020017f536166654d6174683a206469766973696f6e206279207a65726f000000000000815250612b9a565b905092915050565b60008083118290612c46576040517f08c379a00000000000000000000000000000000000000000000000000000000081526004018080602001828103825283818151815260200191508051906020019080838360005b83811015612c0b578082015181840152602081019050612bf0565b50505050905090810190601f168015612c385780820380516001836020036101000a031916815260200191505b509250505060405180910390fd5b506000838581612c5257fe5b04905080915050939250505056fe4f776e61626c653a206e6577206f776e657220697320746865207a65726f2061646472657373526563697069656e7420646f6573206e6f7420686176652072656d61696e696e6720746f6b656e7372656c65617365456e64206e6f74206c6172676572207468616e2072656c656173655374617274536166654d6174683a206d756c7469706c69636174696f6e206f766572666c6f77a26469706673582212203a614fc555c43a31cbccbf1637c9819b3b9e0c046763a63e177c993617c2e54b64736f6c634300060c00334f776e61626c653a206e6577206f776e657220697320746865207a65726f2061646472657373",
  "devdoc": {
    "kind": "dev",
    "methods": {
      "constructor": {
        "details": "api3Pool is not initialized in the constructor because this contract will be deployed before api3Pool",
        "params": {
          "api3TokenAddress": "Address of the API3 token contract",
          "timelockManagerOwner": "Address that will receive the ownership of the TimelockManager contract (i.e., the API3 DAO)"
        }
      },
      "getIfTimelockIsRevertible(address)": {
        "params": {
          "recipient": "Recipient of tokens"
        },
        "returns": {
          "revertStatus": "If the recipient's timelock is revertible"
        }
      },
      "getRemainingAmount(address)": {
        "details": "Provided separately to be used with Etherscan's \"Read\" functionality, in case getTimelock() output is too complicated for the user.",
        "params": {
          "recipient": "Recipient of tokens"
        },
        "returns": {
          "remainingAmount": "Remaining amount of tokens to be withdrawn"
        }
      },
      "getTimelock(address)": {
        "params": {
          "recipient": "Recipient of tokens"
        },
        "returns": {
          "releaseEnd": "Release end time",
          "releaseStart": "Release start time",
          "remainingAmount": "Remaining amount of tokens to be withdrawn",
          "totalAmount": "Total amount of tokens"
        }
      },
      "getWithdrawable(address)": {
        "params": {
          "recipient": "Address of the recipient"
        },
        "returns": {
          "withdrawable": "Amount of tokens withdrawable by the recipient"
        }
      },
      "owner()": {
        "details": "Returns the address of the current owner."
      },
      "permitTimelockToBeReverted()": {
        "details": "To be used when the timelock has been created with incorrect parameters (for example with releaseEnd at infinity)"
      },
      "renounceOwnership()": {
        "details": "Leaves the contract without owner. It will not be possible to call `onlyOwner` functions anymore. Can only be called by the current owner. NOTE: Renouncing ownership will leave the contract without an owner, thereby removing any functionality that is only available to the owner."
      },
      "revertTimelock(address,address)": {
        "params": {
          "destination": "Destination of the tokens locked by the reverted timelock",
          "recipient": "Original recipient of tokens"
        }
      },
      "transferAndLock(address,address,uint256,uint256,uint256)": {
        "details": "source needs to approve() this contract to transfer amount number of tokens beforehand. A recipient cannot have multiple timelocks.",
        "params": {
          "amount": "Amount of tokens",
          "recipient": "Recipient of tokens",
          "releaseEnd": "End of release time",
          "releaseStart": "Start of release time",
          "source": "Source of tokens"
        }
      },
      "transferAndLockMultiple(address,address[],uint256[],uint256[],uint256[])": {
        "details": "source is expected to be a single address, i.e., the API3 DAO. source needs to approve() this contract to transfer the sum of the amounts of tokens to be transferred and locked.",
        "params": {
          "amounts": "Array of amounts of tokens",
          "recipients": "Array of recipients of tokens",
          "releaseEnds": "Array of ends of release times",
          "releaseStarts": "Array of starts of release times",
          "source": "Source of tokens"
        }
      },
      "transferOwnership(address)": {
        "details": "Transfers ownership of the contract to a new account (`newOwner`). Can only be called by the current owner."
      },
      "updateApi3Pool(address)": {
        "params": {
          "api3PoolAddress": "Address of the API3 pool contract"
        }
      },
      "withdrawToPool(address,address)": {
        "details": "We ask the recipient to provide api3PoolAddress as a form of validation, i.e., the recipient confirms that the API3 pool address set at this contract is correct",
        "params": {
          "api3PoolAddress": "Address of the API3 pool contract",
          "beneficiary": "Address that the tokens will be deposited to the pool contract on behalf of"
        }
      }
    },
    "stateVariables": {
      "permittedTimelockToBeReverted": {
        "details": "If an address has permitted the owner of this contract (i.e., the API3 DAO) to revert (i.e., cancel and withdraw the tokens) their timelock"
      }
    },
    "title": "Contract that the API3 DAO uses to timelock API3 tokens",
    "version": 1
  },
  "userdoc": {
    "kind": "user",
    "methods": {
      "getIfTimelockIsRevertible(address)": {
        "notice": "Returns if the recipient's timelock is revertible"
      },
      "getRemainingAmount(address)": {
        "notice": "Returns remaining amount of a timelock"
      },
      "getTimelock(address)": {
        "notice": "Returns the details of a timelock"
      },
      "getWithdrawable(address)": {
        "notice": "Returns the amount of tokens a recipient can currently withdraw"
      },
      "permitTimelockToBeReverted()": {
        "notice": "Permit the owner (i.e., API3 DAO) to revert the caller's timelock"
      },
      "revertTimelock(address,address)": {
        "notice": "Called by the owner (i.e., API3 DAO) to revert the timelock of a recipient, given that they have given permission beforehand"
      },
      "transferAndLock(address,address,uint256,uint256,uint256)": {
        "notice": "Transfers API3 tokens to this contract and timelocks them"
      },
      "transferAndLockMultiple(address,address[],uint256[],uint256[],uint256[])": {
        "notice": "Convenience function that calls transferAndLock() multiple times"
      },
      "updateApi3Pool(address)": {
        "notice": "Called by the owner (i.e., API3 DAO) to set the address of api3Pool, which token recipients can transfer their tokens to"
      },
      "withdraw()": {
        "notice": "Used by the recipient to withdraw tokens"
      },
      "withdrawToPool(address,address)": {
        "notice": "Used by the recipient to withdraw their tokens to the API3 pool"
      }
    },
    "notice": "The owner of TimelockManager (i.e., API3 DAO) can send tokens to TimelockManager to timelock them. These tokens will then be vested to their recipient linearly, starting from releaseStart and ending at releaseEnd of the respective timelock. Alternatively, if the owner of TimelockManager (i.e., API3 DAO) sets the api3Pool address, the token recipients can transfer their locked tokens from TimelockManager to api3Pool. These tokens will remain timelocked (i.e., will not be withdrawable) at api3Pool until they are vested according to their respective schedule.",
    "version": 1
  },
  "storageLayout": {
    "storage": [
      {
        "astId": 588,
        "contract": "contracts/TimelockManager.sol:TimelockManager",
        "label": "_owner",
        "offset": 0,
        "slot": "0",
        "type": "t_address"
      },
      {
        "astId": 983,
        "contract": "contracts/TimelockManager.sol:TimelockManager",
        "label": "permittedTimelockToBeReverted",
        "offset": 0,
        "slot": "1",
        "type": "t_mapping(t_address,t_bool)"
      },
      {
        "astId": 996,
        "contract": "contracts/TimelockManager.sol:TimelockManager",
        "label": "api3Pool",
        "offset": 0,
        "slot": "2",
        "type": "t_contract(IApi3Pool)5"
      },
      {
        "astId": 1000,
        "contract": "contracts/TimelockManager.sol:TimelockManager",
        "label": "timelocks",
        "offset": 0,
        "slot": "3",
        "type": "t_mapping(t_address,t_struct(Timelock)992_storage)"
      }
    ],
    "types": {
      "t_address": {
        "encoding": "inplace",
        "label": "address",
        "numberOfBytes": "20"
      },
      "t_bool": {
        "encoding": "inplace",
        "label": "bool",
        "numberOfBytes": "1"
      },
      "t_contract(IApi3Pool)5": {
        "encoding": "inplace",
        "label": "contract IApi3Pool",
        "numberOfBytes": "20"
      },
      "t_mapping(t_address,t_bool)": {
        "encoding": "mapping",
        "key": "t_address",
        "label": "mapping(address => bool)",
        "numberOfBytes": "32",
        "value": "t_bool"
      },
      "t_mapping(t_address,t_struct(Timelock)992_storage)": {
        "encoding": "mapping",
        "key": "t_address",
        "label": "mapping(address => struct TimelockManager.Timelock)",
        "numberOfBytes": "32",
        "value": "t_struct(Timelock)992_storage"
      },
      "t_struct(Timelock)992_storage": {
        "encoding": "inplace",
        "label": "struct TimelockManager.Timelock",
        "members": [
          {
            "astId": 985,
            "contract": "contracts/TimelockManager.sol:TimelockManager",
            "label": "totalAmount",
            "offset": 0,
            "slot": "0",
            "type": "t_uint256"
          },
          {
            "astId": 987,
            "contract": "contracts/TimelockManager.sol:TimelockManager",
            "label": "remainingAmount",
            "offset": 0,
            "slot": "1",
            "type": "t_uint256"
          },
          {
            "astId": 989,
            "contract": "contracts/TimelockManager.sol:TimelockManager",
            "label": "releaseStart",
            "offset": 0,
            "slot": "2",
            "type": "t_uint256"
          },
          {
            "astId": 991,
            "contract": "contracts/TimelockManager.sol:TimelockManager",
            "label": "releaseEnd",
            "offset": 0,
            "slot": "3",
            "type": "t_uint256"
          }
        ],
        "numberOfBytes": "128"
      },
      "t_uint256": {
        "encoding": "inplace",
        "label": "uint256",
        "numberOfBytes": "32"
      }
    }
  },
  "gasEstimates": {
    "creation": {
      "codeDepositCost": "2312800",
      "executionCost": "infinite",
      "totalCost": "infinite"
    },
    "external": {
      "api3Pool()": "1070",
      "api3Token()": "infinite",
      "getIfTimelockIsRevertible(address)": "1304",
      "getRemainingAmount(address)": "1312",
      "getTimelock(address)": "3754",
      "getWithdrawable(address)": "infinite",
      "owner()": "1122",
      "permitTimelockToBeReverted()": "infinite",
      "renounceOwnership()": "24336",
      "revertTimelock(address,address)": "infinite",
      "timelocks(address)": "3703",
      "transferAndLock(address,address,uint256,uint256,uint256)": "infinite",
      "transferAndLockMultiple(address,address[],uint256[],uint256[],uint256[])": "infinite",
      "transferOwnership(address)": "infinite",
      "updateApi3Pool(address)": "23973",
      "withdraw()": "infinite",
      "withdrawToPool(address,address)": "infinite"
    },
    "internal": {
      "getUnlocked(address)": "infinite"
    }
  }
}