{
  "address": "0x8878C14cFC1233db8AeDc09d497b7fb95ba96fD4",
  "abi": [
    {
      "inputs": [
        {
          "internalType": "address",
          "name": "contractOwner",
          "type": "address"
        },
        {
          "internalType": "address",
          "name": "mintingDestination",
          "type": "address"
        }
      ],
      "stateMutability": "nonpayable",
      "type": "constructor"
    },
    {
      "anonymous": false,
      "inputs": [
        {
          "indexed": true,
          "internalType": "address",
          "name": "owner",
          "type": "address"
        },
        {
          "indexed": true,
          "internalType": "address",
          "name": "spender",
          "type": "address"
        },
        {
          "indexed": false,
          "internalType": "uint256",
          "name": "value",
          "type": "uint256"
        }
      ],
      "name": "Approval",
      "type": "event"
    },
    {
      "anonymous": false,
      "inputs": [
        {
          "indexed": true,
          "internalType": "address",
          "name": "minterAddress",
          "type": "address"
        },
        {
          "indexed": false,
          "internalType": "bool",
          "name": "minterStatus",
          "type": "bool"
        }
      ],
      "name": "MinterStatusUpdated",
      "type": "event"
    },
    {
      "anonymous": false,
      "inputs": [
        {
          "indexed": true,
          "internalType": "address",
          "name": "previousOwner",
          "type": "address"
        },
        {
          "indexed": true,
          "internalType": "address",
          "name": "newOwner",
          "type": "address"
        }
      ],
      "name": "OwnershipTransferred",
      "type": "event"
    },
    {
      "anonymous": false,
      "inputs": [
        {
          "indexed": true,
          "internalType": "address",
          "name": "from",
          "type": "address"
        },
        {
          "indexed": true,
          "internalType": "address",
          "name": "to",
          "type": "address"
        },
        {
          "indexed": false,
          "internalType": "uint256",
          "name": "value",
          "type": "uint256"
        }
      ],
      "name": "Transfer",
      "type": "event"
    },
    {
      "inputs": [
        {
          "internalType": "address",
          "name": "owner",
          "type": "address"
        },
        {
          "internalType": "address",
          "name": "spender",
          "type": "address"
        }
      ],
      "name": "allowance",
      "outputs": [
        {
          "internalType": "uint256",
          "name": "",
          "type": "uint256"
        }
      ],
      "stateMutability": "view",
      "type": "function"
    },
    {
      "inputs": [
        {
          "internalType": "address",
          "name": "spender",
          "type": "address"
        },
        {
          "internalType": "uint256",
          "name": "amount",
          "type": "uint256"
        }
      ],
      "name": "approve",
      "outputs": [
        {
          "internalType": "bool",
          "name": "",
          "type": "bool"
        }
      ],
      "stateMutability": "nonpayable",
      "type": "function"
    },
    {
      "inputs": [
        {
          "internalType": "address",
          "name": "account",
          "type": "address"
        }
      ],
      "name": "balanceOf",
      "outputs": [
        {
          "internalType": "uint256",
          "name": "",
          "type": "uint256"
        }
      ],
      "stateMutability": "view",
      "type": "function"
    },
    {
      "inputs": [
        {
          "internalType": "uint256",
          "name": "amount",
          "type": "uint256"
        }
      ],
      "name": "burn",
      "outputs": [],
      "stateMutability": "nonpayable",
      "type": "function"
    },
    {
      "inputs": [],
      "name": "decimals",
      "outputs": [
        {
          "internalType": "uint8",
          "name": "",
          "type": "uint8"
        }
      ],
      "stateMutability": "view",
      "type": "function"
    },
    {
      "inputs": [
        {
          "internalType": "address",
          "name": "spender",
          "type": "address"
        },
        {
          "internalType": "uint256",
          "name": "subtractedValue",
          "type": "uint256"
        }
      ],
      "name": "decreaseAllowance",
      "outputs": [
        {
          "internalType": "bool",
          "name": "",
          "type": "bool"
        }
      ],
      "stateMutability": "nonpayable",
      "type": "function"
    },
    {
      "inputs": [
        {
          "internalType": "address",
          "name": "minterAddress",
          "type": "address"
        }
      ],
      "name": "getMinterStatus",
      "outputs": [
        {
          "internalType": "bool",
          "name": "minterStatus",
          "type": "bool"
        }
      ],
      "stateMutability": "view",
      "type": "function"
    },
    {
      "inputs": [
        {
          "internalType": "address",
          "name": "spender",
          "type": "address"
        },
        {
          "internalType": "uint256",
          "name": "addedValue",
          "type": "uint256"
        }
      ],
      "name": "increaseAllowance",
      "outputs": [
        {
          "internalType": "bool",
          "name": "",
          "type": "bool"
        }
      ],
      "stateMutability": "nonpayable",
      "type": "function"
    },
    {
      "inputs": [
        {
          "internalType": "address",
          "name": "account",
          "type": "address"
        },
        {
          "internalType": "uint256",
          "name": "amount",
          "type": "uint256"
        }
      ],
      "name": "mint",
      "outputs": [],
      "stateMutability": "nonpayable",
      "type": "function"
    },
    {
      "inputs": [],
      "name": "name",
      "outputs": [
        {
          "internalType": "string",
          "name": "",
          "type": "string"
        }
      ],
      "stateMutability": "view",
      "type": "function"
    },
    {
      "inputs": [],
      "name": "owner",
      "outputs": [
        {
          "internalType": "address",
          "name": "",
          "type": "address"
        }
      ],
      "stateMutability": "view",
      "type": "function"
    },
    {
      "inputs": [],
      "name": "renounceOwnership",
      "outputs": [],
      "stateMutability": "nonpayable",
      "type": "function"
    },
    {
      "inputs": [],
      "name": "symbol",
      "outputs": [
        {
          "internalType": "string",
          "name": "",
          "type": "string"
        }
      ],
      "stateMutability": "view",
      "type": "function"
    },
    {
      "inputs": [],
      "name": "totalSupply",
      "outputs": [
        {
          "internalType": "uint256",
          "name": "",
          "type": "uint256"
        }
      ],
      "stateMutability": "view",
      "type": "function"
    },
    {
      "inputs": [
        {
          "internalType": "address",
          "name": "recipient",
          "type": "address"
        },
        {
          "internalType": "uint256",
          "name": "amount",
          "type": "uint256"
        }
      ],
      "name": "transfer",
      "outputs": [
        {
          "internalType": "bool",
          "name": "",
          "type": "bool"
        }
      ],
      "stateMutability": "nonpayable",
      "type": "function"
    },
    {
      "inputs": [
        {
          "internalType": "address",
          "name": "sender",
          "type": "address"
        },
        {
          "internalType": "address",
          "name": "recipient",
          "type": "address"
        },
        {
          "internalType": "uint256",
          "name": "amount",
          "type": "uint256"
        }
      ],
      "name": "transferFrom",
      "outputs": [
        {
          "internalType": "bool",
          "name": "",
          "type": "bool"
        }
      ],
      "stateMutability": "nonpayable",
      "type": "function"
    },
    {
      "inputs": [
        {
          "internalType": "address",
          "name": "newOwner",
          "type": "address"
        }
      ],
      "name": "transferOwnership",
      "outputs": [],
      "stateMutability": "nonpayable",
      "type": "function"
    },
    {
      "inputs": [
        {
          "internalType": "address",
          "name": "minterAddress",
          "type": "address"
        },
        {
          "internalType": "bool",
          "name": "minterStatus",
          "type": "bool"
        }
      ],
      "name": "updateMinterStatus",
      "outputs": [],
      "stateMutability": "nonpayable",
      "type": "function"
    }
  ],
  "transactionHash": "0x0fbf873656ede839d90426bd22157a2a05f960c8d4a6d396645aa534d89d871b",
  "args": [
    "0x0c26bb185ad09c5a41e8fd127bf7b8c99e81e5dc",
    "0x1Da10cDEc44538E1854791b8e71FA4Ef05b4b238"
  ],
  "solcInputHash": "0xdc8b330c4caf9e53fb2579ac11950b7c2c35de76433cf9a1e628226474e33fab",
  "bytecode": "0x60806040523480156200001157600080fd5b506040516200161c3803806200161c833981810160405260408110156200003757600080fd5b5080516020918201516040805180820182526004808252634150493360e01b8287018181528451808601909552918452958301959095528051939492939092620000859160039190620003af565b5080516200009b906004906020840190620003af565b50506005805460ff19166012179055506000620000b762000126565b60058054610100600160a81b0319166101006001600160a01b0384169081029190911790915560405191925090600090600080516020620015fc833981519152908290a35062000107826200012a565b6200011e816a52b7d2dcc80cd2e400000062000239565b50506200044b565b3390565b6200013462000126565b60055461010090046001600160a01b039081169116146200019c576040805162461bcd60e51b815260206004820181905260248201527f4f776e61626c653a2063616c6c6572206973206e6f7420746865206f776e6572604482015290519081900360640190fd5b6001600160a01b038116620001e35760405162461bcd60e51b8152600401808060200182810382526026815260200180620015d66026913960400191505060405180910390fd5b6005546040516001600160a01b038084169261010090041690600080516020620015fc83398151915290600090a3600580546001600160a01b0390921661010002610100600160a81b0319909216919091179055565b6001600160a01b03821662000295576040805162461bcd60e51b815260206004820152601f60248201527f45524332303a206d696e7420746f20746865207a65726f206164647265737300604482015290519081900360640190fd5b620002a36000838362000348565b620002bf816002546200034d60201b62000a651790919060201c565b6002556001600160a01b03821660009081526020818152604090912054620002f291839062000a656200034d821b17901c565b6001600160a01b0383166000818152602081815260408083209490945583518581529351929391927fddf252ad1be2c89b69c2b068fc378daa952ba7f163c4a11628f55a4df523b3ef9281900390910190a35050565b505050565b600082820183811015620003a8576040805162461bcd60e51b815260206004820152601b60248201527f536166654d6174683a206164646974696f6e206f766572666c6f770000000000604482015290519081900360640190fd5b9392505050565b828054600181600116156101000203166002900490600052602060002090601f016020900481019282601f10620003f257805160ff191683800117855562000422565b8280016001018555821562000422579182015b828111156200042257825182559160200191906001019062000405565b506200043092915062000434565b5090565b5b8082111562000430576000815560010162000435565b61117b806200045b6000396000f3fe608060405234801561001057600080fd5b50600436106101365760003560e01c8063715018a6116100b2578063a9059cbb11610081578063dd62ed3e11610066578063dd62ed3e146103b5578063efc8f3c8146103e3578063f2fde38b1461041157610136565b8063a9059cbb14610363578063bbb30c5d1461038f57610136565b8063715018a6146103035780638da5cb5b1461030b57806395d89b411461032f578063a457c2d71461033757610136565b8063313ce5671161010957806340c10f19116100ee57806340c10f191461029257806342966c68146102c057806370a08231146102dd57610136565b8063313ce56714610248578063395093511461026657610136565b806306fdde031461013b578063095ea7b3146101b857806318160ddd146101f857806323b872dd14610212575b600080fd5b610143610437565b6040805160208082528351818301528351919283929083019185019080838360005b8381101561017d578181015183820152602001610165565b50505050905090810190601f1680156101aa5780820380516001836020036101000a031916815260200191505b509250505060405180910390f35b6101e4600480360360408110156101ce57600080fd5b506001600160a01b0381351690602001356104cd565b604080519115158252519081900360200190f35b6102006104ea565b60408051918252519081900360200190f35b6101e46004803603606081101561022857600080fd5b506001600160a01b038135811691602081013590911690604001356104f0565b610250610577565b6040805160ff9092168252519081900360200190f35b6101e46004803603604081101561027c57600080fd5b506001600160a01b038135169060200135610580565b6102be600480360360408110156102a857600080fd5b506001600160a01b0381351690602001356105ce565b005b6102be600480360360208110156102d657600080fd5b5035610640565b610200600480360360208110156102f357600080fd5b50356001600160a01b031661064d565b6102be610668565b610313610734565b604080516001600160a01b039092168252519081900360200190f35b610143610748565b6101e46004803603604081101561034d57600080fd5b506001600160a01b0381351690602001356107a9565b6101e46004803603604081101561037957600080fd5b506001600160a01b038135169060200135610811565b6101e4600480360360208110156103a557600080fd5b50356001600160a01b0316610825565b610200600480360360408110156103cb57600080fd5b506001600160a01b0381358116916020013516610843565b6102be600480360360408110156103f957600080fd5b506001600160a01b038135169060200135151561086e565b6102be6004803603602081101561042757600080fd5b50356001600160a01b031661093d565b60038054604080516020601f60026000196101006001881615020190951694909404938401819004810282018101909252828152606093909290918301828280156104c35780601f10610498576101008083540402835291602001916104c3565b820191906000526020600020905b8154815290600101906020018083116104a657829003601f168201915b5050505050905090565b60006104e16104da610ac6565b8484610aca565b50600192915050565b60025490565b60006104fd848484610bb6565b61056d84610509610ac6565b6105688560405180606001604052806028815260200161108f602891396001600160a01b038a16600090815260016020526040812090610547610ac6565b6001600160a01b031681526020810191909152604001600020549190610d11565b610aca565b5060019392505050565b60055460ff1690565b60006104e161058d610ac6565b84610568856001600061059e610ac6565b6001600160a01b03908116825260208083019390935260409182016000908120918c168152925290205490610a65565b3360009081526006602052604090205460ff16610632576040805162461bcd60e51b815260206004820181905260248201527f4f6e6c79206d696e746572732061726520616c6c6f77656420746f206d696e74604482015290519081900360640190fd5b61063c8282610da8565b5050565b61064a3382610e98565b50565b6001600160a01b031660009081526020819052604090205490565b610670610ac6565b60055461010090046001600160a01b039081169116146106d7576040805162461bcd60e51b815260206004820181905260248201527f4f776e61626c653a2063616c6c6572206973206e6f7420746865206f776e6572604482015290519081900360640190fd5b60055460405160009161010090046001600160a01b0316907f8be0079c531659141344cd1fd0a4f28419497f9722a3daafe3b4186f6b6457e0908390a36005805474ffffffffffffffffffffffffffffffffffffffff0019169055565b60055461010090046001600160a01b031690565b60048054604080516020601f60026000196101006001881615020190951694909404938401819004810282018101909252828152606093909290918301828280156104c35780601f10610498576101008083540402835291602001916104c3565b60006104e16107b6610ac6565b846105688560405180606001604052806025815260200161112160259139600160006107e0610ac6565b6001600160a01b03908116825260208083019390935260409182016000908120918d16815292529020549190610d11565b60006104e161081e610ac6565b8484610bb6565b6001600160a01b031660009081526006602052604090205460ff1690565b6001600160a01b03918216600090815260016020908152604080832093909416825291909152205490565b610876610ac6565b60055461010090046001600160a01b039081169116146108dd576040805162461bcd60e51b815260206004820181905260248201527f4f776e61626c653a2063616c6c6572206973206e6f7420746865206f776e6572604482015290519081900360640190fd5b6001600160a01b038216600081815260066020908152604091829020805460ff1916851515908117909155825190815291517fd7f05487ae3002c125e5927b52b19827dd903ac7cb2e69c4f7f2fdbc17d1145c9281900390910190a25050565b610945610ac6565b60055461010090046001600160a01b039081169116146109ac576040805162461bcd60e51b815260206004820181905260248201527f4f776e61626c653a2063616c6c6572206973206e6f7420746865206f776e6572604482015290519081900360640190fd5b6001600160a01b0381166109f15760405162461bcd60e51b81526004018080602001828103825260268152602001806110216026913960400191505060405180910390fd5b6005546040516001600160a01b0380841692610100900416907f8be0079c531659141344cd1fd0a4f28419497f9722a3daafe3b4186f6b6457e090600090a3600580546001600160a01b039092166101000274ffffffffffffffffffffffffffffffffffffffff0019909216919091179055565b600082820183811015610abf576040805162461bcd60e51b815260206004820152601b60248201527f536166654d6174683a206164646974696f6e206f766572666c6f770000000000604482015290519081900360640190fd5b9392505050565b3390565b6001600160a01b038316610b0f5760405162461bcd60e51b81526004018080602001828103825260248152602001806110fd6024913960400191505060405180910390fd5b6001600160a01b038216610b545760405162461bcd60e51b81526004018080602001828103825260228152602001806110476022913960400191505060405180910390fd5b6001600160a01b03808416600081815260016020908152604080832094871680845294825291829020859055815185815291517f8c5be1e5ebec7d5bd14f71427d1e84f3dd0314c0f7b2291e5b200ac8c7c3b9259281900390910190a3505050565b6001600160a01b038316610bfb5760405162461bcd60e51b81526004018080602001828103825260258152602001806110d86025913960400191505060405180910390fd5b6001600160a01b038216610c405760405162461bcd60e51b8152600401808060200182810382526023815260200180610fdc6023913960400191505060405180910390fd5b610c4b838383610f94565b610c8881604051806060016040528060268152602001611069602691396001600160a01b0386166000908152602081905260409020549190610d11565b6001600160a01b038085166000908152602081905260408082209390935590841681522054610cb79082610a65565b6001600160a01b038084166000818152602081815260409182902094909455805185815290519193928716927fddf252ad1be2c89b69c2b068fc378daa952ba7f163c4a11628f55a4df523b3ef92918290030190a3505050565b60008184841115610da05760405162461bcd60e51b81526004018080602001828103825283818151815260200191508051906020019080838360005b83811015610d65578181015183820152602001610d4d565b50505050905090810190601f168015610d925780820380516001836020036101000a031916815260200191505b509250505060405180910390fd5b505050900390565b6001600160a01b038216610e03576040805162461bcd60e51b815260206004820152601f60248201527f45524332303a206d696e7420746f20746865207a65726f206164647265737300604482015290519081900360640190fd5b610e0f60008383610f94565b600254610e1c9082610a65565b6002556001600160a01b038216600090815260208190526040902054610e429082610a65565b6001600160a01b0383166000818152602081815260408083209490945583518581529351929391927fddf252ad1be2c89b69c2b068fc378daa952ba7f163c4a11628f55a4df523b3ef9281900390910190a35050565b6001600160a01b038216610edd5760405162461bcd60e51b81526004018080602001828103825260218152602001806110b76021913960400191505060405180910390fd5b610ee982600083610f94565b610f2681604051806060016040528060228152602001610fff602291396001600160a01b0385166000908152602081905260409020549190610d11565b6001600160a01b038316600090815260208190526040902055600254610f4c9082610f99565b6002556040805182815290516000916001600160a01b038516917fddf252ad1be2c89b69c2b068fc378daa952ba7f163c4a11628f55a4df523b3ef9181900360200190a35050565b505050565b6000610abf83836040518060400160405280601e81526020017f536166654d6174683a207375627472616374696f6e206f766572666c6f770000815250610d1156fe45524332303a207472616e7366657220746f20746865207a65726f206164647265737345524332303a206275726e20616d6f756e7420657863656564732062616c616e63654f776e61626c653a206e6577206f776e657220697320746865207a65726f206164647265737345524332303a20617070726f766520746f20746865207a65726f206164647265737345524332303a207472616e7366657220616d6f756e7420657863656564732062616c616e636545524332303a207472616e7366657220616d6f756e74206578636565647320616c6c6f77616e636545524332303a206275726e2066726f6d20746865207a65726f206164647265737345524332303a207472616e736665722066726f6d20746865207a65726f206164647265737345524332303a20617070726f76652066726f6d20746865207a65726f206164647265737345524332303a2064656372656173656420616c6c6f77616e63652062656c6f77207a65726fa26469706673582212200a9cd892030336c2d5ffc5f8c04b53e92b52440275f29083a1ea064fe78065d964736f6c634300060c00334f776e61626c653a206e6577206f776e657220697320746865207a65726f20616464726573738be0079c531659141344cd1fd0a4f28419497f9722a3daafe3b4186f6b6457e0",
  "devdoc": {
    "kind": "dev",
    "methods": {
      "allowance(address,address)": {
        "details": "See {IERC20-allowance}."
      },
      "approve(address,uint256)": {
        "details": "See {IERC20-approve}. Requirements: - `spender` cannot be the zero address."
      },
      "balanceOf(address)": {
        "details": "See {IERC20-balanceOf}."
      },
      "burn(uint256)": {
        "params": {
          "amount": "Amount that will be burned"
        }
      },
      "constructor": {
        "params": {
          "contractOwner": "Address that will receive the ownership of the token contract",
          "mintingDestination": "Address that the tokens will be minted to"
        }
      },
      "decimals()": {
        "details": "Returns the number of decimals used to get its user representation. For example, if `decimals` equals `2`, a balance of `505` tokens should be displayed to a user as `5,05` (`505 / 10 ** 2`). Tokens usually opt for a value of 18, imitating the relationship between Ether and Wei. This is the value {ERC20} uses, unless {_setupDecimals} is called. NOTE: This information is only used for _display_ purposes: it in no way affects any of the arithmetic of the contract, including {IERC20-balanceOf} and {IERC20-transfer}."
      },
      "decreaseAllowance(address,uint256)": {
        "details": "Atomically decreases the allowance granted to `spender` by the caller. This is an alternative to {approve} that can be used as a mitigation for problems described in {IERC20-approve}. Emits an {Approval} event indicating the updated allowance. Requirements: - `spender` cannot be the zero address. - `spender` must have allowance for the caller of at least `subtractedValue`."
      },
      "getMinterStatus(address)": {
        "params": {
          "minterAddress": "Address whose minter authorization status will be returned"
        },
        "returns": {
          "minterStatus": "Minter authorization status"
        }
      },
      "increaseAllowance(address,uint256)": {
        "details": "Atomically increases the allowance granted to `spender` by the caller. This is an alternative to {approve} that can be used as a mitigation for problems described in {IERC20-approve}. Emits an {Approval} event indicating the updated allowance. Requirements: - `spender` cannot be the zero address."
      },
      "mint(address,uint256)": {
        "params": {
          "account": "Address that will receive the minted tokens",
          "amount": "Amount that will be minted"
        }
      },
      "name()": {
        "details": "Returns the name of the token."
      },
      "owner()": {
        "details": "Returns the address of the current owner."
      },
      "renounceOwnership()": {
        "details": "Leaves the contract without owner. It will not be possible to call `onlyOwner` functions anymore. Can only be called by the current owner. NOTE: Renouncing ownership will leave the contract without an owner, thereby removing any functionality that is only available to the owner."
      },
      "symbol()": {
        "details": "Returns the symbol of the token, usually a shorter version of the name."
      },
      "totalSupply()": {
        "details": "See {IERC20-totalSupply}."
      },
      "transfer(address,uint256)": {
        "details": "See {IERC20-transfer}. Requirements: - `recipient` cannot be the zero address. - the caller must have a balance of at least `amount`."
      },
      "transferFrom(address,address,uint256)": {
        "details": "See {IERC20-transferFrom}. Emits an {Approval} event indicating the updated allowance. This is not required by the EIP. See the note at the beginning of {ERC20}; Requirements: - `sender` and `recipient` cannot be the zero address. - `sender` must have a balance of at least `amount`. - the caller must have allowance for ``sender``'s tokens of at least `amount`."
      },
      "transferOwnership(address)": {
        "details": "Transfers ownership of the contract to a new account (`newOwner`). Can only be called by the current owner."
      },
      "updateMinterStatus(address,bool)": {
        "params": {
          "minterAddress": "Address whose minter authorization status will be updated",
          "minterStatus": "Updated minter authorization status"
        }
      }
    },
    "stateVariables": {
      "isMinter": {
        "details": "If an address is authorized to mint tokens"
      }
    },
    "title": "API3 token contract",
    "version": 1
  },
  "userdoc": {
    "kind": "user",
    "methods": {
      "burn(uint256)": {
        "notice": "Burns sender's tokens"
      },
      "getMinterStatus(address)": {
        "notice": "Returns if an address is authorized to mint tokens"
      },
      "mint(address,uint256)": {
        "notice": "Mints tokens"
      },
      "updateMinterStatus(address,bool)": {
        "notice": "Updates if an address is authorized to mint tokens"
      }
    },
    "notice": "The API3 token contract is owned by the API3 DAO, which can grant minting privileges to addresses. Any account is allowed to burn tokens.",
    "version": 1
  },
  "storageLayout": {
    "storage": [
      {
        "astId": 348,
        "contract": "contracts/Api3Token.sol:Api3Token",
        "label": "_balances",
        "offset": 0,
        "slot": "0",
        "type": "t_mapping(t_address,t_uint256)"
      },
      {
        "astId": 354,
        "contract": "contracts/Api3Token.sol:Api3Token",
        "label": "_allowances",
        "offset": 0,
        "slot": "1",
        "type": "t_mapping(t_address,t_mapping(t_address,t_uint256))"
      },
      {
        "astId": 356,
        "contract": "contracts/Api3Token.sol:Api3Token",
        "label": "_totalSupply",
        "offset": 0,
        "slot": "2",
        "type": "t_uint256"
      },
      {
        "astId": 358,
        "contract": "contracts/Api3Token.sol:Api3Token",
        "label": "_name",
        "offset": 0,
        "slot": "3",
        "type": "t_string_storage"
      },
      {
        "astId": 360,
        "contract": "contracts/Api3Token.sol:Api3Token",
        "label": "_symbol",
        "offset": 0,
        "slot": "4",
        "type": "t_string_storage"
      },
      {
        "astId": 362,
        "contract": "contracts/Api3Token.sol:Api3Token",
        "label": "_decimals",
        "offset": 0,
        "slot": "5",
        "type": "t_uint8"
      },
      {
        "astId": 30,
        "contract": "contracts/Api3Token.sol:Api3Token",
        "label": "_owner",
        "offset": 1,
        "slot": "5",
        "type": "t_address"
      },
      {
        "astId": 1124,
        "contract": "contracts/Api3Token.sol:Api3Token",
        "label": "isMinter",
        "offset": 0,
        "slot": "6",
        "type": "t_mapping(t_address,t_bool)"
      }
    ],
    "types": {
      "t_address": {
        "encoding": "inplace",
        "label": "address",
        "numberOfBytes": "20"
      },
      "t_bool": {
        "encoding": "inplace",
        "label": "bool",
        "numberOfBytes": "1"
      },
      "t_mapping(t_address,t_bool)": {
        "encoding": "mapping",
        "key": "t_address",
        "label": "mapping(address => bool)",
        "numberOfBytes": "32",
        "value": "t_bool"
      },
      "t_mapping(t_address,t_mapping(t_address,t_uint256))": {
        "encoding": "mapping",
        "key": "t_address",
        "label": "mapping(address => mapping(address => uint256))",
        "numberOfBytes": "32",
        "value": "t_mapping(t_address,t_uint256)"
      },
      "t_mapping(t_address,t_uint256)": {
        "encoding": "mapping",
        "key": "t_address",
        "label": "mapping(address => uint256)",
        "numberOfBytes": "32",
        "value": "t_uint256"
      },
      "t_string_storage": {
        "encoding": "bytes",
        "label": "string",
        "numberOfBytes": "32"
      },
      "t_uint256": {
        "encoding": "inplace",
        "label": "uint256",
        "numberOfBytes": "32"
      },
      "t_uint8": {
        "encoding": "inplace",
        "label": "uint8",
        "numberOfBytes": "1"
      }
    }
  },
  "gasEstimates": {
    "creation": {
      "codeDepositCost": "895000",
      "executionCost": "infinite",
      "totalCost": "infinite"
    },
    "external": {
      "allowance(address,address)": "1294",
      "approve(address,uint256)": "infinite",
      "balanceOf(address)": "1234",
      "burn(uint256)": "infinite",
      "decimals()": "1059",
      "decreaseAllowance(address,uint256)": "infinite",
      "getMinterStatus(address)": "1221",
      "increaseAllowance(address,uint256)": "infinite",
      "mint(address,uint256)": "infinite",
      "name()": "infinite",
      "owner()": "1093",
      "renounceOwnership()": "24234",
      "symbol()": "infinite",
      "totalSupply()": "1066",
      "transfer(address,uint256)": "infinite",
      "transferFrom(address,address,uint256)": "infinite",
      "transferOwnership(address)": "infinite",
      "updateMinterStatus(address,bool)": "23558"
    }
  }
}