{
  "abi": [
    {
      "inputs": [
        {
          "internalType": "address",
          "name": "contractOwner",
          "type": "address"
        },
        {
          "internalType": "address",
          "name": "mintingDestination",
          "type": "address"
        }
      ],
      "stateMutability": "nonpayable",
      "type": "constructor"
    },
    {
      "anonymous": false,
      "inputs": [
        {
          "indexed": true,
          "internalType": "address",
          "name": "owner",
          "type": "address"
        },
        {
          "indexed": true,
          "internalType": "address",
          "name": "spender",
          "type": "address"
        },
        {
          "indexed": false,
          "internalType": "uint256",
          "name": "value",
          "type": "uint256"
        }
      ],
      "name": "Approval",
      "type": "event"
    },
    {
      "anonymous": false,
      "inputs": [
        {
          "indexed": true,
          "internalType": "address",
          "name": "minterAddress",
          "type": "address"
        },
        {
          "indexed": false,
          "internalType": "bool",
          "name": "minterStatus",
          "type": "bool"
        }
      ],
      "name": "MinterStatusUpdated",
      "type": "event"
    },
    {
      "anonymous": false,
      "inputs": [
        {
          "indexed": true,
          "internalType": "address",
          "name": "previousOwner",
          "type": "address"
        },
        {
          "indexed": true,
          "internalType": "address",
          "name": "newOwner",
          "type": "address"
        }
      ],
      "name": "OwnershipTransferred",
      "type": "event"
    },
    {
      "anonymous": false,
      "inputs": [
        {
          "indexed": true,
          "internalType": "address",
          "name": "from",
          "type": "address"
        },
        {
          "indexed": true,
          "internalType": "address",
          "name": "to",
          "type": "address"
        },
        {
          "indexed": false,
          "internalType": "uint256",
          "name": "value",
          "type": "uint256"
        }
      ],
      "name": "Transfer",
      "type": "event"
    },
    {
      "inputs": [
        {
          "internalType": "address",
          "name": "owner",
          "type": "address"
        },
        {
          "internalType": "address",
          "name": "spender",
          "type": "address"
        }
      ],
      "name": "allowance",
      "outputs": [
        {
          "internalType": "uint256",
          "name": "",
          "type": "uint256"
        }
      ],
      "stateMutability": "view",
      "type": "function"
    },
    {
      "inputs": [
        {
          "internalType": "address",
          "name": "spender",
          "type": "address"
        },
        {
          "internalType": "uint256",
          "name": "amount",
          "type": "uint256"
        }
      ],
      "name": "approve",
      "outputs": [
        {
          "internalType": "bool",
          "name": "",
          "type": "bool"
        }
      ],
      "stateMutability": "nonpayable",
      "type": "function"
    },
    {
      "inputs": [
        {
          "internalType": "address",
          "name": "account",
          "type": "address"
        }
      ],
      "name": "balanceOf",
      "outputs": [
        {
          "internalType": "uint256",
          "name": "",
          "type": "uint256"
        }
      ],
      "stateMutability": "view",
      "type": "function"
    },
    {
      "inputs": [],
      "name": "decimals",
      "outputs": [
        {
          "internalType": "uint8",
          "name": "",
          "type": "uint8"
        }
      ],
      "stateMutability": "view",
      "type": "function"
    },
    {
      "inputs": [
        {
          "internalType": "address",
          "name": "spender",
          "type": "address"
        },
        {
          "internalType": "uint256",
          "name": "subtractedValue",
          "type": "uint256"
        }
      ],
      "name": "decreaseAllowance",
      "outputs": [
        {
          "internalType": "bool",
          "name": "",
          "type": "bool"
        }
      ],
      "stateMutability": "nonpayable",
      "type": "function"
    },
    {
      "inputs": [
        {
          "internalType": "address",
          "name": "minterAddress",
          "type": "address"
        }
      ],
      "name": "getMinterStatus",
      "outputs": [
        {
          "internalType": "bool",
          "name": "minterStatus",
          "type": "bool"
        }
      ],
      "stateMutability": "view",
      "type": "function"
    },
    {
      "inputs": [
        {
          "internalType": "address",
          "name": "spender",
          "type": "address"
        },
        {
          "internalType": "uint256",
          "name": "addedValue",
          "type": "uint256"
        }
      ],
      "name": "increaseAllowance",
      "outputs": [
        {
          "internalType": "bool",
          "name": "",
          "type": "bool"
        }
      ],
      "stateMutability": "nonpayable",
      "type": "function"
    },
    {
      "inputs": [
        {
          "internalType": "address",
          "name": "account",
          "type": "address"
        },
        {
          "internalType": "uint256",
          "name": "amount",
          "type": "uint256"
        }
      ],
      "name": "mint",
      "outputs": [],
      "stateMutability": "nonpayable",
      "type": "function"
    },
    {
      "inputs": [],
      "name": "name",
      "outputs": [
        {
          "internalType": "string",
          "name": "",
          "type": "string"
        }
      ],
      "stateMutability": "view",
      "type": "function"
    },
    {
      "inputs": [],
      "name": "owner",
      "outputs": [
        {
          "internalType": "address",
          "name": "",
          "type": "address"
        }
      ],
      "stateMutability": "view",
      "type": "function"
    },
    {
      "inputs": [],
      "name": "renounceOwnership",
      "outputs": [],
      "stateMutability": "nonpayable",
      "type": "function"
    },
    {
      "inputs": [],
      "name": "symbol",
      "outputs": [
        {
          "internalType": "string",
          "name": "",
          "type": "string"
        }
      ],
      "stateMutability": "view",
      "type": "function"
    },
    {
      "inputs": [],
      "name": "totalSupply",
      "outputs": [
        {
          "internalType": "uint256",
          "name": "",
          "type": "uint256"
        }
      ],
      "stateMutability": "view",
      "type": "function"
    },
    {
      "inputs": [
        {
          "internalType": "address",
          "name": "recipient",
          "type": "address"
        },
        {
          "internalType": "uint256",
          "name": "amount",
          "type": "uint256"
        }
      ],
      "name": "transfer",
      "outputs": [
        {
          "internalType": "bool",
          "name": "",
          "type": "bool"
        }
      ],
      "stateMutability": "nonpayable",
      "type": "function"
    },
    {
      "inputs": [
        {
          "internalType": "address",
          "name": "sender",
          "type": "address"
        },
        {
          "internalType": "address",
          "name": "recipient",
          "type": "address"
        },
        {
          "internalType": "uint256",
          "name": "amount",
          "type": "uint256"
        }
      ],
      "name": "transferFrom",
      "outputs": [
        {
          "internalType": "bool",
          "name": "",
          "type": "bool"
        }
      ],
      "stateMutability": "nonpayable",
      "type": "function"
    },
    {
      "inputs": [
        {
          "internalType": "address",
          "name": "newOwner",
          "type": "address"
        }
      ],
      "name": "transferOwnership",
      "outputs": [],
      "stateMutability": "nonpayable",
      "type": "function"
    },
    {
      "inputs": [
        {
          "internalType": "address",
          "name": "minterAddress",
          "type": "address"
        },
        {
          "internalType": "bool",
          "name": "minterStatus",
          "type": "bool"
        }
      ],
      "name": "updateMinterStatus",
      "outputs": [],
      "stateMutability": "nonpayable",
      "type": "function"
    }
  ],
  "address": "0x90C8D60E7d6f492639fEe37a66a778b03a7cD072",
  "args": [
    "0x6B3998970db68A9Cb7Ab240017C20D22F08A3cC1",
    "0x0c26bb185ad09c5a41e8fd127bf7b8c99e81e5dc"
  ],
  "solcInputHash": "0x6523b4e46a27dce5ddf759135a3d1fc9d8cdea1926bb74b06fa883356c9d4661",
  "bytecode": "0x60806040523480156200001157600080fd5b506040516200145638038062001456833981810160405260408110156200003757600080fd5b5080516020918201516040805180820182526004808252634150493360e01b8287018181528451808601909552918452958301959095528051939492939092620000859160039190620003af565b5080516200009b906004906020840190620003af565b50506005805460ff19166012179055506000620000b762000126565b60058054610100600160a81b0319166101006001600160a01b038416908102919091179091556040519192509060009060008051602062001436833981519152908290a35062000107826200012a565b6200011e816a52b7d2dcc80cd2e400000062000239565b50506200044b565b3390565b6200013462000126565b60055461010090046001600160a01b039081169116146200019c576040805162461bcd60e51b815260206004820181905260248201527f4f776e61626c653a2063616c6c6572206973206e6f7420746865206f776e6572604482015290519081900360640190fd5b6001600160a01b038116620001e35760405162461bcd60e51b8152600401808060200182810382526026815260200180620014106026913960400191505060405180910390fd5b6005546040516001600160a01b0380841692610100900416906000805160206200143683398151915290600090a3600580546001600160a01b0390921661010002610100600160a81b0319909216919091179055565b6001600160a01b03821662000295576040805162461bcd60e51b815260206004820152601f60248201527f45524332303a206d696e7420746f20746865207a65726f206164647265737300604482015290519081900360640190fd5b620002a36000838362000348565b620002bf816002546200034d60201b62000a201790919060201c565b6002556001600160a01b03821660009081526020818152604090912054620002f291839062000a206200034d821b17901c565b6001600160a01b0383166000818152602081815260408083209490945583518581529351929391927fddf252ad1be2c89b69c2b068fc378daa952ba7f163c4a11628f55a4df523b3ef9281900390910190a35050565b505050565b600082820183811015620003a8576040805162461bcd60e51b815260206004820152601b60248201527f536166654d6174683a206164646974696f6e206f766572666c6f770000000000604482015290519081900360640190fd5b9392505050565b828054600181600116156101000203166002900490600052602060002090601f016020900481019282601f10620003f257805160ff191683800117855562000422565b8280016001018555821562000422579182015b828111156200042257825182559160200191906001019062000405565b506200043092915062000434565b5090565b5b8082111562000430576000815560010162000435565b610fb5806200045b6000396000f3fe608060405234801561001057600080fd5b506004361061011b5760003560e01c8063715018a6116100b2578063a9059cbb11610081578063dd62ed3e11610066578063dd62ed3e1461037d578063efc8f3c8146103ab578063f2fde38b146103d95761011b565b8063a9059cbb1461032b578063bbb30c5d146103575761011b565b8063715018a6146102cb5780638da5cb5b146102d357806395d89b41146102f7578063a457c2d7146102ff5761011b565b8063313ce567116100ee578063313ce5671461022d578063395093511461024b57806340c10f191461027757806370a08231146102a55761011b565b806306fdde0314610120578063095ea7b31461019d57806318160ddd146101dd57806323b872dd146101f7575b600080fd5b6101286103ff565b6040805160208082528351818301528351919283929083019185019080838360005b8381101561016257818101518382015260200161014a565b50505050905090810190601f16801561018f5780820380516001836020036101000a031916815260200191505b509250505060405180910390f35b6101c9600480360360408110156101b357600080fd5b506001600160a01b038135169060200135610495565b604080519115158252519081900360200190f35b6101e56104b2565b60408051918252519081900360200190f35b6101c96004803603606081101561020d57600080fd5b506001600160a01b038135811691602081013590911690604001356104b8565b61023561053f565b6040805160ff9092168252519081900360200190f35b6101c96004803603604081101561026157600080fd5b506001600160a01b038135169060200135610548565b6102a36004803603604081101561028d57600080fd5b506001600160a01b038135169060200135610596565b005b6101e5600480360360208110156102bb57600080fd5b50356001600160a01b0316610608565b6102a3610623565b6102db6106ef565b604080516001600160a01b039092168252519081900360200190f35b610128610703565b6101c96004803603604081101561031557600080fd5b506001600160a01b038135169060200135610764565b6101c96004803603604081101561034157600080fd5b506001600160a01b0381351690602001356107cc565b6101c96004803603602081101561036d57600080fd5b50356001600160a01b03166107e0565b6101e56004803603604081101561039357600080fd5b506001600160a01b03813581169160200135166107fe565b6102a3600480360360408110156103c157600080fd5b506001600160a01b0381351690602001351515610829565b6102a3600480360360208110156103ef57600080fd5b50356001600160a01b03166108f8565b60038054604080516020601f600260001961010060018816150201909516949094049384018190048102820181019092528281526060939092909183018282801561048b5780601f106104605761010080835404028352916020019161048b565b820191906000526020600020905b81548152906001019060200180831161046e57829003601f168201915b5050505050905090565b60006104a96104a2610a81565b8484610a85565b50600192915050565b60025490565b60006104c5848484610b71565b610535846104d1610a81565b61053085604051806060016040528060288152602001610eea602891396001600160a01b038a1660009081526001602052604081209061050f610a81565b6001600160a01b031681526020810191909152604001600020549190610ccc565b610a85565b5060019392505050565b60055460ff1690565b60006104a9610555610a81565b846105308560016000610566610a81565b6001600160a01b03908116825260208083019390935260409182016000908120918c168152925290205490610a20565b3360009081526006602052604090205460ff166105fa576040805162461bcd60e51b815260206004820181905260248201527f4f6e6c79206d696e746572732061726520616c6c6f77656420746f206d696e74604482015290519081900360640190fd5b6106048282610d63565b5050565b6001600160a01b031660009081526020819052604090205490565b61062b610a81565b60055461010090046001600160a01b03908116911614610692576040805162461bcd60e51b815260206004820181905260248201527f4f776e61626c653a2063616c6c6572206973206e6f7420746865206f776e6572604482015290519081900360640190fd5b60055460405160009161010090046001600160a01b0316907f8be0079c531659141344cd1fd0a4f28419497f9722a3daafe3b4186f6b6457e0908390a36005805474ffffffffffffffffffffffffffffffffffffffff0019169055565b60055461010090046001600160a01b031690565b60048054604080516020601f600260001961010060018816150201909516949094049384018190048102820181019092528281526060939092909183018282801561048b5780601f106104605761010080835404028352916020019161048b565b60006104a9610771610a81565b8461053085604051806060016040528060258152602001610f5b602591396001600061079b610a81565b6001600160a01b03908116825260208083019390935260409182016000908120918d16815292529020549190610ccc565b60006104a96107d9610a81565b8484610b71565b6001600160a01b031660009081526006602052604090205460ff1690565b6001600160a01b03918216600090815260016020908152604080832093909416825291909152205490565b610831610a81565b60055461010090046001600160a01b03908116911614610898576040805162461bcd60e51b815260206004820181905260248201527f4f776e61626c653a2063616c6c6572206973206e6f7420746865206f776e6572604482015290519081900360640190fd5b6001600160a01b038216600081815260066020908152604091829020805460ff1916851515908117909155825190815291517fd7f05487ae3002c125e5927b52b19827dd903ac7cb2e69c4f7f2fdbc17d1145c9281900390910190a25050565b610900610a81565b60055461010090046001600160a01b03908116911614610967576040805162461bcd60e51b815260206004820181905260248201527f4f776e61626c653a2063616c6c6572206973206e6f7420746865206f776e6572604482015290519081900360640190fd5b6001600160a01b0381166109ac5760405162461bcd60e51b8152600401808060200182810382526026815260200180610e7c6026913960400191505060405180910390fd5b6005546040516001600160a01b0380841692610100900416907f8be0079c531659141344cd1fd0a4f28419497f9722a3daafe3b4186f6b6457e090600090a3600580546001600160a01b039092166101000274ffffffffffffffffffffffffffffffffffffffff0019909216919091179055565b600082820183811015610a7a576040805162461bcd60e51b815260206004820152601b60248201527f536166654d6174683a206164646974696f6e206f766572666c6f770000000000604482015290519081900360640190fd5b9392505050565b3390565b6001600160a01b038316610aca5760405162461bcd60e51b8152600401808060200182810382526024815260200180610f376024913960400191505060405180910390fd5b6001600160a01b038216610b0f5760405162461bcd60e51b8152600401808060200182810382526022815260200180610ea26022913960400191505060405180910390fd5b6001600160a01b03808416600081815260016020908152604080832094871680845294825291829020859055815185815291517f8c5be1e5ebec7d5bd14f71427d1e84f3dd0314c0f7b2291e5b200ac8c7c3b9259281900390910190a3505050565b6001600160a01b038316610bb65760405162461bcd60e51b8152600401808060200182810382526025815260200180610f126025913960400191505060405180910390fd5b6001600160a01b038216610bfb5760405162461bcd60e51b8152600401808060200182810382526023815260200180610e596023913960400191505060405180910390fd5b610c06838383610e53565b610c4381604051806060016040528060268152602001610ec4602691396001600160a01b0386166000908152602081905260409020549190610ccc565b6001600160a01b038085166000908152602081905260408082209390935590841681522054610c729082610a20565b6001600160a01b038084166000818152602081815260409182902094909455805185815290519193928716927fddf252ad1be2c89b69c2b068fc378daa952ba7f163c4a11628f55a4df523b3ef92918290030190a3505050565b60008184841115610d5b5760405162461bcd60e51b81526004018080602001828103825283818151815260200191508051906020019080838360005b83811015610d20578181015183820152602001610d08565b50505050905090810190601f168015610d4d5780820380516001836020036101000a031916815260200191505b509250505060405180910390fd5b505050900390565b6001600160a01b038216610dbe576040805162461bcd60e51b815260206004820152601f60248201527f45524332303a206d696e7420746f20746865207a65726f206164647265737300604482015290519081900360640190fd5b610dca60008383610e53565b600254610dd79082610a20565b6002556001600160a01b038216600090815260208190526040902054610dfd9082610a20565b6001600160a01b0383166000818152602081815260408083209490945583518581529351929391927fddf252ad1be2c89b69c2b068fc378daa952ba7f163c4a11628f55a4df523b3ef9281900390910190a35050565b50505056fe45524332303a207472616e7366657220746f20746865207a65726f20616464726573734f776e61626c653a206e6577206f776e657220697320746865207a65726f206164647265737345524332303a20617070726f766520746f20746865207a65726f206164647265737345524332303a207472616e7366657220616d6f756e7420657863656564732062616c616e636545524332303a207472616e7366657220616d6f756e74206578636565647320616c6c6f77616e636545524332303a207472616e736665722066726f6d20746865207a65726f206164647265737345524332303a20617070726f76652066726f6d20746865207a65726f206164647265737345524332303a2064656372656173656420616c6c6f77616e63652062656c6f77207a65726fa26469706673582212202a6a6ca784ac3ea3bd32ceb9dcfeb30efe4b632ce9c20961b279df253682797f64736f6c634300060c00334f776e61626c653a206e6577206f776e657220697320746865207a65726f20616464726573738be0079c531659141344cd1fd0a4f28419497f9722a3daafe3b4186f6b6457e0"
}