{
  "abi": [
    {
      "inputs": [
        {
          "internalType": "address",
          "name": "api3TokenAddress",
          "type": "address"
        },
        {
          "internalType": "address",
          "name": "timelockManagerOwner",
          "type": "address"
        }
      ],
      "stateMutability": "nonpayable",
      "type": "constructor"
    },
    {
      "anonymous": false,
      "inputs": [
        {
          "indexed": false,
          "internalType": "address",
          "name": "api3PoolAddress",
          "type": "address"
        }
      ],
      "name": "Api3PoolUpdated",
      "type": "event"
    },
    {
      "anonymous": false,
      "inputs": [
        {
          "indexed": true,
          "internalType": "address",
          "name": "previousOwner",
          "type": "address"
        },
        {
          "indexed": true,
          "internalType": "address",
          "name": "newOwner",
          "type": "address"
        }
      ],
      "name": "OwnershipTransferred",
      "type": "event"
    },
    {
      "anonymous": false,
      "inputs": [
        {
          "indexed": true,
          "internalType": "uint256",
          "name": "indTimelock",
          "type": "uint256"
        },
        {
          "indexed": false,
          "internalType": "address",
          "name": "destination",
          "type": "address"
        }
      ],
      "name": "TimelockReversed",
      "type": "event"
    },
    {
      "anonymous": false,
      "inputs": [
        {
          "indexed": true,
          "internalType": "uint256",
          "name": "indTimelock",
          "type": "uint256"
        },
        {
          "indexed": false,
          "internalType": "address",
          "name": "source",
          "type": "address"
        },
        {
          "indexed": true,
          "internalType": "address",
          "name": "owner",
          "type": "address"
        },
        {
          "indexed": false,
          "internalType": "uint256",
          "name": "amount",
          "type": "uint256"
        },
        {
          "indexed": false,
          "internalType": "uint256",
          "name": "releaseTime",
          "type": "uint256"
        },
        {
          "indexed": false,
          "internalType": "bool",
          "name": "reversible",
          "type": "bool"
        }
      ],
      "name": "TransferredAndLocked",
      "type": "event"
    },
    {
      "anonymous": false,
      "inputs": [
        {
          "indexed": true,
          "internalType": "uint256",
          "name": "indTimelock",
          "type": "uint256"
        },
        {
          "indexed": false,
          "internalType": "address",
          "name": "destination",
          "type": "address"
        }
      ],
      "name": "Withdrawn",
      "type": "event"
    },
    {
      "anonymous": false,
      "inputs": [
        {
          "indexed": true,
          "internalType": "uint256",
          "name": "indTimelock",
          "type": "uint256"
        },
        {
          "indexed": false,
          "internalType": "address",
          "name": "api3PoolAddress",
          "type": "address"
        },
        {
          "indexed": false,
          "internalType": "address",
          "name": "beneficiary",
          "type": "address"
        }
      ],
      "name": "WithdrawnToPool",
      "type": "event"
    },
    {
      "inputs": [],
      "name": "api3Pool",
      "outputs": [
        {
          "internalType": "contract IApi3Pool",
          "name": "",
          "type": "address"
        }
      ],
      "stateMutability": "view",
      "type": "function"
    },
    {
      "inputs": [],
      "name": "api3Token",
      "outputs": [
        {
          "internalType": "contract IApi3Token",
          "name": "",
          "type": "address"
        }
      ],
      "stateMutability": "view",
      "type": "function"
    },
    {
      "inputs": [
        {
          "internalType": "uint256",
          "name": "indTimelock",
          "type": "uint256"
        }
      ],
      "name": "getTimelock",
      "outputs": [
        {
          "internalType": "address",
          "name": "owner",
          "type": "address"
        },
        {
          "internalType": "uint256",
          "name": "amount",
          "type": "uint256"
        },
        {
          "internalType": "uint256",
          "name": "releaseTime",
          "type": "uint256"
        },
        {
          "internalType": "bool",
          "name": "reversible",
          "type": "bool"
        }
      ],
      "stateMutability": "view",
      "type": "function"
    },
    {
      "inputs": [],
      "name": "getTimelocks",
      "outputs": [
        {
          "internalType": "address[]",
          "name": "owners",
          "type": "address[]"
        },
        {
          "internalType": "uint256[]",
          "name": "amounts",
          "type": "uint256[]"
        },
        {
          "internalType": "uint256[]",
          "name": "releaseTimes",
          "type": "uint256[]"
        },
        {
          "internalType": "bool[]",
          "name": "reversibles",
          "type": "bool[]"
        }
      ],
      "stateMutability": "view",
      "type": "function"
    },
    {
      "inputs": [],
      "name": "noTimelocks",
      "outputs": [
        {
          "internalType": "uint256",
          "name": "",
          "type": "uint256"
        }
      ],
      "stateMutability": "view",
      "type": "function"
    },
    {
      "inputs": [],
      "name": "owner",
      "outputs": [
        {
          "internalType": "address",
          "name": "",
          "type": "address"
        }
      ],
      "stateMutability": "view",
      "type": "function"
    },
    {
      "inputs": [],
      "name": "renounceOwnership",
      "outputs": [],
      "stateMutability": "nonpayable",
      "type": "function"
    },
    {
      "inputs": [
        {
          "internalType": "uint256",
          "name": "indTimelock",
          "type": "uint256"
        },
        {
          "internalType": "address",
          "name": "destination",
          "type": "address"
        }
      ],
      "name": "reverseTimelock",
      "outputs": [],
      "stateMutability": "nonpayable",
      "type": "function"
    },
    {
      "inputs": [
        {
          "internalType": "uint256[]",
          "name": "indTimelocks",
          "type": "uint256[]"
        },
        {
          "internalType": "address",
          "name": "destination",
          "type": "address"
        }
      ],
      "name": "reverseTimelockMultiple",
      "outputs": [],
      "stateMutability": "nonpayable",
      "type": "function"
    },
    {
      "inputs": [
        {
          "internalType": "uint256",
          "name": "",
          "type": "uint256"
        }
      ],
      "name": "timelocks",
      "outputs": [
        {
          "internalType": "address",
          "name": "owner",
          "type": "address"
        },
        {
          "internalType": "uint256",
          "name": "amount",
          "type": "uint256"
        },
        {
          "internalType": "uint256",
          "name": "releaseTime",
          "type": "uint256"
        },
        {
          "internalType": "bool",
          "name": "reversible",
          "type": "bool"
        }
      ],
      "stateMutability": "view",
      "type": "function"
    },
    {
      "inputs": [
        {
          "internalType": "address",
          "name": "source",
          "type": "address"
        },
        {
          "internalType": "address",
          "name": "owner",
          "type": "address"
        },
        {
          "internalType": "uint256",
          "name": "amount",
          "type": "uint256"
        },
        {
          "internalType": "uint256",
          "name": "releaseTime",
          "type": "uint256"
        },
        {
          "internalType": "bool",
          "name": "reversible",
          "type": "bool"
        }
      ],
      "name": "transferAndLock",
      "outputs": [],
      "stateMutability": "nonpayable",
      "type": "function"
    },
    {
      "inputs": [
        {
          "internalType": "address",
          "name": "source",
          "type": "address"
        },
        {
          "internalType": "address[]",
          "name": "owners",
          "type": "address[]"
        },
        {
          "internalType": "uint256[]",
          "name": "amounts",
          "type": "uint256[]"
        },
        {
          "internalType": "uint256[]",
          "name": "releaseTimes",
          "type": "uint256[]"
        },
        {
          "internalType": "bool[]",
          "name": "reversibles",
          "type": "bool[]"
        }
      ],
      "name": "transferAndLockMultiple",
      "outputs": [],
      "stateMutability": "nonpayable",
      "type": "function"
    },
    {
      "inputs": [
        {
          "internalType": "address",
          "name": "newOwner",
          "type": "address"
        }
      ],
      "name": "transferOwnership",
      "outputs": [],
      "stateMutability": "nonpayable",
      "type": "function"
    },
    {
      "inputs": [
        {
          "internalType": "address",
          "name": "api3PoolAddress",
          "type": "address"
        }
      ],
      "name": "updateApi3Pool",
      "outputs": [],
      "stateMutability": "nonpayable",
      "type": "function"
    },
    {
      "inputs": [
        {
          "internalType": "uint256",
          "name": "indTimelock",
          "type": "uint256"
        },
        {
          "internalType": "address",
          "name": "destination",
          "type": "address"
        }
      ],
      "name": "withdraw",
      "outputs": [],
      "stateMutability": "nonpayable",
      "type": "function"
    },
    {
      "inputs": [
        {
          "internalType": "uint256",
          "name": "indTimelock",
          "type": "uint256"
        },
        {
          "internalType": "address",
          "name": "api3PoolAddress",
          "type": "address"
        },
        {
          "internalType": "address",
          "name": "beneficiary",
          "type": "address"
        }
      ],
      "name": "withdrawToPool",
      "outputs": [],
      "stateMutability": "nonpayable",
      "type": "function"
    }
  ],
  "address": "0x7B35bF1954a428B4C2fc04a253a2aa950CB96e6C",
  "args": [
    "0x6B3998970db68A9Cb7Ab240017C20D22F08A3cC1",
    "0x0c26bb185ad09c5a41e8fd127bf7b8c99e81e5dc"
  ],
  "solcInputHash": "0x6523b4e46a27dce5ddf759135a3d1fc9d8cdea1926bb74b06fa883356c9d4661",
  "bytecode": "0x60a060405260006003553480156200001657600080fd5b5060405162002f2638038062002f26833981810160405260408110156200003c57600080fd5b8101908080519060200190929190805190602001909291905050506000620000696200015760201b60201c565b9050806000806101000a81548173ffffffffffffffffffffffffffffffffffffffff021916908373ffffffffffffffffffffffffffffffffffffffff1602179055508073ffffffffffffffffffffffffffffffffffffffff16600073ffffffffffffffffffffffffffffffffffffffff167f8be0079c531659141344cd1fd0a4f28419497f9722a3daafe3b4186f6b6457e060405160405180910390a3508173ffffffffffffffffffffffffffffffffffffffff1660808173ffffffffffffffffffffffffffffffffffffffff1660601b815250506200014f816200015f60201b60201c565b505062000375565b600033905090565b6200016f6200015760201b60201c565b73ffffffffffffffffffffffffffffffffffffffff1660008054906101000a900473ffffffffffffffffffffffffffffffffffffffff1673ffffffffffffffffffffffffffffffffffffffff161462000230576040517f08c379a00000000000000000000000000000000000000000000000000000000081526004018080602001828103825260208152602001807f4f776e61626c653a2063616c6c6572206973206e6f7420746865206f776e657281525060200191505060405180910390fd5b600073ffffffffffffffffffffffffffffffffffffffff168173ffffffffffffffffffffffffffffffffffffffff161415620002b8576040517f08c379a000000000000000000000000000000000000000000000000000000000815260040180806020018281038252602681526020018062002f006026913960400191505060405180910390fd5b8073ffffffffffffffffffffffffffffffffffffffff1660008054906101000a900473ffffffffffffffffffffffffffffffffffffffff1673ffffffffffffffffffffffffffffffffffffffff167f8be0079c531659141344cd1fd0a4f28419497f9722a3daafe3b4186f6b6457e060405160405180910390a3806000806101000a81548173ffffffffffffffffffffffffffffffffffffffff021916908373ffffffffffffffffffffffffffffffffffffffff16021790555050565b60805160601c612b59620003a760003980610bd352806111645280611b2a5280611cfd528061282a5250612b596000f3fe608060405234801561001057600080fd5b50600436106100ff5760003560e01c80636fe2a2d711610097578063ac557fcd11610066578063ac557fcd146105a6578063ec306c601461073e578063f2fde38b1461075c578063f9996a7e146107a0576100ff565b80636fe2a2d7146103fd578063715018a6146104315780638da5cb5b1461043b57806390380dcf1461046f576100ff565b806321d597b1116100d357806321d597b11461027e578063355efbed1461031757806356dba5ce1461035b578063613d517d146103c9576100ff565b8062f714ce146101045780630d7e149f146101525780630d99afd2146101c157806310b184381461020f575b600080fd5b6101506004803603604081101561011a57600080fd5b8101908080359060200190929190803573ffffffffffffffffffffffffffffffffffffffff169060200190929190505050610824565b005b61017e6004803603602081101561016857600080fd5b8101908080359060200190929190505050610d1a565b604051808573ffffffffffffffffffffffffffffffffffffffff168152602001848152602001838152602001821515815260200194505050505060405180910390f35b61020d600480360360408110156101d757600080fd5b8101908080359060200190929190803573ffffffffffffffffffffffffffffffffffffffff169060200190929190505050610d77565b005b61023b6004803603602081101561022557600080fd5b81019080803590602001909291905050506112ab565b604051808573ffffffffffffffffffffffffffffffffffffffff168152602001848152602001838152602001821515815260200194505050505060405180910390f35b6103156004803603604081101561029457600080fd5b81019080803590602001906401000000008111156102b157600080fd5b8201836020820111156102c357600080fd5b803590602001918460208302840111640100000000831117156102e557600080fd5b9091929391929390803573ffffffffffffffffffffffffffffffffffffffff169060200190929190505050611392565b005b6103596004803603602081101561032d57600080fd5b81019080803573ffffffffffffffffffffffffffffffffffffffff169060200190929190505050611513565b005b6103c76004803603606081101561037157600080fd5b8101908080359060200190929190803573ffffffffffffffffffffffffffffffffffffffff169060200190929190803573ffffffffffffffffffffffffffffffffffffffff16906020019092919050505061166c565b005b6103d1611cfb565b604051808273ffffffffffffffffffffffffffffffffffffffff16815260200191505060405180910390f35b610405611d1f565b604051808273ffffffffffffffffffffffffffffffffffffffff16815260200191505060405180910390f35b610439611d45565b005b610443611ecb565b604051808273ffffffffffffffffffffffffffffffffffffffff16815260200191505060405180910390f35b610477611ef4565b6040518080602001806020018060200180602001858103855289818151815260200191508051906020019060200280838360005b838110156104c65780820151818401526020810190506104ab565b50505050905001858103845288818151815260200191508051906020019060200280838360005b838110156105085780820151818401526020810190506104ed565b50505050905001858103835287818151815260200191508051906020019060200280838360005b8381101561054a57808201518184015260208101905061052f565b50505050905001858103825286818151815260200191508051906020019060200280838360005b8381101561058c578082015181840152602081019050610571565b505050509050019850505050505050505060405180910390f35b61073c600480360360a08110156105bc57600080fd5b81019080803573ffffffffffffffffffffffffffffffffffffffff169060200190929190803590602001906401000000008111156105f957600080fd5b82018360208201111561060b57600080fd5b8035906020019184602083028401116401000000008311171561062d57600080fd5b90919293919293908035906020019064010000000081111561064e57600080fd5b82018360208201111561066057600080fd5b8035906020019184602083028401116401000000008311171561068257600080fd5b9091929391929390803590602001906401000000008111156106a357600080fd5b8201836020820111156106b557600080fd5b803590602001918460208302840111640100000000831117156106d757600080fd5b9091929391929390803590602001906401000000008111156106f857600080fd5b82018360208201111561070a57600080fd5b8035906020019184602083028401116401000000008311171561072c57600080fd5b9091929391929390505050612134565b005b61074661238c565b6040518082815260200191505060405180910390f35b61079e6004803603602081101561077257600080fd5b81019080803573ffffffffffffffffffffffffffffffffffffffff169060200190929190505050612392565b005b610822600480360360a08110156107b657600080fd5b81019080803573ffffffffffffffffffffffffffffffffffffffff169060200190929190803573ffffffffffffffffffffffffffffffffffffffff169060200190929190803590602001909291908035906020019092919080351515906020019092919050505061259d565b005b81600354811061089c576040517f08c379a00000000000000000000000000000000000000000000000000000000081526004018080602001828103825260178152602001807f4e6f20737563682074696d656c6f636b2065786973747300000000000000000081525060200191505060405180910390fd5b81600073ffffffffffffffffffffffffffffffffffffffff168173ffffffffffffffffffffffffffffffffffffffff161415610940576040517f08c379a000000000000000000000000000000000000000000000000000000000815260040180806020018281038252601c8152602001807f43616e6e6f7420776974686472617720746f206164647265737320300000000081525060200191505060405180910390fd5b610948612a1b565b600260008681526020019081526020016000206040518060800160405290816000820160009054906101000a900473ffffffffffffffffffffffffffffffffffffffff1673ffffffffffffffffffffffffffffffffffffffff1673ffffffffffffffffffffffffffffffffffffffff16815260200160018201548152602001600282015481526020016003820160009054906101000a900460ff1615151515815250509050600081602001511415610a68576040517f08c379a000000000000000000000000000000000000000000000000000000000815260040180806020018281038252601d8152602001807f54696d656c6f636b20697320616c72656164792077697468647261776e00000081525060200191505060405180910390fd5b806000015173ffffffffffffffffffffffffffffffffffffffff163373ffffffffffffffffffffffffffffffffffffffff1614610af0576040517f08c379a0000000000000000000000000000000000000000000000000000000008152600401808060200182810382526033815260200180612af16033913960400191505060405180910390fd5b80604001514211610b69576040517f08c379a000000000000000000000000000000000000000000000000000000000815260040180806020018281038252601c8152602001807f54696d656c6f636b20686173206e6f74206d617475726564207965740000000081525060200191505060405180910390fd5b6002600086815260200190815260200160002060010160009055847f8c7cdad0d12a8db3e23561b42da6f10c8137914c97beff202213a410e1f520a385604051808273ffffffffffffffffffffffffffffffffffffffff16815260200191505060405180910390a27f000000000000000000000000000000000000000000000000000000000000000073ffffffffffffffffffffffffffffffffffffffff1663a9059cbb8583602001516040518363ffffffff1660e01b8152600401808373ffffffffffffffffffffffffffffffffffffffff16815260200182815260200192505050602060405180830381600087803b158015610c6657600080fd5b505af1158015610c7a573d6000803e3d6000fd5b505050506040513d6020811015610c9057600080fd5b8101908080519060200190929190505050610d13576040517f08c379a000000000000000000000000000000000000000000000000000000000815260040180806020018281038252601a8152602001807f4150493320746f6b656e207472616e73666572206661696c656400000000000081525060200191505060405180910390fd5b5050505050565b60026020528060005260406000206000915090508060000160009054906101000a900473ffffffffffffffffffffffffffffffffffffffff16908060010154908060020154908060030160009054906101000a900460ff16905084565b610d7f61298b565b73ffffffffffffffffffffffffffffffffffffffff1660008054906101000a900473ffffffffffffffffffffffffffffffffffffffff1673ffffffffffffffffffffffffffffffffffffffff1614610e3f576040517f08c379a00000000000000000000000000000000000000000000000000000000081526004018080602001828103825260208152602001807f4f776e61626c653a2063616c6c6572206973206e6f7420746865206f776e657281525060200191505060405180910390fd5b816003548110610eb7576040517f08c379a00000000000000000000000000000000000000000000000000000000081526004018080602001828103825260178152602001807f4e6f20737563682074696d656c6f636b2065786973747300000000000000000081525060200191505060405180910390fd5b81600073ffffffffffffffffffffffffffffffffffffffff168173ffffffffffffffffffffffffffffffffffffffff161415610f5b576040517f08c379a000000000000000000000000000000000000000000000000000000000815260040180806020018281038252601c8152602001807f43616e6e6f7420776974686472617720746f206164647265737320300000000081525060200191505060405180910390fd5b610f63612a1b565b600260008681526020019081526020016000206040518060800160405290816000820160009054906101000a900473ffffffffffffffffffffffffffffffffffffffff1673ffffffffffffffffffffffffffffffffffffffff1673ffffffffffffffffffffffffffffffffffffffff16815260200160018201548152602001600282015481526020016003820160009054906101000a900460ff1615151515815250509050806060015161107f576040517f08c379a000000000000000000000000000000000000000000000000000000000815260040180806020018281038252601a8152602001807f54696d656c6f636b206973206e6f742072657665727369626c6500000000000081525060200191505060405180910390fd5b6000816020015114156110fa576040517f08c379a000000000000000000000000000000000000000000000000000000000815260040180806020018281038252601d8152602001807f54696d656c6f636b20697320616c72656164792077697468647261776e00000081525060200191505060405180910390fd5b6002600086815260200190815260200160002060010160009055847f2a6815a0290e644ced00dbc993398130aab093f7dbf5f71bcb90ccfce3be95e685604051808273ffffffffffffffffffffffffffffffffffffffff16815260200191505060405180910390a27f000000000000000000000000000000000000000000000000000000000000000073ffffffffffffffffffffffffffffffffffffffff1663a9059cbb8583602001516040518363ffffffff1660e01b8152600401808373ffffffffffffffffffffffffffffffffffffffff16815260200182815260200192505050602060405180830381600087803b1580156111f757600080fd5b505af115801561120b573d6000803e3d6000fd5b505050506040513d602081101561122157600080fd5b81019080805190602001909291905050506112a4576040517f08c379a000000000000000000000000000000000000000000000000000000000815260040180806020018281038252601a8152602001807f4150493320746f6b656e207472616e73666572206661696c656400000000000081525060200191505060405180910390fd5b5050505050565b600080600080846003548110611329576040517f08c379a00000000000000000000000000000000000000000000000000000000081526004018080602001828103825260178152602001807f4e6f20737563682074696d656c6f636b2065786973747300000000000000000081525060200191505060405180910390fd5b60006002600088815260200190815260200160002090508060000160009054906101000a900473ffffffffffffffffffffffffffffffffffffffff16955080600101549450806002015493508060030160009054906101000a900460ff16925050509193509193565b61139a61298b565b73ffffffffffffffffffffffffffffffffffffffff1660008054906101000a900473ffffffffffffffffffffffffffffffffffffffff1673ffffffffffffffffffffffffffffffffffffffff161461145a576040517f08c379a00000000000000000000000000000000000000000000000000000000081526004018080602001828103825260208152602001807f4f776e61626c653a2063616c6c6572206973206e6f7420746865206f776e657281525060200191505060405180910390fd5b82829050601e8111156114d5576040517f08c379a000000000000000000000000000000000000000000000000000000000815260040180806020018281038252601d8152602001807f506172616d657465727320617265206c6f6e676572207468616e20333000000081525060200191505060405180910390fd5b60005b8484905081101561150c576114ff8585838181106114f257fe5b9050602002013584610d77565b80806001019150506114d8565b5050505050565b61151b61298b565b73ffffffffffffffffffffffffffffffffffffffff1660008054906101000a900473ffffffffffffffffffffffffffffffffffffffff1673ffffffffffffffffffffffffffffffffffffffff16146115db576040517f08c379a00000000000000000000000000000000000000000000000000000000081526004018080602001828103825260208152602001807f4f776e61626c653a2063616c6c6572206973206e6f7420746865206f776e657281525060200191505060405180910390fd5b80600160006101000a81548173ffffffffffffffffffffffffffffffffffffffff021916908373ffffffffffffffffffffffffffffffffffffffff1602179055507f9758fe2c5611eaaf02f90cf70038ecb1e23f3d218aed0b239a67c393d142767581604051808273ffffffffffffffffffffffffffffffffffffffff16815260200191505060405180910390a150565b8260035481106116e4576040517f08c379a00000000000000000000000000000000000000000000000000000000081526004018080602001828103825260178152602001807f4e6f20737563682074696d656c6f636b2065786973747300000000000000000081525060200191505060405180910390fd5b600073ffffffffffffffffffffffffffffffffffffffff168273ffffffffffffffffffffffffffffffffffffffff16141561176a576040517f08c379a0000000000000000000000000000000000000000000000000000000008152600401808060200182810382526024815260200180612a5c6024913960400191505060405180910390fd5b600073ffffffffffffffffffffffffffffffffffffffff16600160009054906101000a900473ffffffffffffffffffffffffffffffffffffffff1673ffffffffffffffffffffffffffffffffffffffff16141561182f576040517f08c379a00000000000000000000000000000000000000000000000000000000081526004018080602001828103825260158152602001807f4150493320706f6f6c206e6f742073657420796574000000000000000000000081525060200191505060405180910390fd5b8273ffffffffffffffffffffffffffffffffffffffff16600160009054906101000a900473ffffffffffffffffffffffffffffffffffffffff1673ffffffffffffffffffffffffffffffffffffffff16146118f2576040517f08c379a00000000000000000000000000000000000000000000000000000000081526004018080602001828103825260208152602001807f4150493320706f6f6c2061646472657373657320646f206e6f74206d6174636881525060200191505060405180910390fd5b6118fa612a1b565b600260008681526020019081526020016000206040518060800160405290816000820160009054906101000a900473ffffffffffffffffffffffffffffffffffffffff1673ffffffffffffffffffffffffffffffffffffffff1673ffffffffffffffffffffffffffffffffffffffff16815260200160018201548152602001600282015481526020016003820160009054906101000a900460ff1615151515815250509050600081602001511415611a1a576040517f08c379a000000000000000000000000000000000000000000000000000000000815260040180806020018281038252601d8152602001807f54696d656c6f636b20697320616c72656164792077697468647261776e00000081525060200191505060405180910390fd5b806000015173ffffffffffffffffffffffffffffffffffffffff163373ffffffffffffffffffffffffffffffffffffffff1614611aa2576040517f08c379a0000000000000000000000000000000000000000000000000000000008152600401808060200182810382526033815260200180612af16033913960400191505060405180910390fd5b6002600086815260200190815260200160002060010160009055847f81a6837dbf6f48671275432a84a0d9b444758a932923821086ae81f7211100ee8585604051808373ffffffffffffffffffffffffffffffffffffffff1681526020018273ffffffffffffffffffffffffffffffffffffffff1681526020019250505060405180910390a27f000000000000000000000000000000000000000000000000000000000000000073ffffffffffffffffffffffffffffffffffffffff1663095ea7b3600160009054906101000a900473ffffffffffffffffffffffffffffffffffffffff1683602001516040518363ffffffff1660e01b8152600401808373ffffffffffffffffffffffffffffffffffffffff16815260200182815260200192505050602060405180830381600087803b158015611bdf57600080fd5b505af1158015611bf3573d6000803e3d6000fd5b505050506040513d6020811015611c0957600080fd5b810190808051906020019092919050505050600160009054906101000a900473ffffffffffffffffffffffffffffffffffffffff1673ffffffffffffffffffffffffffffffffffffffff1663248335883083602001518685604001516040518563ffffffff1660e01b8152600401808573ffffffffffffffffffffffffffffffffffffffff1681526020018481526020018373ffffffffffffffffffffffffffffffffffffffff168152602001828152602001945050505050600060405180830381600087803b158015611cdc57600080fd5b505af1158015611cf0573d6000803e3d6000fd5b505050505050505050565b7f000000000000000000000000000000000000000000000000000000000000000081565b600160009054906101000a900473ffffffffffffffffffffffffffffffffffffffff1681565b611d4d61298b565b73ffffffffffffffffffffffffffffffffffffffff1660008054906101000a900473ffffffffffffffffffffffffffffffffffffffff1673ffffffffffffffffffffffffffffffffffffffff1614611e0d576040517f08c379a00000000000000000000000000000000000000000000000000000000081526004018080602001828103825260208152602001807f4f776e61626c653a2063616c6c6572206973206e6f7420746865206f776e657281525060200191505060405180910390fd5b600073ffffffffffffffffffffffffffffffffffffffff1660008054906101000a900473ffffffffffffffffffffffffffffffffffffffff1673ffffffffffffffffffffffffffffffffffffffff167f8be0079c531659141344cd1fd0a4f28419497f9722a3daafe3b4186f6b6457e060405160405180910390a360008060006101000a81548173ffffffffffffffffffffffffffffffffffffffff021916908373ffffffffffffffffffffffffffffffffffffffff160217905550565b60008060009054906101000a900473ffffffffffffffffffffffffffffffffffffffff16905090565b60608060608060035467ffffffffffffffff81118015611f1357600080fd5b50604051908082528060200260200182016040528015611f425781602001602082028036833780820191505090505b50935060035467ffffffffffffffff81118015611f5e57600080fd5b50604051908082528060200260200182016040528015611f8d5781602001602082028036833780820191505090505b50925060035467ffffffffffffffff81118015611fa957600080fd5b50604051908082528060200260200182016040528015611fd85781602001602082028036833780820191505090505b50915060035467ffffffffffffffff81118015611ff457600080fd5b506040519080825280602002602001820160405280156120235781602001602082028036833780820191505090505b50905060005b60035481101561212d5760006002600083815260200190815260200160002090508060000160009054906101000a900473ffffffffffffffffffffffffffffffffffffffff1686838151811061207b57fe5b602002602001019073ffffffffffffffffffffffffffffffffffffffff16908173ffffffffffffffffffffffffffffffffffffffff168152505080600101548583815181106120c657fe5b60200260200101818152505080600201548483815181106120e357fe5b6020026020010181815250508060030160009054906101000a900460ff1683838151811061210d57fe5b602002602001019015159081151581525050508080600101915050612029565b5090919293565b61213c61298b565b73ffffffffffffffffffffffffffffffffffffffff1660008054906101000a900473ffffffffffffffffffffffffffffffffffffffff1673ffffffffffffffffffffffffffffffffffffffff16146121fc576040517f08c379a00000000000000000000000000000000000000000000000000000000081526004018080602001828103825260208152602001807f4f776e61626c653a2063616c6c6572206973206e6f7420746865206f776e657281525060200191505060405180910390fd5b87879050601e811115612277576040517f08c379a000000000000000000000000000000000000000000000000000000000815260040180806020018281038252601d8152602001807f506172616d657465727320617265206c6f6e676572207468616e20333000000081525060200191505060405180910390fd5b868690508989905014801561229157508484905089899050145b80156122a257508282905089899050145b6122f7576040517f08c379a0000000000000000000000000000000000000000000000000000000008152600401808060200182810382526022815260200180612acf6022913960400191505060405180910390fd5b60005b8989905081101561237f576123728b8b8b8481811061231557fe5b9050602002013573ffffffffffffffffffffffffffffffffffffffff168a8a8581811061233e57fe5b9050602002013589898681811061235157fe5b9050602002013588888781811061236457fe5b90506020020135151561259d565b80806001019150506122fa565b5050505050505050505050565b60035481565b61239a61298b565b73ffffffffffffffffffffffffffffffffffffffff1660008054906101000a900473ffffffffffffffffffffffffffffffffffffffff1673ffffffffffffffffffffffffffffffffffffffff161461245a576040517f08c379a00000000000000000000000000000000000000000000000000000000081526004018080602001828103825260208152602001807f4f776e61626c653a2063616c6c6572206973206e6f7420746865206f776e657281525060200191505060405180910390fd5b600073ffffffffffffffffffffffffffffffffffffffff168173ffffffffffffffffffffffffffffffffffffffff1614156124e0576040517f08c379a0000000000000000000000000000000000000000000000000000000008152600401808060200182810382526026815260200180612a806026913960400191505060405180910390fd5b8073ffffffffffffffffffffffffffffffffffffffff1660008054906101000a900473ffffffffffffffffffffffffffffffffffffffff1673ffffffffffffffffffffffffffffffffffffffff167f8be0079c531659141344cd1fd0a4f28419497f9722a3daafe3b4186f6b6457e060405160405180910390a3806000806101000a81548173ffffffffffffffffffffffffffffffffffffffff021916908373ffffffffffffffffffffffffffffffffffffffff16021790555050565b6125a561298b565b73ffffffffffffffffffffffffffffffffffffffff1660008054906101000a900473ffffffffffffffffffffffffffffffffffffffff1673ffffffffffffffffffffffffffffffffffffffff1614612665576040517f08c379a00000000000000000000000000000000000000000000000000000000081526004018080602001828103825260208152602001807f4f776e61626c653a2063616c6c6572206973206e6f7420746865206f776e657281525060200191505060405180910390fd5b60008314156126bf576040517f08c379a0000000000000000000000000000000000000000000000000000000008152600401808060200182810382526029815260200180612aa66029913960400191505060405180910390fd5b60405180608001604052808573ffffffffffffffffffffffffffffffffffffffff16815260200184815260200183815260200182151581525060026000600354815260200190815260200160002060008201518160000160006101000a81548173ffffffffffffffffffffffffffffffffffffffff021916908373ffffffffffffffffffffffffffffffffffffffff160217905550602082015181600101556040820151816002015560608201518160030160006101000a81548160ff0219169083151502179055509050508373ffffffffffffffffffffffffffffffffffffffff166003547fd6dee15d3b10a38d2d32a8e3c80146329a8f14e38e4694083b2be45a27ca854187868686604051808573ffffffffffffffffffffffffffffffffffffffff168152602001848152602001838152602001821515815260200194505050505060405180910390a3612822600160035461299390919063ffffffff16565b6003819055507f000000000000000000000000000000000000000000000000000000000000000073ffffffffffffffffffffffffffffffffffffffff166323b872dd8630866040518463ffffffff1660e01b8152600401808473ffffffffffffffffffffffffffffffffffffffff1681526020018373ffffffffffffffffffffffffffffffffffffffff1681526020018281526020019350505050602060405180830381600087803b1580156128d757600080fd5b505af11580156128eb573d6000803e3d6000fd5b505050506040513d602081101561290157600080fd5b8101908080519060200190929190505050612984576040517f08c379a000000000000000000000000000000000000000000000000000000000815260040180806020018281038252601e8152602001807f4150493320746f6b656e207472616e7366657246726f6d206661696c6564000081525060200191505060405180910390fd5b5050505050565b600033905090565b600080828401905083811015612a11576040517f08c379a000000000000000000000000000000000000000000000000000000000815260040180806020018281038252601b8152602001807f536166654d6174683a206164646974696f6e206f766572666c6f77000000000081525060200191505060405180910390fd5b8091505092915050565b6040518060800160405280600073ffffffffffffffffffffffffffffffffffffffff1681526020016000815260200160008152602001600015158152509056fe43616e6e6f7420776974686472617720746f2062656e65666974206164647265737320304f776e61626c653a206e6577206f776e657220697320746865207a65726f20616464726573735472616e7366657272656420616e64206c6f636b656420616d6f756e742063616e6e6f7420626520304c656e67746873206f6620706172616d657465727320646f206e6f74206d617463684f6e6c7920746865206f776e6572206f66207468652074696d656c6f636b2063616e2077697468647261772066726f6d206974a2646970667358221220132cc8911dff2214abed27cc82c81411595859c21fbb22590c943a9480fa0eca64736f6c634300060c00334f776e61626c653a206e6577206f776e657220697320746865207a65726f2061646472657373",
  "devdoc": {
    "kind": "dev",
    "methods": {
      "constructor": {
        "details": "api3Pool is not initialized in the constructor because this contract will be deployed before api3Pool",
        "params": {
          "api3TokenAddress": "Address of the API3 token contract",
          "timelockManagerOwner": "Address that will receive the ownership of the TimelockManager contract (i.e., the API3 DAO)"
        }
      },
      "getTimelock(uint256)": {
        "returns": {
          "amount": "Amount of tokens",
          "owner": "Owner of tokens",
          "releaseTime": "Release time",
          "reversible": "Flag indicating if the timelock is reversible"
        }
      },
      "getTimelocks()": {
        "details": "This is a convenience method for the user to be able to retrieve all timelocks with a single call and loop through them to find the timelocks they are looking for. In case timelocks grow too large and this method starts reverting (not expected), the user can go through the events emitted during locking, or even go through individual indices using getTimelock().",
        "returns": {
          "amounts": "Amounts of tokens",
          "owners": "Owners of tokens",
          "releaseTimes": "Release times",
          "reversibles": "Array of flags indicating if the timelocks are reversible"
        }
      },
      "owner()": {
        "details": "Returns the address of the current owner."
      },
      "renounceOwnership()": {
        "details": "Leaves the contract without owner. It will not be possible to call `onlyOwner` functions anymore. Can only be called by the current owner. NOTE: Renouncing ownership will leave the contract without an owner, thereby removing any functionality that is only available to the owner."
      },
      "reverseTimelock(uint256,address)": {
        "details": "The reversible field of the timelock must be true",
        "params": {
          "destination": "Address that will receive the tokens",
          "indTimelock": "Index of the timelock to be reversed"
        }
      },
      "reverseTimelockMultiple(uint256[],address)": {
        "details": "destination is expected to be a single address, i.e., the DAO",
        "params": {
          "destination": "Address that will receive the tokens",
          "indTimelocks": "Array of indices of timelocks to be reversed"
        }
      },
      "transferAndLock(address,address,uint256,uint256,bool)": {
        "details": "source needs to approve() this contract to transfer amount number of tokens beforehand. This method is put behind onlyOwner to prevent third parties from spamming timelocks (not an actual issue but it would be inconvenient to sift through).",
        "params": {
          "amount": "Amount of tokens",
          "owner": "Owner of tokens",
          "releaseTime": "Release time",
          "reversible": "Flag indicating if the timelock is reversible",
          "source": "Source of tokens"
        }
      },
      "transferAndLockMultiple(address,address[],uint256[],uint256[],bool[])": {
        "details": "source is expected to be a single address, i.e., the DAO",
        "params": {
          "amounts": "Array of amounts of tokens",
          "owners": "Array of owners of tokens",
          "releaseTimes": "Array of release times",
          "reversibles": "Array of flags indicating if the timelocks are reversible",
          "source": "Source of tokens"
        }
      },
      "transferOwnership(address)": {
        "details": "Transfers ownership of the contract to a new account (`newOwner`). Can only be called by the current owner."
      },
      "updateApi3Pool(address)": {
        "params": {
          "api3PoolAddress": "Address of the API3 pool contract"
        }
      },
      "withdraw(uint256,address)": {
        "params": {
          "destination": "Address that will receive the tokens",
          "indTimelock": "Index of the timelock to be withdrawn from"
        }
      },
      "withdrawToPool(uint256,address,address)": {
        "details": "We ask the user to provide api3PoolAddress as a form of verification, i.e., the user confirms that the API3 pool address set at this contract is correct",
        "params": {
          "api3PoolAddress": "Address of the API3 pool contract",
          "beneficiary": "Address that the tokens will be deposited to the pool contract on behalf of",
          "indTimelock": "Index of the timelock to be withdrawn from"
        }
      }
    },
    "title": "Contract that timelocks API3 tokens sent to it until the vesting period is over or the staking pool is operational",
    "version": 1
  },
  "userdoc": {
    "kind": "user",
    "methods": {
      "getTimelock(uint256)": {
        "notice": "Returns the details of a timelock"
      },
      "getTimelocks()": {
        "notice": "Returns the details of all timelocks"
      },
      "reverseTimelock(uint256,address)": {
        "notice": "Cancels the timelock and sends the locked tokens to destination"
      },
      "reverseTimelockMultiple(uint256[],address)": {
        "notice": "Convenience function that calls reverseTimelock() multiple times"
      },
      "transferAndLock(address,address,uint256,uint256,bool)": {
        "notice": "Transfers amount number of API3 tokens to this contract to be received by their owner after releaseTime"
      },
      "transferAndLockMultiple(address,address[],uint256[],uint256[],bool[])": {
        "notice": "Convenience function that calls transferAndLock() multiple times"
      },
      "updateApi3Pool(address)": {
        "notice": "Allows the owner (i.e., API3 DAO) to set the address of api3Pool, which token owners can transfer their tokens to"
      },
      "withdraw(uint256,address)": {
        "notice": "Used by the owner to withdraw tokens kept by a specific timelock"
      },
      "withdrawToPool(uint256,address,address)": {
        "notice": "Used by the owner to withdraw their tokens kept by a specific timelock to the API3 pool"
      }
    },
    "notice": "The owner of TimelockManager (i.e., API3 DAO) can send tokens to TimelockManager to be timelocked until releaseTime. After releaseTime, the respective owner can withdraw the tokens. Alternatively, if the owner of this contract sets api3Pool, the token owners can transfer their tokens from TimelockManager to api3Pool before releaseTime. These tokens will be not be withdrawable from api3Pool until their respective releaseTimes. API3 DAO can also reverse timelocks (i.e., annul them) and send the tokens to a destination of its choice. Note that timelocks can be specified not to be reversible.",
    "version": 1
  },
  "storageLayout": {
    "storage": [
      {
        "astId": 563,
        "contract": "contracts/TimelockManager.sol:TimelockManager",
        "label": "_owner",
        "offset": 0,
        "slot": "0",
        "type": "t_address"
      },
      {
        "astId": 966,
        "contract": "contracts/TimelockManager.sol:TimelockManager",
        "label": "api3Pool",
        "offset": 0,
        "slot": "1",
        "type": "t_contract(IApi3Pool)5"
      },
      {
        "astId": 970,
        "contract": "contracts/TimelockManager.sol:TimelockManager",
        "label": "timelocks",
        "offset": 0,
        "slot": "2",
        "type": "t_mapping(t_uint256,t_struct(Timelock)962_storage)"
      },
      {
        "astId": 973,
        "contract": "contracts/TimelockManager.sol:TimelockManager",
        "label": "noTimelocks",
        "offset": 0,
        "slot": "3",
        "type": "t_uint256"
      }
    ],
    "types": {
      "t_address": {
        "encoding": "inplace",
        "label": "address",
        "numberOfBytes": "20"
      },
      "t_bool": {
        "encoding": "inplace",
        "label": "bool",
        "numberOfBytes": "1"
      },
      "t_contract(IApi3Pool)5": {
        "encoding": "inplace",
        "label": "contract IApi3Pool",
        "numberOfBytes": "20"
      },
      "t_mapping(t_uint256,t_struct(Timelock)962_storage)": {
        "encoding": "mapping",
        "key": "t_uint256",
        "label": "mapping(uint256 => struct TimelockManager.Timelock)",
        "numberOfBytes": "32",
        "value": "t_struct(Timelock)962_storage"
      },
      "t_struct(Timelock)962_storage": {
        "encoding": "inplace",
        "label": "struct TimelockManager.Timelock",
        "members": [
          {
            "astId": 955,
            "contract": "contracts/TimelockManager.sol:TimelockManager",
            "label": "owner",
            "offset": 0,
            "slot": "0",
            "type": "t_address"
          },
          {
            "astId": 957,
            "contract": "contracts/TimelockManager.sol:TimelockManager",
            "label": "amount",
            "offset": 0,
            "slot": "1",
            "type": "t_uint256"
          },
          {
            "astId": 959,
            "contract": "contracts/TimelockManager.sol:TimelockManager",
            "label": "releaseTime",
            "offset": 0,
            "slot": "2",
            "type": "t_uint256"
          },
          {
            "astId": 961,
            "contract": "contracts/TimelockManager.sol:TimelockManager",
            "label": "reversible",
            "offset": 0,
            "slot": "3",
            "type": "t_bool"
          }
        ],
        "numberOfBytes": "128"
      },
      "t_uint256": {
        "encoding": "inplace",
        "label": "uint256",
        "numberOfBytes": "32"
      }
    }
  },
  "gasEstimates": {
    "creation": {
      "codeDepositCost": "2219400",
      "executionCost": "infinite",
      "totalCost": "infinite"
    },
    "external": {
      "api3Pool()": "1070",
      "api3Token()": "infinite",
      "getTimelock(uint256)": "4716",
      "getTimelocks()": "infinite",
      "noTimelocks()": "1049",
      "owner()": "1122",
      "renounceOwnership()": "24336",
      "reverseTimelock(uint256,address)": "infinite",
      "reverseTimelockMultiple(uint256[],address)": "infinite",
      "timelocks(uint256)": "3803",
      "transferAndLock(address,address,uint256,uint256,bool)": "infinite",
      "transferAndLockMultiple(address,address[],uint256[],uint256[],bool[])": "infinite",
      "transferOwnership(address)": "infinite",
      "updateApi3Pool(address)": "23121",
      "withdraw(uint256,address)": "infinite",
      "withdrawToPool(uint256,address,address)": "infinite"
    }
  }
}