{
  "address": "0x2176D77Fd2D445DA01E004e93ac040eFc8ef805A",
  "abi": [
    {
      "inputs": [
        {
          "internalType": "address",
          "name": "api3TokenAddress",
          "type": "address"
        },
        {
          "internalType": "address",
          "name": "timelockManagerOwner",
          "type": "address"
        }
      ],
      "stateMutability": "nonpayable",
      "type": "constructor"
    },
    {
      "anonymous": false,
      "inputs": [
        {
          "indexed": false,
          "internalType": "address",
          "name": "api3PoolAddress",
          "type": "address"
        }
      ],
      "name": "Api3PoolUpdated",
      "type": "event"
    },
    {
      "anonymous": false,
      "inputs": [
        {
          "indexed": true,
          "internalType": "address",
          "name": "previousOwner",
          "type": "address"
        },
        {
          "indexed": true,
          "internalType": "address",
          "name": "newOwner",
          "type": "address"
        }
      ],
      "name": "OwnershipTransferred",
      "type": "event"
    },
    {
      "anonymous": false,
      "inputs": [
        {
          "indexed": false,
          "internalType": "address",
          "name": "source",
          "type": "address"
        },
        {
          "indexed": true,
          "internalType": "address",
          "name": "recipient",
          "type": "address"
        },
        {
          "indexed": false,
          "internalType": "uint256",
          "name": "amount",
          "type": "uint256"
        },
        {
          "indexed": false,
          "internalType": "uint256",
          "name": "releaseStart",
          "type": "uint256"
        },
        {
          "indexed": false,
          "internalType": "uint256",
          "name": "releaseEnd",
          "type": "uint256"
        }
      ],
      "name": "TransferredAndLocked",
      "type": "event"
    },
    {
      "anonymous": false,
      "inputs": [
        {
          "indexed": true,
          "internalType": "address",
          "name": "recipient",
          "type": "address"
        },
        {
          "indexed": false,
          "internalType": "address",
          "name": "destination",
          "type": "address"
        }
      ],
      "name": "Withdrawn",
      "type": "event"
    },
    {
      "anonymous": false,
      "inputs": [
        {
          "indexed": true,
          "internalType": "address",
          "name": "recipient",
          "type": "address"
        },
        {
          "indexed": false,
          "internalType": "address",
          "name": "api3PoolAddress",
          "type": "address"
        },
        {
          "indexed": false,
          "internalType": "address",
          "name": "beneficiary",
          "type": "address"
        }
      ],
      "name": "WithdrawnToPool",
      "type": "event"
    },
    {
      "inputs": [],
      "name": "api3Pool",
      "outputs": [
        {
          "internalType": "contract IApi3Pool",
          "name": "",
          "type": "address"
        }
      ],
      "stateMutability": "view",
      "type": "function"
    },
    {
      "inputs": [],
      "name": "api3Token",
      "outputs": [
        {
          "internalType": "contract IApi3Token",
          "name": "",
          "type": "address"
        }
      ],
      "stateMutability": "view",
      "type": "function"
    },
    {
      "inputs": [
        {
          "internalType": "address",
          "name": "recipient",
          "type": "address"
        }
      ],
      "name": "getRemainingAmount",
      "outputs": [
        {
          "internalType": "uint256",
          "name": "remainingAmount",
          "type": "uint256"
        }
      ],
      "stateMutability": "view",
      "type": "function"
    },
    {
      "inputs": [
        {
          "internalType": "address",
          "name": "recipient",
          "type": "address"
        }
      ],
      "name": "getTimelock",
      "outputs": [
        {
          "internalType": "uint256",
          "name": "totalAmount",
          "type": "uint256"
        },
        {
          "internalType": "uint256",
          "name": "remainingAmount",
          "type": "uint256"
        },
        {
          "internalType": "uint256",
          "name": "releaseStart",
          "type": "uint256"
        },
        {
          "internalType": "uint256",
          "name": "releaseEnd",
          "type": "uint256"
        }
      ],
      "stateMutability": "view",
      "type": "function"
    },
    {
      "inputs": [
        {
          "internalType": "address",
          "name": "recipient",
          "type": "address"
        }
      ],
      "name": "getWithdrawable",
      "outputs": [
        {
          "internalType": "uint256",
          "name": "withdrawable",
          "type": "uint256"
        }
      ],
      "stateMutability": "view",
      "type": "function"
    },
    {
      "inputs": [],
      "name": "owner",
      "outputs": [
        {
          "internalType": "address",
          "name": "",
          "type": "address"
        }
      ],
      "stateMutability": "view",
      "type": "function"
    },
    {
      "inputs": [],
      "name": "renounceOwnership",
      "outputs": [],
      "stateMutability": "nonpayable",
      "type": "function"
    },
    {
      "inputs": [
        {
          "internalType": "address",
          "name": "",
          "type": "address"
        }
      ],
      "name": "timelocks",
      "outputs": [
        {
          "internalType": "uint256",
          "name": "totalAmount",
          "type": "uint256"
        },
        {
          "internalType": "uint256",
          "name": "remainingAmount",
          "type": "uint256"
        },
        {
          "internalType": "uint256",
          "name": "releaseStart",
          "type": "uint256"
        },
        {
          "internalType": "uint256",
          "name": "releaseEnd",
          "type": "uint256"
        }
      ],
      "stateMutability": "view",
      "type": "function"
    },
    {
      "inputs": [
        {
          "internalType": "address",
          "name": "source",
          "type": "address"
        },
        {
          "internalType": "address",
          "name": "recipient",
          "type": "address"
        },
        {
          "internalType": "uint256",
          "name": "amount",
          "type": "uint256"
        },
        {
          "internalType": "uint256",
          "name": "releaseStart",
          "type": "uint256"
        },
        {
          "internalType": "uint256",
          "name": "releaseEnd",
          "type": "uint256"
        }
      ],
      "name": "transferAndLock",
      "outputs": [],
      "stateMutability": "nonpayable",
      "type": "function"
    },
    {
      "inputs": [
        {
          "internalType": "address",
          "name": "source",
          "type": "address"
        },
        {
          "internalType": "address[]",
          "name": "recipients",
          "type": "address[]"
        },
        {
          "internalType": "uint256[]",
          "name": "amounts",
          "type": "uint256[]"
        },
        {
          "internalType": "uint256[]",
          "name": "releaseStarts",
          "type": "uint256[]"
        },
        {
          "internalType": "uint256[]",
          "name": "releaseEnds",
          "type": "uint256[]"
        }
      ],
      "name": "transferAndLockMultiple",
      "outputs": [],
      "stateMutability": "nonpayable",
      "type": "function"
    },
    {
      "inputs": [
        {
          "internalType": "address",
          "name": "newOwner",
          "type": "address"
        }
      ],
      "name": "transferOwnership",
      "outputs": [],
      "stateMutability": "nonpayable",
      "type": "function"
    },
    {
      "inputs": [
        {
          "internalType": "address",
          "name": "api3PoolAddress",
          "type": "address"
        }
      ],
      "name": "updateApi3Pool",
      "outputs": [],
      "stateMutability": "nonpayable",
      "type": "function"
    },
    {
      "inputs": [
        {
          "internalType": "address",
          "name": "destination",
          "type": "address"
        }
      ],
      "name": "withdraw",
      "outputs": [],
      "stateMutability": "nonpayable",
      "type": "function"
    },
    {
      "inputs": [
        {
          "internalType": "address",
          "name": "api3PoolAddress",
          "type": "address"
        },
        {
          "internalType": "address",
          "name": "beneficiary",
          "type": "address"
        }
      ],
      "name": "withdrawToPool",
      "outputs": [],
      "stateMutability": "nonpayable",
      "type": "function"
    }
  ],
  "transactionHash": "0x3c61cea232f49bfbda9f3b30bff231f072fcbf42f25045d0fd06d24ba3302f62",
  "args": [
    "0x8878C14cFC1233db8AeDc09d497b7fb95ba96fD4",
    "0x0c26bb185ad09c5a41e8fd127bf7b8c99e81e5dc"
  ],
  "solcInputHash": "0x3d10d3ca18eabe84017a6949b5821818d49ef66b0d1183129f7990a1dda4c7af",
  "bytecode": "0x60a06040523480156200001157600080fd5b506040516200281438038062002814833981810160405260408110156200003757600080fd5b8101908080519060200190929190805190602001909291905050506000620000646200015260201b60201c565b9050806000806101000a81548173ffffffffffffffffffffffffffffffffffffffff021916908373ffffffffffffffffffffffffffffffffffffffff1602179055508073ffffffffffffffffffffffffffffffffffffffff16600073ffffffffffffffffffffffffffffffffffffffff167f8be0079c531659141344cd1fd0a4f28419497f9722a3daafe3b4186f6b6457e060405160405180910390a3508173ffffffffffffffffffffffffffffffffffffffff1660808173ffffffffffffffffffffffffffffffffffffffff1660601b815250506200014a816200015a60201b60201c565b505062000370565b600033905090565b6200016a6200015260201b60201c565b73ffffffffffffffffffffffffffffffffffffffff1660008054906101000a900473ffffffffffffffffffffffffffffffffffffffff1673ffffffffffffffffffffffffffffffffffffffff16146200022b576040517f08c379a00000000000000000000000000000000000000000000000000000000081526004018080602001828103825260208152602001807f4f776e61626c653a2063616c6c6572206973206e6f7420746865206f776e657281525060200191505060405180910390fd5b600073ffffffffffffffffffffffffffffffffffffffff168173ffffffffffffffffffffffffffffffffffffffff161415620002b3576040517f08c379a0000000000000000000000000000000000000000000000000000000008152600401808060200182810382526026815260200180620027ee6026913960400191505060405180910390fd5b8073ffffffffffffffffffffffffffffffffffffffff1660008054906101000a900473ffffffffffffffffffffffffffffffffffffffff1673ffffffffffffffffffffffffffffffffffffffff167f8be0079c531659141344cd1fd0a4f28419497f9722a3daafe3b4186f6b6457e060405160405180910390a3806000806101000a81548173ffffffffffffffffffffffffffffffffffffffff021916908373ffffffffffffffffffffffffffffffffffffffff16021790555050565b60805160601c6124516200039d600039806109f15280610f39528061175f5280611af852506124516000f3fe608060405234801561001057600080fd5b50600436106100ea5760003560e01c8063613d517d1161008c5780638da5cb5b116100665780638da5cb5b1461052c578063bf1e799b14610560578063f2fde38b146105cd578063faf7eba614610611576100ea565b8063613d517d146104ba5780636fe2a2d7146104ee578063715018a614610522576100ea565b806332cc6ae6116100c857806332cc6ae614610242578063355efbed1461029a57806351cff8d9146102de5780635af6025314610322576100ea565b80631369a927146100ef57806324dcb3851461015c57806329765acf146101de575b600080fd5b6101316004803603602081101561010557600080fd5b81019080803573ffffffffffffffffffffffffffffffffffffffff169060200190929190505050610669565b6040518085815260200184815260200183815260200182815260200194505050505060405180910390f35b6101dc600480360360a081101561017257600080fd5b81019080803573ffffffffffffffffffffffffffffffffffffffff169060200190929190803573ffffffffffffffffffffffffffffffffffffffff169060200190929190803590602001909291908035906020019092919080359060200190929190505050610699565b005b610240600480360360408110156101f457600080fd5b81019080803573ffffffffffffffffffffffffffffffffffffffff169060200190929190803573ffffffffffffffffffffffffffffffffffffffff169060200190929190505050610b52565b005b6102846004803603602081101561025857600080fd5b81019080803573ffffffffffffffffffffffffffffffffffffffff1690602001909291905050506112ae565b6040518082815260200191505060405180910390f35b6102dc600480360360208110156102b057600080fd5b81019080803573ffffffffffffffffffffffffffffffffffffffff16906020019092919050505061133b565b005b610320600480360360208110156102f457600080fd5b81019080803573ffffffffffffffffffffffffffffffffffffffff169060200190929190505050611494565b005b6104b8600480360360a081101561033857600080fd5b81019080803573ffffffffffffffffffffffffffffffffffffffff1690602001909291908035906020019064010000000081111561037557600080fd5b82018360208201111561038757600080fd5b803590602001918460208302840111640100000000831117156103a957600080fd5b9091929391929390803590602001906401000000008111156103ca57600080fd5b8201836020820111156103dc57600080fd5b803590602001918460208302840111640100000000831117156103fe57600080fd5b90919293919293908035906020019064010000000081111561041f57600080fd5b82018360208201111561043157600080fd5b8035906020019184602083028401116401000000008311171561045357600080fd5b90919293919293908035906020019064010000000081111561047457600080fd5b82018360208201111561048657600080fd5b803590602001918460208302840111640100000000831117156104a857600080fd5b90919293919293905050506118a2565b005b6104c2611af6565b604051808273ffffffffffffffffffffffffffffffffffffffff16815260200191505060405180910390f35b6104f6611b1a565b604051808273ffffffffffffffffffffffffffffffffffffffff16815260200191505060405180910390f35b61052a611b40565b005b610534611cc6565b604051808273ffffffffffffffffffffffffffffffffffffffff16815260200191505060405180910390f35b6105a26004803603602081101561057657600080fd5b81019080803573ffffffffffffffffffffffffffffffffffffffff169060200190929190505050611cef565b6040518085815260200184815260200183815260200182815260200194505050505060405180910390f35b61060f600480360360208110156105e357600080fd5b81019080803573ffffffffffffffffffffffffffffffffffffffff169060200190929190505050611d5c565b005b6106536004803603602081101561062757600080fd5b81019080803573ffffffffffffffffffffffffffffffffffffffff169060200190929190505050611f67565b6040518082815260200191505060405180910390f35b60026020528060005260406000206000915090508060000154908060010154908060020154908060030154905084565b6106a1611fb3565b73ffffffffffffffffffffffffffffffffffffffff1660008054906101000a900473ffffffffffffffffffffffffffffffffffffffff1673ffffffffffffffffffffffffffffffffffffffff1614610761576040517f08c379a00000000000000000000000000000000000000000000000000000000081526004018080602001828103825260208152602001807f4f776e61626c653a2063616c6c6572206973206e6f7420746865206f776e657281525060200191505060405180910390fd5b6000600260008673ffffffffffffffffffffffffffffffffffffffff1673ffffffffffffffffffffffffffffffffffffffff1681526020019081526020016000206001015414610819576040517f08c379a000000000000000000000000000000000000000000000000000000000815260040180806020018281038252601e8152602001807f526563697069656e74206861732072656d61696e696e6720746f6b656e73000081525060200191505060405180910390fd5b6000831415610890576040517f08c379a00000000000000000000000000000000000000000000000000000000081526004018080602001828103825260128152602001807f416d6f756e742063616e6e6f742062652030000000000000000000000000000081525060200191505060405180910390fd5b8181116108e8576040517f08c379a000000000000000000000000000000000000000000000000000000000815260040180806020018281038252602d81526020018061235e602d913960400191505060405180910390fd5b604051806080016040528084815260200184815260200183815260200182815250600260008673ffffffffffffffffffffffffffffffffffffffff1673ffffffffffffffffffffffffffffffffffffffff168152602001908152602001600020600082015181600001556020820151816001015560408201518160020155606082015181600301559050508373ffffffffffffffffffffffffffffffffffffffff167fd1f652d80d5c06196c1cc9329a51edb16e16aa626e4a7715de03fb8a98547ef686858585604051808573ffffffffffffffffffffffffffffffffffffffff16815260200184815260200183815260200182815260200194505050505060405180910390a27f000000000000000000000000000000000000000000000000000000000000000073ffffffffffffffffffffffffffffffffffffffff166323b872dd8630866040518463ffffffff1660e01b8152600401808473ffffffffffffffffffffffffffffffffffffffff1681526020018373ffffffffffffffffffffffffffffffffffffffff1681526020018281526020019350505050602060405180830381600087803b158015610a9e57600080fd5b505af1158015610ab2573d6000803e3d6000fd5b505050506040513d6020811015610ac857600080fd5b8101908080519060200190929190505050610b4b576040517f08c379a000000000000000000000000000000000000000000000000000000000815260040180806020018281038252601e8152602001807f4150493320746f6b656e207472616e7366657246726f6d206661696c6564000081525060200191505060405180910390fd5b5050505050565b336000600260008373ffffffffffffffffffffffffffffffffffffffff1673ffffffffffffffffffffffffffffffffffffffff168152602001908152602001600020600101541415610bef576040517f08c379a00000000000000000000000000000000000000000000000000000000081526004018080602001828103825260288152602001806123b16028913960400191505060405180910390fd5b600073ffffffffffffffffffffffffffffffffffffffff168273ffffffffffffffffffffffffffffffffffffffff161415610c75576040517f08c379a000000000000000000000000000000000000000000000000000000000815260040180806020018281038252602481526020018061233a6024913960400191505060405180910390fd5b600073ffffffffffffffffffffffffffffffffffffffff16600160009054906101000a900473ffffffffffffffffffffffffffffffffffffffff1673ffffffffffffffffffffffffffffffffffffffff161415610d3a576040517f08c379a00000000000000000000000000000000000000000000000000000000081526004018080602001828103825260158152602001807f4150493320706f6f6c206e6f742073657420796574000000000000000000000081525060200191505060405180910390fd5b8273ffffffffffffffffffffffffffffffffffffffff16600160009054906101000a900473ffffffffffffffffffffffffffffffffffffffff1673ffffffffffffffffffffffffffffffffffffffff1614610dfd576040517f08c379a00000000000000000000000000000000000000000000000000000000081526004018080602001828103825260208152602001807f4150493320706f6f6c2061646472657373657320646f206e6f74206d6174636881525060200191505060405180910390fd5b60003390506000610e0d826112ae565b90506000600260008473ffffffffffffffffffffffffffffffffffffffff1673ffffffffffffffffffffffffffffffffffffffff1681526020019081526020016000206001015490506000610e6b8383611fbb90919063ffffffff16565b90506000600260008673ffffffffffffffffffffffffffffffffffffffff1673ffffffffffffffffffffffffffffffffffffffff168152602001908152602001600020600101819055508373ffffffffffffffffffffffffffffffffffffffff167fa2fd4f03989448c5a69bab0c0454f2baf5667413a4e4b87fd7379a8ab69fae3f8888604051808373ffffffffffffffffffffffffffffffffffffffff1681526020018273ffffffffffffffffffffffffffffffffffffffff1681526020019250505060405180910390a27f000000000000000000000000000000000000000000000000000000000000000073ffffffffffffffffffffffffffffffffffffffff1663095ea7b3600160009054906101000a900473ffffffffffffffffffffffffffffffffffffffff16846040518363ffffffff1660e01b8152600401808373ffffffffffffffffffffffffffffffffffffffff16815260200182815260200192505050602060405180830381600087803b158015610fea57600080fd5b505af1158015610ffe573d6000803e3d6000fd5b505050506040513d602081101561101457600080fd5b810190808051906020019092919050505050600083146110f857600160009054906101000a900473ffffffffffffffffffffffffffffffffffffffff1673ffffffffffffffffffffffffffffffffffffffff1663f45346dc3085896040518463ffffffff1660e01b8152600401808473ffffffffffffffffffffffffffffffffffffffff1681526020018381526020018273ffffffffffffffffffffffffffffffffffffffff1681526020019350505050600060405180830381600087803b1580156110df57600080fd5b505af11580156110f3573d6000803e3d6000fd5b505050505b600160009054906101000a900473ffffffffffffffffffffffffffffffffffffffff1673ffffffffffffffffffffffffffffffffffffffff166356d4a7fe308389600260008a73ffffffffffffffffffffffffffffffffffffffff1673ffffffffffffffffffffffffffffffffffffffff1681526020019081526020016000206002015442116111ca57600260008a73ffffffffffffffffffffffffffffffffffffffff1673ffffffffffffffffffffffffffffffffffffffff168152602001908152602001600020600201546111cc565b425b600260008b73ffffffffffffffffffffffffffffffffffffffff1673ffffffffffffffffffffffffffffffffffffffff168152602001908152602001600020600301546040518663ffffffff1660e01b8152600401808673ffffffffffffffffffffffffffffffffffffffff1681526020018581526020018473ffffffffffffffffffffffffffffffffffffffff16815260200183815260200182815260200195505050505050600060405180830381600087803b15801561128d57600080fd5b505af11580156112a1573d6000803e3d6000fd5b5050505050505050505050565b600080600260008473ffffffffffffffffffffffffffffffffffffffff1673ffffffffffffffffffffffffffffffffffffffff168152602001908152602001600020905060006112fd84612005565b9050600061131c83600101548460000154611fbb90919063ffffffff16565b90506113318183611fbb90919063ffffffff16565b9350505050919050565b611343611fb3565b73ffffffffffffffffffffffffffffffffffffffff1660008054906101000a900473ffffffffffffffffffffffffffffffffffffffff1673ffffffffffffffffffffffffffffffffffffffff1614611403576040517f08c379a00000000000000000000000000000000000000000000000000000000081526004018080602001828103825260208152602001807f4f776e61626c653a2063616c6c6572206973206e6f7420746865206f776e657281525060200191505060405180910390fd5b80600160006101000a81548173ffffffffffffffffffffffffffffffffffffffff021916908373ffffffffffffffffffffffffffffffffffffffff1602179055507f9758fe2c5611eaaf02f90cf70038ecb1e23f3d218aed0b239a67c393d142767581604051808273ffffffffffffffffffffffffffffffffffffffff16815260200191505060405180910390a150565b80600073ffffffffffffffffffffffffffffffffffffffff168173ffffffffffffffffffffffffffffffffffffffff161415611538576040517f08c379a00000000000000000000000000000000000000000000000000000000081526004018080602001828103825260138152602001807f496e76616c69642064657374696e6174696f6e0000000000000000000000000081525060200191505060405180910390fd5b336000600260008373ffffffffffffffffffffffffffffffffffffffff1673ffffffffffffffffffffffffffffffffffffffff1681526020019081526020016000206001015414156115d5576040517f08c379a00000000000000000000000000000000000000000000000000000000081526004018080602001828103825260288152602001806123b16028913960400191505060405180910390fd5b600033905060006115e5826112ae565b9050600081141561165e576040517f08c379a000000000000000000000000000000000000000000000000000000000815260040180806020018281038252601a8152602001807f4e6f20776974686472617761626c6520746f6b656e732079657400000000000081525060200191505060405180910390fd5b6116b381600260008573ffffffffffffffffffffffffffffffffffffffff1673ffffffffffffffffffffffffffffffffffffffff16815260200190815260200160002060010154611fbb90919063ffffffff16565b600260008473ffffffffffffffffffffffffffffffffffffffff1673ffffffffffffffffffffffffffffffffffffffff168152602001908152602001600020600101819055508173ffffffffffffffffffffffffffffffffffffffff167f85b9d5ac4b95740dafd1b47130d38b5f34a9104dd14b1c88a2fb5a44c3a00ce786604051808273ffffffffffffffffffffffffffffffffffffffff16815260200191505060405180910390a27f000000000000000000000000000000000000000000000000000000000000000073ffffffffffffffffffffffffffffffffffffffff1663a9059cbb86836040518363ffffffff1660e01b8152600401808373ffffffffffffffffffffffffffffffffffffffff16815260200182815260200192505050602060405180830381600087803b1580156117ee57600080fd5b505af1158015611802573d6000803e3d6000fd5b505050506040513d602081101561181857600080fd5b810190808051906020019092919050505061189b576040517f08c379a000000000000000000000000000000000000000000000000000000000815260040180806020018281038252601a8152602001807f4150493320746f6b656e207472616e73666572206661696c656400000000000081525060200191505060405180910390fd5b5050505050565b6118aa611fb3565b73ffffffffffffffffffffffffffffffffffffffff1660008054906101000a900473ffffffffffffffffffffffffffffffffffffffff1673ffffffffffffffffffffffffffffffffffffffff161461196a576040517f08c379a00000000000000000000000000000000000000000000000000000000081526004018080602001828103825260208152602001807f4f776e61626c653a2063616c6c6572206973206e6f7420746865206f776e657281525060200191505060405180910390fd5b858590508888905014801561198457508383905088889050145b801561199557508181905088889050145b6119ea576040517f08c379a00000000000000000000000000000000000000000000000000000000081526004018080602001828103825260228152602001806123fa6022913960400191505060405180910390fd5b601e888890501115611a64576040517f08c379a000000000000000000000000000000000000000000000000000000000815260040180806020018281038252601d8152602001807f506172616d657465727320617265206c6f6e676572207468616e20333000000081525060200191505060405180910390fd5b60005b88889050811015611aea57611add8a8a8a84818110611a8257fe5b9050602002013573ffffffffffffffffffffffffffffffffffffffff16898985818110611aab57fe5b90506020020135888886818110611abe57fe5b90506020020135878787818110611ad157fe5b90506020020135610699565b8080600101915050611a67565b50505050505050505050565b7f000000000000000000000000000000000000000000000000000000000000000081565b600160009054906101000a900473ffffffffffffffffffffffffffffffffffffffff1681565b611b48611fb3565b73ffffffffffffffffffffffffffffffffffffffff1660008054906101000a900473ffffffffffffffffffffffffffffffffffffffff1673ffffffffffffffffffffffffffffffffffffffff1614611c08576040517f08c379a00000000000000000000000000000000000000000000000000000000081526004018080602001828103825260208152602001807f4f776e61626c653a2063616c6c6572206973206e6f7420746865206f776e657281525060200191505060405180910390fd5b600073ffffffffffffffffffffffffffffffffffffffff1660008054906101000a900473ffffffffffffffffffffffffffffffffffffffff1673ffffffffffffffffffffffffffffffffffffffff167f8be0079c531659141344cd1fd0a4f28419497f9722a3daafe3b4186f6b6457e060405160405180910390a360008060006101000a81548173ffffffffffffffffffffffffffffffffffffffff021916908373ffffffffffffffffffffffffffffffffffffffff160217905550565b60008060009054906101000a900473ffffffffffffffffffffffffffffffffffffffff16905090565b6000806000806000600260008773ffffffffffffffffffffffffffffffffffffffff1673ffffffffffffffffffffffffffffffffffffffff168152602001908152602001600020905080600001549450806001015493508060020154925080600301549150509193509193565b611d64611fb3565b73ffffffffffffffffffffffffffffffffffffffff1660008054906101000a900473ffffffffffffffffffffffffffffffffffffffff1673ffffffffffffffffffffffffffffffffffffffff1614611e24576040517f08c379a00000000000000000000000000000000000000000000000000000000081526004018080602001828103825260208152602001807f4f776e61626c653a2063616c6c6572206973206e6f7420746865206f776e657281525060200191505060405180910390fd5b600073ffffffffffffffffffffffffffffffffffffffff168173ffffffffffffffffffffffffffffffffffffffff161415611eaa576040517f08c379a000000000000000000000000000000000000000000000000000000000815260040180806020018281038252602681526020018061238b6026913960400191505060405180910390fd5b8073ffffffffffffffffffffffffffffffffffffffff1660008054906101000a900473ffffffffffffffffffffffffffffffffffffffff1673ffffffffffffffffffffffffffffffffffffffff167f8be0079c531659141344cd1fd0a4f28419497f9722a3daafe3b4186f6b6457e060405160405180910390a3806000806101000a81548173ffffffffffffffffffffffffffffffffffffffff021916908373ffffffffffffffffffffffffffffffffffffffff16021790555050565b6000600260008373ffffffffffffffffffffffffffffffffffffffff1673ffffffffffffffffffffffffffffffffffffffff168152602001908152602001600020600101549050919050565b600033905090565b6000611ffd83836040518060400160405280601e81526020017f536166654d6174683a207375627472616374696f6e206f766572666c6f7700008152506120e3565b905092915050565b600080600260008473ffffffffffffffffffffffffffffffffffffffff1673ffffffffffffffffffffffffffffffffffffffff16815260200190815260200160002090508060020154421161205d57600091506120dd565b8060030154421061207457806000015491506120dc565b600061208d826002015442611fbb90919063ffffffff16565b905060006120ac83600201548460030154611fbb90919063ffffffff16565b90506120d7816120c98486600001546121a390919063ffffffff16565b61222990919063ffffffff16565b935050505b5b50919050565b6000838311158290612190576040517f08c379a00000000000000000000000000000000000000000000000000000000081526004018080602001828103825283818151815260200191508051906020019080838360005b8381101561215557808201518184015260208101905061213a565b50505050905090810190601f1680156121825780820380516001836020036101000a031916815260200191505b509250505060405180910390fd5b5060008385039050809150509392505050565b6000808314156121b65760009050612223565b60008284029050828482816121c757fe5b041461221e576040517f08c379a00000000000000000000000000000000000000000000000000000000081526004018080602001828103825260218152602001806123d96021913960400191505060405180910390fd5b809150505b92915050565b600061226b83836040518060400160405280601a81526020017f536166654d6174683a206469766973696f6e206279207a65726f000000000000815250612273565b905092915050565b6000808311829061231f576040517f08c379a00000000000000000000000000000000000000000000000000000000081526004018080602001828103825283818151815260200191508051906020019080838360005b838110156122e45780820151818401526020810190506122c9565b50505050905090810190601f1680156123115780820380516001836020036101000a031916815260200191505b509250505060405180910390fd5b50600083858161232b57fe5b04905080915050939250505056fe43616e6e6f7420776974686472617720746f2062656e656669742061646472657373203072656c65617365456e642068617320746f206265206c6172676572207468616e2072656c6561736553746172744f776e61626c653a206e6577206f776e657220697320746865207a65726f2061646472657373526563697069656e7420646f6573206e6f7420686176652072656d61696e696e6720746f6b656e73536166654d6174683a206d756c7469706c69636174696f6e206f766572666c6f774c656e67746873206f6620706172616d657465727320646f206e6f74206d61746368a2646970667358221220f6ee7fb9feb6955c53fc5e10497295b51450ea28938f773dd8a5512f0052bdf364736f6c634300060c00334f776e61626c653a206e6577206f776e657220697320746865207a65726f2061646472657373",
  "devdoc": {
    "kind": "dev",
    "methods": {
      "constructor": {
        "details": "api3Pool is not initialized in the constructor because this contract will be deployed before api3Pool",
        "params": {
          "api3TokenAddress": "Address of the API3 token contract",
          "timelockManagerOwner": "Address that will receive the ownership of the TimelockManager contract (i.e., the API3 DAO)"
        }
      },
      "getRemainingAmount(address)": {
        "details": "Provided separately to be used with Etherscan's \"Read\" functionality, in case getTimelock() output is too complicated for the user.",
        "params": {
          "recipient": "Recipient of tokens"
        },
        "returns": {
          "remainingAmount": "Remaining amount of tokens to be withdrawn"
        }
      },
      "getTimelock(address)": {
        "params": {
          "recipient": "Recipient of tokens"
        },
        "returns": {
          "releaseEnd": "Release end time",
          "releaseStart": "Release start time",
          "remainingAmount": "Remaining amount of tokens to be withdrawn",
          "totalAmount": "Total amount of tokens"
        }
      },
      "getWithdrawable(address)": {
        "params": {
          "recipient": "Address of the recipient"
        },
        "returns": {
          "withdrawable": "Amount of tokens withdrawable by the recipient"
        }
      },
      "owner()": {
        "details": "Returns the address of the current owner."
      },
      "renounceOwnership()": {
        "details": "Leaves the contract without owner. It will not be possible to call `onlyOwner` functions anymore. Can only be called by the current owner. NOTE: Renouncing ownership will leave the contract without an owner, thereby removing any functionality that is only available to the owner."
      },
      "transferAndLock(address,address,uint256,uint256,uint256)": {
        "details": "source needs to approve() this contract to transfer amount number of tokens beforehand. A recipient cannot have multiple independent timelocks.",
        "params": {
          "amount": "Amount of tokens",
          "recipient": "Recipient of tokens",
          "releaseEnd": "End of release time",
          "releaseStart": "Start of release time",
          "source": "Source of tokens"
        }
      },
      "transferAndLockMultiple(address,address[],uint256[],uint256[],uint256[])": {
        "details": "source is expected to be a single address, i.e., the API3 DAO. source needs to approve() this contract to transfer the sum of the amounts of tokens to be transferred and locked.",
        "params": {
          "amounts": "Array of amounts of tokens",
          "recipients": "Array of recipients of tokens",
          "releaseEnds": "Array of ends of release times",
          "releaseStarts": "Array of starts of release times",
          "source": "Source of tokens"
        }
      },
      "transferOwnership(address)": {
        "details": "Transfers ownership of the contract to a new account (`newOwner`). Can only be called by the current owner."
      },
      "updateApi3Pool(address)": {
        "params": {
          "api3PoolAddress": "Address of the API3 pool contract"
        }
      },
      "withdraw(address)": {
        "params": {
          "destination": "Address that will receive the tokens"
        }
      },
      "withdrawToPool(address,address)": {
        "details": "We ask the recipient to provide api3PoolAddress as a form of validation, i.e., the recipient confirms that the API3 pool address set at this contract is correct",
        "params": {
          "api3PoolAddress": "Address of the API3 pool contract",
          "beneficiary": "Address that the tokens will be deposited to the pool contract on behalf of"
        }
      }
    },
    "title": "Contract that the API3 DAO uses to timelock API3 tokens",
    "version": 1
  },
  "userdoc": {
    "kind": "user",
    "methods": {
      "getRemainingAmount(address)": {
        "notice": "Returns remaining amount of a timelock"
      },
      "getTimelock(address)": {
        "notice": "Returns the details of a timelock"
      },
      "getWithdrawable(address)": {
        "notice": "Returns the amount of tokens a recipient can currently withdraw"
      },
      "transferAndLock(address,address,uint256,uint256,uint256)": {
        "notice": "Transfers API3 tokens to this contract and timelocks them"
      },
      "transferAndLockMultiple(address,address[],uint256[],uint256[],uint256[])": {
        "notice": "Convenience function that calls transferAndLock() multiple times"
      },
      "updateApi3Pool(address)": {
        "notice": "Allows the owner (i.e., API3 DAO) to set the address of api3Pool, which token recipients can transfer their tokens to"
      },
      "withdraw(address)": {
        "notice": "Used by the recipient to withdraw tokens"
      },
      "withdrawToPool(address,address)": {
        "notice": "Used by the recipient to withdraw their tokens to the API3 pool"
      }
    },
    "notice": "The owner of TimelockManager (i.e., API3 DAO) can send tokens to TimelockManager to timelock them. These tokens will then be vested to their recipient linearly, starting from releaseStart and ending at releaseEnd of the respective timelock. Alternatively, if the owner of TimelockManager (i.e., API3 DAO) sets the api3Pool address, the token recipients can transfer their locked tokens from TimelockManager to api3Pool. These tokens will remain timelocked (i.e., will not be withdrawable) at api3Pool until they are vested according to their respective schedule.",
    "version": 1
  },
  "storageLayout": {
    "storage": [
      {
        "astId": 570,
        "contract": "contracts/TimelockManager.sol:TimelockManager",
        "label": "_owner",
        "offset": 0,
        "slot": "0",
        "type": "t_address"
      },
      {
        "astId": 973,
        "contract": "contracts/TimelockManager.sol:TimelockManager",
        "label": "api3Pool",
        "offset": 0,
        "slot": "1",
        "type": "t_contract(IApi3Pool)5"
      },
      {
        "astId": 977,
        "contract": "contracts/TimelockManager.sol:TimelockManager",
        "label": "timelocks",
        "offset": 0,
        "slot": "2",
        "type": "t_mapping(t_address,t_struct(Timelock)969_storage)"
      }
    ],
    "types": {
      "t_address": {
        "encoding": "inplace",
        "label": "address",
        "numberOfBytes": "20"
      },
      "t_contract(IApi3Pool)5": {
        "encoding": "inplace",
        "label": "contract IApi3Pool",
        "numberOfBytes": "20"
      },
      "t_mapping(t_address,t_struct(Timelock)969_storage)": {
        "encoding": "mapping",
        "key": "t_address",
        "label": "mapping(address => struct TimelockManager.Timelock)",
        "numberOfBytes": "32",
        "value": "t_struct(Timelock)969_storage"
      },
      "t_struct(Timelock)969_storage": {
        "encoding": "inplace",
        "label": "struct TimelockManager.Timelock",
        "members": [
          {
            "astId": 962,
            "contract": "contracts/TimelockManager.sol:TimelockManager",
            "label": "totalAmount",
            "offset": 0,
            "slot": "0",
            "type": "t_uint256"
          },
          {
            "astId": 964,
            "contract": "contracts/TimelockManager.sol:TimelockManager",
            "label": "remainingAmount",
            "offset": 0,
            "slot": "1",
            "type": "t_uint256"
          },
          {
            "astId": 966,
            "contract": "contracts/TimelockManager.sol:TimelockManager",
            "label": "releaseStart",
            "offset": 0,
            "slot": "2",
            "type": "t_uint256"
          },
          {
            "astId": 968,
            "contract": "contracts/TimelockManager.sol:TimelockManager",
            "label": "releaseEnd",
            "offset": 0,
            "slot": "3",
            "type": "t_uint256"
          }
        ],
        "numberOfBytes": "128"
      },
      "t_uint256": {
        "encoding": "inplace",
        "label": "uint256",
        "numberOfBytes": "32"
      }
    }
  },
  "gasEstimates": {
    "creation": {
      "codeDepositCost": "1859400",
      "executionCost": "infinite",
      "totalCost": "infinite"
    },
    "external": {
      "api3Pool()": "1092",
      "api3Token()": "infinite",
      "getRemainingAmount(address)": "1290",
      "getTimelock(address)": "3776",
      "getWithdrawable(address)": "infinite",
      "owner()": "1077",
      "renounceOwnership()": "24358",
      "timelocks(address)": "3703",
      "transferAndLock(address,address,uint256,uint256,uint256)": "infinite",
      "transferAndLockMultiple(address,address[],uint256[],uint256[],uint256[])": "infinite",
      "transferOwnership(address)": "infinite",
      "updateApi3Pool(address)": "23121",
      "withdraw(address)": "infinite",
      "withdrawToPool(address,address)": "infinite"
    },
    "internal": {
      "getUnlocked(address)": "infinite"
    }
  }
}