{
  "address": "0x310BBf92A36031F778C32FEaCa458251FD36F451",
  "abi": [
    {
      "inputs": [
        {
          "internalType": "address",
          "name": "api3TokenAddress",
          "type": "address"
        },
        {
          "internalType": "address",
          "name": "timelockManagerOwner",
          "type": "address"
        }
      ],
      "stateMutability": "nonpayable",
      "type": "constructor"
    },
    {
      "anonymous": false,
      "inputs": [
        {
          "indexed": true,
          "internalType": "address",
          "name": "previousOwner",
          "type": "address"
        },
        {
          "indexed": true,
          "internalType": "address",
          "name": "newOwner",
          "type": "address"
        }
      ],
      "name": "OwnershipTransferred",
      "type": "event"
    },
    {
      "anonymous": false,
      "inputs": [
        {
          "indexed": false,
          "internalType": "address",
          "name": "recipient",
          "type": "address"
        },
        {
          "indexed": false,
          "internalType": "address",
          "name": "destination",
          "type": "address"
        },
        {
          "indexed": false,
          "internalType": "uint256",
          "name": "amount",
          "type": "uint256"
        }
      ],
      "name": "StoppedVesting",
      "type": "event"
    },
    {
      "anonymous": false,
      "inputs": [
        {
          "indexed": false,
          "internalType": "address",
          "name": "source",
          "type": "address"
        },
        {
          "indexed": true,
          "internalType": "address",
          "name": "recipient",
          "type": "address"
        },
        {
          "indexed": false,
          "internalType": "uint256",
          "name": "amount",
          "type": "uint256"
        },
        {
          "indexed": false,
          "internalType": "uint256",
          "name": "releaseStart",
          "type": "uint256"
        },
        {
          "indexed": false,
          "internalType": "uint256",
          "name": "releaseEnd",
          "type": "uint256"
        }
      ],
      "name": "TransferredAndLocked",
      "type": "event"
    },
    {
      "anonymous": false,
      "inputs": [
        {
          "indexed": true,
          "internalType": "address",
          "name": "recipient",
          "type": "address"
        },
        {
          "indexed": false,
          "internalType": "uint256",
          "name": "amount",
          "type": "uint256"
        }
      ],
      "name": "Withdrawn",
      "type": "event"
    },
    {
      "inputs": [],
      "name": "api3Token",
      "outputs": [
        {
          "internalType": "contract IApi3Token",
          "name": "",
          "type": "address"
        }
      ],
      "stateMutability": "view",
      "type": "function"
    },
    {
      "inputs": [
        {
          "internalType": "address",
          "name": "recipient",
          "type": "address"
        }
      ],
      "name": "getRemainingAmount",
      "outputs": [
        {
          "internalType": "uint256",
          "name": "remainingAmount",
          "type": "uint256"
        }
      ],
      "stateMutability": "view",
      "type": "function"
    },
    {
      "inputs": [
        {
          "internalType": "address",
          "name": "recipient",
          "type": "address"
        }
      ],
      "name": "getTimelock",
      "outputs": [
        {
          "internalType": "uint256",
          "name": "totalAmount",
          "type": "uint256"
        },
        {
          "internalType": "uint256",
          "name": "remainingAmount",
          "type": "uint256"
        },
        {
          "internalType": "uint256",
          "name": "releaseStart",
          "type": "uint256"
        },
        {
          "internalType": "uint256",
          "name": "releaseEnd",
          "type": "uint256"
        }
      ],
      "stateMutability": "view",
      "type": "function"
    },
    {
      "inputs": [
        {
          "internalType": "address",
          "name": "recipient",
          "type": "address"
        }
      ],
      "name": "getWithdrawable",
      "outputs": [
        {
          "internalType": "uint256",
          "name": "withdrawable",
          "type": "uint256"
        }
      ],
      "stateMutability": "view",
      "type": "function"
    },
    {
      "inputs": [],
      "name": "owner",
      "outputs": [
        {
          "internalType": "address",
          "name": "",
          "type": "address"
        }
      ],
      "stateMutability": "view",
      "type": "function"
    },
    {
      "inputs": [],
      "name": "renounceOwnership",
      "outputs": [],
      "stateMutability": "nonpayable",
      "type": "function"
    },
    {
      "inputs": [
        {
          "internalType": "address",
          "name": "recipient",
          "type": "address"
        },
        {
          "internalType": "address",
          "name": "destination",
          "type": "address"
        }
      ],
      "name": "stopVesting",
      "outputs": [],
      "stateMutability": "nonpayable",
      "type": "function"
    },
    {
      "inputs": [
        {
          "internalType": "address",
          "name": "",
          "type": "address"
        }
      ],
      "name": "timelocks",
      "outputs": [
        {
          "internalType": "uint256",
          "name": "totalAmount",
          "type": "uint256"
        },
        {
          "internalType": "uint256",
          "name": "remainingAmount",
          "type": "uint256"
        },
        {
          "internalType": "uint256",
          "name": "releaseStart",
          "type": "uint256"
        },
        {
          "internalType": "uint256",
          "name": "releaseEnd",
          "type": "uint256"
        }
      ],
      "stateMutability": "view",
      "type": "function"
    },
    {
      "inputs": [
        {
          "internalType": "address",
          "name": "source",
          "type": "address"
        },
        {
          "internalType": "address",
          "name": "recipient",
          "type": "address"
        },
        {
          "internalType": "uint256",
          "name": "amount",
          "type": "uint256"
        },
        {
          "internalType": "uint256",
          "name": "releaseStart",
          "type": "uint256"
        },
        {
          "internalType": "uint256",
          "name": "releaseEnd",
          "type": "uint256"
        }
      ],
      "name": "transferAndLock",
      "outputs": [],
      "stateMutability": "nonpayable",
      "type": "function"
    },
    {
      "inputs": [
        {
          "internalType": "address",
          "name": "source",
          "type": "address"
        },
        {
          "internalType": "address[]",
          "name": "recipients",
          "type": "address[]"
        },
        {
          "internalType": "uint256[]",
          "name": "amounts",
          "type": "uint256[]"
        },
        {
          "internalType": "uint256[]",
          "name": "releaseStarts",
          "type": "uint256[]"
        },
        {
          "internalType": "uint256[]",
          "name": "releaseEnds",
          "type": "uint256[]"
        }
      ],
      "name": "transferAndLockMultiple",
      "outputs": [],
      "stateMutability": "nonpayable",
      "type": "function"
    },
    {
      "inputs": [
        {
          "internalType": "address",
          "name": "newOwner",
          "type": "address"
        }
      ],
      "name": "transferOwnership",
      "outputs": [],
      "stateMutability": "nonpayable",
      "type": "function"
    },
    {
      "inputs": [],
      "name": "withdraw",
      "outputs": [],
      "stateMutability": "nonpayable",
      "type": "function"
    }
  ],
  "transactionHash": "0x59b06dee891bd2eefc55341b9228a0715369283946b1a1c5bd94326b69dec4c1",
  "args": [
    "0x0b38210ea11411557c13457D4dA7dC6ea731B88a",
    "0xf26304D6Cd67DFA199b17c9E850149bF77285611"
  ],
  "solcInputHash": "0xf753db30cd7679f70b713efd93b8b34b388e3ca7ba372a08c7bd867efe952c62",
  "bytecode": "0x60a06040523480156200001157600080fd5b506040516200200438038062002004833981810160405260408110156200003757600080fd5b8101908080519060200190929190805190602001909291905050506000620000646200015260201b60201c565b9050806000806101000a81548173ffffffffffffffffffffffffffffffffffffffff021916908373ffffffffffffffffffffffffffffffffffffffff1602179055508073ffffffffffffffffffffffffffffffffffffffff16600073ffffffffffffffffffffffffffffffffffffffff167f8be0079c531659141344cd1fd0a4f28419497f9722a3daafe3b4186f6b6457e060405160405180910390a3508173ffffffffffffffffffffffffffffffffffffffff1660808173ffffffffffffffffffffffffffffffffffffffff1660601b815250506200014a816200015a60201b60201c565b505062000388565b600033905090565b6200016a6200015260201b60201c565b73ffffffffffffffffffffffffffffffffffffffff16620001906200035f60201b60201c565b73ffffffffffffffffffffffffffffffffffffffff16146200021a576040517f08c379a00000000000000000000000000000000000000000000000000000000081526004018080602001828103825260208152602001807f4f776e61626c653a2063616c6c6572206973206e6f7420746865206f776e657281525060200191505060405180910390fd5b600073ffffffffffffffffffffffffffffffffffffffff168173ffffffffffffffffffffffffffffffffffffffff161415620002a2576040517f08c379a000000000000000000000000000000000000000000000000000000000815260040180806020018281038252602681526020018062001fde6026913960400191505060405180910390fd5b8073ffffffffffffffffffffffffffffffffffffffff1660008054906101000a900473ffffffffffffffffffffffffffffffffffffffff1673ffffffffffffffffffffffffffffffffffffffff167f8be0079c531659141344cd1fd0a4f28419497f9722a3daafe3b4186f6b6457e060405160405180910390a3806000806101000a81548173ffffffffffffffffffffffffffffffffffffffff021916908373ffffffffffffffffffffffffffffffffffffffff16021790555050565b60008060009054906101000a900473ffffffffffffffffffffffffffffffffffffffff16905090565b60805160601c611c29620003b5600039806108745280610ca1528061108a52806114f15250611c296000f3fe608060405234801561001057600080fd5b50600436106100b45760003560e01c8063715018a611610071578063715018a6146103d65780638da5cb5b146103e0578063bf1e799b14610414578063ef1e1e3c14610481578063f2fde38b146104e5578063faf7eba614610529576100b4565b80631369a927146100b957806324dcb3851461012657806332cc6ae6146101a85780633ccfd60b146102005780635af602531461020a578063613d517d146103a2575b600080fd5b6100fb600480360360208110156100cf57600080fd5b81019080803573ffffffffffffffffffffffffffffffffffffffff169060200190929190505050610581565b6040518085815260200184815260200183815260200182815260200194505050505060405180910390f35b6101a6600480360360a081101561013c57600080fd5b81019080803573ffffffffffffffffffffffffffffffffffffffff169060200190929190803573ffffffffffffffffffffffffffffffffffffffff1690602001909291908035906020019092919080359060200190929190803590602001909291905050506105b1565b005b6101ea600480360360208110156101be57600080fd5b81019080803573ffffffffffffffffffffffffffffffffffffffff169060200190929190505050610a51565b6040518082815260200191505060405180910390f35b610208610ade565b005b6103a0600480360360a081101561022057600080fd5b81019080803573ffffffffffffffffffffffffffffffffffffffff1690602001909291908035906020019064010000000081111561025d57600080fd5b82018360208201111561026f57600080fd5b8035906020019184602083028401116401000000008311171561029157600080fd5b9091929391929390803590602001906401000000008111156102b257600080fd5b8201836020820111156102c457600080fd5b803590602001918460208302840111640100000000831117156102e657600080fd5b90919293919293908035906020019064010000000081111561030757600080fd5b82018360208201111561031957600080fd5b8035906020019184602083028401116401000000008311171561033b57600080fd5b90919293919293908035906020019064010000000081111561035c57600080fd5b82018360208201111561036e57600080fd5b8035906020019184602083028401116401000000008311171561039057600080fd5b9091929391929390505050610e30565b005b6103aa611088565b604051808273ffffffffffffffffffffffffffffffffffffffff16815260200191505060405180910390f35b6103de6110ac565b005b6103e8611219565b604051808273ffffffffffffffffffffffffffffffffffffffff16815260200191505060405180910390f35b6104566004803603602081101561042a57600080fd5b81019080803573ffffffffffffffffffffffffffffffffffffffff169060200190929190505050611242565b6040518085815260200184815260200183815260200182815260200194505050505060405180910390f35b6104e36004803603604081101561049757600080fd5b81019080803573ffffffffffffffffffffffffffffffffffffffff169060200190929190803573ffffffffffffffffffffffffffffffffffffffff1690602001909291905050506112af565b005b610527600480360360208110156104fb57600080fd5b81019080803573ffffffffffffffffffffffffffffffffffffffff1690602001909291905050506116a7565b005b61056b6004803603602081101561053f57600080fd5b81019080803573ffffffffffffffffffffffffffffffffffffffff169060200190929190505050611899565b6040518082815260200191505060405180910390f35b60016020528060005260406000206000915090508060000154908060010154908060020154908060030154905084565b6105b96118e5565b73ffffffffffffffffffffffffffffffffffffffff166105d7611219565b73ffffffffffffffffffffffffffffffffffffffff1614610660576040517f08c379a00000000000000000000000000000000000000000000000000000000081526004018080602001828103825260208152602001807f4f776e61626c653a2063616c6c6572206973206e6f7420746865206f776e657281525060200191505060405180910390fd5b6000600160008673ffffffffffffffffffffffffffffffffffffffff1673ffffffffffffffffffffffffffffffffffffffff1681526020019081526020016000206001015414610718576040517f08c379a000000000000000000000000000000000000000000000000000000000815260040180806020018281038252601e8152602001807f526563697069656e74206861732072656d61696e696e6720746f6b656e73000081525060200191505060405180910390fd5b600083141561078f576040517f08c379a00000000000000000000000000000000000000000000000000000000081526004018080602001828103825260128152602001807f416d6f756e742063616e6e6f742062652030000000000000000000000000000081525060200191505060405180910390fd5b8181116107e7576040517f08c379a0000000000000000000000000000000000000000000000000000000008152600401808060200182810382526027815260200180611bac6027913960400191505060405180910390fd5b604051806080016040528084815260200184815260200183815260200182815250600160008673ffffffffffffffffffffffffffffffffffffffff1673ffffffffffffffffffffffffffffffffffffffff168152602001908152602001600020600082015181600001556020820151816001015560408201518160020155606082015181600301559050507f000000000000000000000000000000000000000000000000000000000000000073ffffffffffffffffffffffffffffffffffffffff166323b872dd8630866040518463ffffffff1660e01b8152600401808473ffffffffffffffffffffffffffffffffffffffff1681526020018373ffffffffffffffffffffffffffffffffffffffff1681526020018281526020019350505050602060405180830381600087803b15801561092157600080fd5b505af1158015610935573d6000803e3d6000fd5b505050506040513d602081101561094b57600080fd5b81019080805190602001909291905050506109ce576040517f08c379a000000000000000000000000000000000000000000000000000000000815260040180806020018281038252601e8152602001807f4150493320746f6b656e207472616e7366657246726f6d206661696c6564000081525060200191505060405180910390fd5b8373ffffffffffffffffffffffffffffffffffffffff167fd1f652d80d5c06196c1cc9329a51edb16e16aa626e4a7715de03fb8a98547ef686858585604051808573ffffffffffffffffffffffffffffffffffffffff16815260200184815260200183815260200182815260200194505050505060405180910390a25050505050565b600080600160008473ffffffffffffffffffffffffffffffffffffffff1673ffffffffffffffffffffffffffffffffffffffff16815260200190815260200160002090506000610aa0846118ed565b90506000610abf836001015484600001546119cb90919063ffffffff16565b9050610ad481836119cb90919063ffffffff16565b9350505050919050565b336000600160008373ffffffffffffffffffffffffffffffffffffffff1673ffffffffffffffffffffffffffffffffffffffff168152602001908152602001600020600101541415610b7b576040517f08c379a0000000000000000000000000000000000000000000000000000000008152600401808060200182810382526028815260200180611b846028913960400191505060405180910390fd5b60003390506000610b8b82610a51565b90506000811415610c04576040517f08c379a000000000000000000000000000000000000000000000000000000000815260040180806020018281038252601a8152602001807f4e6f20776974686472617761626c6520746f6b656e732079657400000000000081525060200191505060405180910390fd5b610c5981600160008573ffffffffffffffffffffffffffffffffffffffff1673ffffffffffffffffffffffffffffffffffffffff168152602001908152602001600020600101546119cb90919063ffffffff16565b600160008473ffffffffffffffffffffffffffffffffffffffff1673ffffffffffffffffffffffffffffffffffffffff168152602001908152602001600020600101819055507f000000000000000000000000000000000000000000000000000000000000000073ffffffffffffffffffffffffffffffffffffffff1663a9059cbb83836040518363ffffffff1660e01b8152600401808373ffffffffffffffffffffffffffffffffffffffff16815260200182815260200192505050602060405180830381600087803b158015610d3057600080fd5b505af1158015610d44573d6000803e3d6000fd5b505050506040513d6020811015610d5a57600080fd5b8101908080519060200190929190505050610ddd576040517f08c379a000000000000000000000000000000000000000000000000000000000815260040180806020018281038252601a8152602001807f4150493320746f6b656e207472616e73666572206661696c656400000000000081525060200191505060405180910390fd5b8173ffffffffffffffffffffffffffffffffffffffff167f7084f5476618d8e60b11ef0d7d3f06914655adb8793e28ff7f018d4c76d505d5826040518082815260200191505060405180910390a2505050565b610e386118e5565b73ffffffffffffffffffffffffffffffffffffffff16610e56611219565b73ffffffffffffffffffffffffffffffffffffffff1614610edf576040517f08c379a00000000000000000000000000000000000000000000000000000000081526004018080602001828103825260208152602001807f4f776e61626c653a2063616c6c6572206973206e6f7420746865206f776e657281525060200191505060405180910390fd5b8585905088889050148015610ef957508383905088889050145b8015610f0a57508181905088889050145b610f7c576040517f08c379a00000000000000000000000000000000000000000000000000000000081526004018080602001828103825260208152602001807f506172616d657465727320617265206f6620756e657175616c206c656e67746881525060200191505060405180910390fd5b601e888890501115610ff6576040517f08c379a000000000000000000000000000000000000000000000000000000000815260040180806020018281038252601d8152602001807f506172616d657465727320617265206c6f6e676572207468616e20333000000081525060200191505060405180910390fd5b60005b8888905081101561107c5761106f8a8a8a8481811061101457fe5b9050602002013573ffffffffffffffffffffffffffffffffffffffff1689898581811061103d57fe5b9050602002013588888681811061105057fe5b9050602002013587878781811061106357fe5b905060200201356105b1565b8080600101915050610ff9565b50505050505050505050565b7f000000000000000000000000000000000000000000000000000000000000000081565b6110b46118e5565b73ffffffffffffffffffffffffffffffffffffffff166110d2611219565b73ffffffffffffffffffffffffffffffffffffffff161461115b576040517f08c379a00000000000000000000000000000000000000000000000000000000081526004018080602001828103825260208152602001807f4f776e61626c653a2063616c6c6572206973206e6f7420746865206f776e657281525060200191505060405180910390fd5b600073ffffffffffffffffffffffffffffffffffffffff1660008054906101000a900473ffffffffffffffffffffffffffffffffffffffff1673ffffffffffffffffffffffffffffffffffffffff167f8be0079c531659141344cd1fd0a4f28419497f9722a3daafe3b4186f6b6457e060405160405180910390a360008060006101000a81548173ffffffffffffffffffffffffffffffffffffffff021916908373ffffffffffffffffffffffffffffffffffffffff160217905550565b60008060009054906101000a900473ffffffffffffffffffffffffffffffffffffffff16905090565b6000806000806000600160008773ffffffffffffffffffffffffffffffffffffffff1673ffffffffffffffffffffffffffffffffffffffff168152602001908152602001600020905080600001549450806001015493508060020154925080600301549150509193509193565b6112b76118e5565b73ffffffffffffffffffffffffffffffffffffffff166112d5611219565b73ffffffffffffffffffffffffffffffffffffffff161461135e576040517f08c379a00000000000000000000000000000000000000000000000000000000081526004018080602001828103825260208152602001807f4f776e61626c653a2063616c6c6572206973206e6f7420746865206f776e657281525060200191505060405180910390fd5b816000600160008373ffffffffffffffffffffffffffffffffffffffff1673ffffffffffffffffffffffffffffffffffffffff1681526020019081526020016000206001015414156113fb576040517f08c379a0000000000000000000000000000000000000000000000000000000008152600401808060200182810382526028815260200180611b846028913960400191505060405180910390fd5b600061140684610a51565b9050600061145f82600160008873ffffffffffffffffffffffffffffffffffffffff1673ffffffffffffffffffffffffffffffffffffffff168152602001908152602001600020600101546119cb90919063ffffffff16565b905081600160008773ffffffffffffffffffffffffffffffffffffffff1673ffffffffffffffffffffffffffffffffffffffff1681526020019081526020016000206001018190555042600160008773ffffffffffffffffffffffffffffffffffffffff1673ffffffffffffffffffffffffffffffffffffffff168152602001908152602001600020600301819055507f000000000000000000000000000000000000000000000000000000000000000073ffffffffffffffffffffffffffffffffffffffff1663a9059cbb85836040518363ffffffff1660e01b8152600401808373ffffffffffffffffffffffffffffffffffffffff16815260200182815260200192505050602060405180830381600087803b15801561158057600080fd5b505af1158015611594573d6000803e3d6000fd5b505050506040513d60208110156115aa57600080fd5b810190808051906020019092919050505061162d576040517f08c379a000000000000000000000000000000000000000000000000000000000815260040180806020018281038252601a8152602001807f4150493320746f6b656e207472616e73666572206661696c656400000000000081525060200191505060405180910390fd5b7f8ae90027281d04f34ca2e7dc8c1c20d126ee8dd017d3f896c0e59d424c264c6d858583604051808473ffffffffffffffffffffffffffffffffffffffff1681526020018373ffffffffffffffffffffffffffffffffffffffff168152602001828152602001935050505060405180910390a15050505050565b6116af6118e5565b73ffffffffffffffffffffffffffffffffffffffff166116cd611219565b73ffffffffffffffffffffffffffffffffffffffff1614611756576040517f08c379a00000000000000000000000000000000000000000000000000000000081526004018080602001828103825260208152602001807f4f776e61626c653a2063616c6c6572206973206e6f7420746865206f776e657281525060200191505060405180910390fd5b600073ffffffffffffffffffffffffffffffffffffffff168173ffffffffffffffffffffffffffffffffffffffff1614156117dc576040517f08c379a0000000000000000000000000000000000000000000000000000000008152600401808060200182810382526026815260200180611b5e6026913960400191505060405180910390fd5b8073ffffffffffffffffffffffffffffffffffffffff1660008054906101000a900473ffffffffffffffffffffffffffffffffffffffff1673ffffffffffffffffffffffffffffffffffffffff167f8be0079c531659141344cd1fd0a4f28419497f9722a3daafe3b4186f6b6457e060405160405180910390a3806000806101000a81548173ffffffffffffffffffffffffffffffffffffffff021916908373ffffffffffffffffffffffffffffffffffffffff16021790555050565b6000600160008373ffffffffffffffffffffffffffffffffffffffff1673ffffffffffffffffffffffffffffffffffffffff168152602001908152602001600020600101549050919050565b600033905090565b600080600160008473ffffffffffffffffffffffffffffffffffffffff1673ffffffffffffffffffffffffffffffffffffffff16815260200190815260200160002090508060020154421161194557600091506119c5565b8060030154421061195c57806000015491506119c4565b60006119758260020154426119cb90919063ffffffff16565b90506000611994836002015484600301546119cb90919063ffffffff16565b90506119bf816119b1848660000154611a4e90919063ffffffff16565b611ad490919063ffffffff16565b935050505b5b50919050565b600082821115611a43576040517f08c379a000000000000000000000000000000000000000000000000000000000815260040180806020018281038252601e8152602001807f536166654d6174683a207375627472616374696f6e206f766572666c6f77000081525060200191505060405180910390fd5b818303905092915050565b600080831415611a615760009050611ace565b6000828402905082848281611a7257fe5b0414611ac9576040517f08c379a0000000000000000000000000000000000000000000000000000000008152600401808060200182810382526021815260200180611bd36021913960400191505060405180910390fd5b809150505b92915050565b6000808211611b4b576040517f08c379a000000000000000000000000000000000000000000000000000000000815260040180806020018281038252601a8152602001807f536166654d6174683a206469766973696f6e206279207a65726f00000000000081525060200191505060405180910390fd5b818381611b5457fe5b0490509291505056fe4f776e61626c653a206e6577206f776e657220697320746865207a65726f2061646472657373526563697069656e7420646f6573206e6f7420686176652072656d61696e696e6720746f6b656e7372656c65617365456e64206e6f74206c6172676572207468616e2072656c656173655374617274536166654d6174683a206d756c7469706c69636174696f6e206f766572666c6f77a2646970667358221220cf8e99542a0e388d3227287372063e7feeed054e50013c7585563e4637ccc07e64736f6c634300060c00334f776e61626c653a206e6577206f776e657220697320746865207a65726f2061646472657373",
  "devdoc": {
    "kind": "dev",
    "methods": {
      "constructor": {
        "params": {
          "api3TokenAddress": "Address of the API3 token contract",
          "timelockManagerOwner": "Address that will receive the ownership of the TimelockManager contract"
        }
      },
      "getRemainingAmount(address)": {
        "details": "Provided separately to be used with Etherscan's \"Read\" functionality, in case getTimelock() output is too complicated for the user.",
        "params": {
          "recipient": "Recipient of tokens"
        },
        "returns": {
          "remainingAmount": "Remaining amount of tokens to be withdrawn"
        }
      },
      "getTimelock(address)": {
        "params": {
          "recipient": "Recipient of tokens"
        },
        "returns": {
          "releaseEnd": "Release end time",
          "releaseStart": "Release start time",
          "remainingAmount": "Remaining amount of tokens to be withdrawn",
          "totalAmount": "Total amount of tokens"
        }
      },
      "getWithdrawable(address)": {
        "params": {
          "recipient": "Address of the recipient"
        },
        "returns": {
          "withdrawable": "Amount of tokens withdrawable by the recipient"
        }
      },
      "owner()": {
        "details": "Returns the address of the current owner."
      },
      "renounceOwnership()": {
        "details": "Leaves the contract without owner. It will not be possible to call `onlyOwner` functions anymore. Can only be called by the current owner. NOTE: Renouncing ownership will leave the contract without an owner, thereby removing any functionality that is only available to the owner."
      },
      "stopVesting(address,address)": {
        "params": {
          "destination": "Destination of the excess tokens vested to the addresss",
          "recipient": "Original recipient of tokens"
        }
      },
      "transferAndLock(address,address,uint256,uint256,uint256)": {
        "details": "source needs to approve() this contract to transfer amount number of tokens beforehand. A recipient cannot have multiple timelocks.",
        "params": {
          "amount": "Amount of tokens",
          "recipient": "Recipient of tokens",
          "releaseEnd": "End of release time",
          "releaseStart": "Start of release time",
          "source": "Source of tokens"
        }
      },
      "transferAndLockMultiple(address,address[],uint256[],uint256[],uint256[])": {
        "details": "source is expected to be a single address. source needs to approve() this contract to transfer the sum of the amounts of tokens to be transferred and locked.",
        "params": {
          "amounts": "Array of amounts of tokens",
          "recipients": "Array of recipients of tokens",
          "releaseEnds": "Array of ends of release times",
          "releaseStarts": "Array of starts of release times",
          "source": "Source of tokens"
        }
      },
      "transferOwnership(address)": {
        "details": "Transfers ownership of the contract to a new account (`newOwner`). Can only be called by the current owner."
      }
    },
    "title": "Contract that the TimeLockManager Contract Owner uses to timelock API3 tokens",
    "version": 1
  },
  "userdoc": {
    "kind": "user",
    "methods": {
      "getRemainingAmount(address)": {
        "notice": "Returns remaining amount of a timelock"
      },
      "getTimelock(address)": {
        "notice": "Returns the details of a timelock"
      },
      "getWithdrawable(address)": {
        "notice": "Returns the amount of tokens a recipient can currently withdraw"
      },
      "stopVesting(address,address)": {
        "notice": "Called by the ContractOwner to stop the vesting of a recipient"
      },
      "transferAndLock(address,address,uint256,uint256,uint256)": {
        "notice": "Transfers API3 tokens to this contract and timelocks them"
      },
      "transferAndLockMultiple(address,address[],uint256[],uint256[],uint256[])": {
        "notice": "Convenience function that calls transferAndLock() multiple times"
      },
      "withdraw()": {
        "notice": "Used by the recipient to withdraw tokens"
      }
    },
    "notice": "The owner of TimelockManager can send tokens to TimelockManager to timelock them. These tokens will then be vested to their recipient linearly, starting from releaseStart and ending at releaseEnd of the respective timelock.",
    "version": 1
  },
  "storageLayout": {
    "storage": [
      {
        "astId": 565,
        "contract": "contracts/TimeLockManagerReversible.sol:TimelockManagerReversible",
        "label": "_owner",
        "offset": 0,
        "slot": "0",
        "type": "t_address"
      },
      {
        "astId": 1152,
        "contract": "contracts/TimeLockManagerReversible.sol:TimelockManagerReversible",
        "label": "timelocks",
        "offset": 0,
        "slot": "1",
        "type": "t_mapping(t_address,t_struct(Timelock)1146_storage)"
      }
    ],
    "types": {
      "t_address": {
        "encoding": "inplace",
        "label": "address",
        "numberOfBytes": "20"
      },
      "t_mapping(t_address,t_struct(Timelock)1146_storage)": {
        "encoding": "mapping",
        "key": "t_address",
        "label": "mapping(address => struct TimelockManagerReversible.Timelock)",
        "numberOfBytes": "32",
        "value": "t_struct(Timelock)1146_storage"
      },
      "t_struct(Timelock)1146_storage": {
        "encoding": "inplace",
        "label": "struct TimelockManagerReversible.Timelock",
        "members": [
          {
            "astId": 1139,
            "contract": "contracts/TimeLockManagerReversible.sol:TimelockManagerReversible",
            "label": "totalAmount",
            "offset": 0,
            "slot": "0",
            "type": "t_uint256"
          },
          {
            "astId": 1141,
            "contract": "contracts/TimeLockManagerReversible.sol:TimelockManagerReversible",
            "label": "remainingAmount",
            "offset": 0,
            "slot": "1",
            "type": "t_uint256"
          },
          {
            "astId": 1143,
            "contract": "contracts/TimeLockManagerReversible.sol:TimelockManagerReversible",
            "label": "releaseStart",
            "offset": 0,
            "slot": "2",
            "type": "t_uint256"
          },
          {
            "astId": 1145,
            "contract": "contracts/TimeLockManagerReversible.sol:TimelockManagerReversible",
            "label": "releaseEnd",
            "offset": 0,
            "slot": "3",
            "type": "t_uint256"
          }
        ],
        "numberOfBytes": "128"
      },
      "t_uint256": {
        "encoding": "inplace",
        "label": "uint256",
        "numberOfBytes": "32"
      }
    }
  },
  "gasEstimates": {
    "creation": {
      "codeDepositCost": "1441800",
      "executionCost": "infinite",
      "totalCost": "infinite"
    },
    "external": {
      "api3Token()": "infinite",
      "getRemainingAmount(address)": "1312",
      "getTimelock(address)": "3776",
      "getWithdrawable(address)": "infinite",
      "owner()": "1077",
      "renounceOwnership()": "24329",
      "stopVesting(address,address)": "infinite",
      "timelocks(address)": "3680",
      "transferAndLock(address,address,uint256,uint256,uint256)": "infinite",
      "transferAndLockMultiple(address,address[],uint256[],uint256[],uint256[])": "infinite",
      "transferOwnership(address)": "infinite",
      "withdraw()": "infinite"
    },
    "internal": {
      "getUnlocked(address)": "infinite"
    }
  }
}